:020000040800F2
:10000000902202240100100891201008D91E100827
:100010001927000867050008552510080000000092
:10002000000000000000000000000000FD2110089A
:100030001D0510080000000011280008952900087F
:100040001B0010081B0010081B0010081B001008E4
:100050001B0010081B0010081B0010081B001008D4
:100060001B0010081B0010081B0010081B001008C4
:100070001B0010081B0010081B0010081B001008B4
:100080001B0010081B0010081B0010081B001008A4
:100090001B0010081B0010081B0010081B00100894
:1000A0001B001008852310081B0010081B001008F7
:1000B0001B0010081B0010081B0010081B00100874
:1000C0001B0010081B0010081B0010081B00100864
:1000D0001B0010081B0010081B0010081B00100854
:1000E000F10A10081B001008000000001B00100897
:1000F0001B0010081B0010081B0010081B00100834
:100100001B0010081B0010081B0010081B00100823
:100110001B0010081B0010081B0010081B00100813
:100120001B0010081B0010081B0010081B00100803
:100130001B001008290600081B0010081B001008EF
:1001400000000000000000000000000000000000AF
:100150001B0010081B0010081B0010081B001008D3
:100160001B0010081B0010081B0010081B001008C3
:100170001B0010081B0010081B00100800000000E6
:100180001B0010081B0010081B0010081B001008A3
:100190001B0010081B0010081B0010081B00100893
:1001A0001B0010081B0010081B0010081B00100883
:1001B0001B0010081B0010081B0010081B00100873
:1001C0001B0010081B0010081B0010081B00100863
:1001D0001B0010081B0010081B0010081B00100853
:1001E0001B0010081B0010081B0010081B00100843
:1001F0001B0010081B0010081B0010081B00100833
:100200001B0010081B0010081B0010081B00100822
:100210001B0010081B0010081B0010081B00100812
:100220001B0010081B0010081B0010080000000035
:100230001B0010081B001008000000001B00100825
:100240001B0010081B0010081B0010081B001008E2
:100250001B0010081B0010081B0010081B001008D2
:100260001B0010081B0010081B0010081B001008C2
:100270001B0010081B0010081B00100800000000E5
:100280001B001008000000001B0010080000000008
:10029000000000001B001008DFF810D000F0F4F898
:1002A00000480047C16A0008AFF300809022022492
:1002B0002DE9F05F0546002092469B46884606469B
:1002C000814640241BE0284641464746224600F02E
:1002D00041F853465A46C01A914110D31146184668
:1002E000224600F028F82D1A67EB01084F462246F7
:1002F0000120002100F01FF817EB00094E41201EDD
:10030000A4F10104DFDC484631462A464346BDE8F5
:10031000F09F40EA01039B0703D009E008C9121FC0
:1003200008C0042AFAD203E011F8013B00F8013BAF
:10033000521EF9D27047202A04DB203A00FA02F15B
:10034000002070479140C2F1200320FA03F31943C3
:1003500090407047202A04DB203A21FA02F0002165
:10036000704721FA02F3D040C2F1200291400843C5
:10037000194670472DE9FE4F81EA030404F000445A
:1003800021F0004100944FF0000B23F0004350EAAD
:1003900001045ED052EA03045BD0C3F30A54C1F3F4
:1003A0000A552C44A4F2F3340194A0FB0254C1F387
:1003B000130141F48011C3F3130343F4801301FBD1
:1003C000024400FB034E840A970A44EA815447EA38
:1003D0008357A4FB076802958D0A05FB07854FEA42
:1003E000932C04FB0C542705029D4FEA065847EA5C
:1003F0001637B5EB08056EEB070C870E920E47EA31
:10040000811742EA8312A7FB0201B6EB0B0164EBF2
:1004100000042B0D43EA0C335E1844EB1C50DA4603
:100420005146E7FB0201C5F313044FEA0B3343EADD
:1004300014534FEA0432019C43EA0603A4F10C046E
:100440000294009CCDE900B400F03FF803B0BDE891
:10045000F08F00200146F9E7C1F30A52C1F31301FE
:1004600040F2FF3341F480119A4202DA0020014643
:10047000704740F233439A42A2F2334202DC5242C6
:10048000FFF768BFFFF757BF064C074D06E0E0686F
:1004900040F0010394E8070098471034AC42F6D3CB
:1004A000FFF7FEFE1C6F00083C6F000810B5141E1D
:1004B00073F1000408DA401C41F1000192185B411D
:1004C0001A4301D120F0010010BD2DE9F04D9246F4
:1004D0009B4611B1B1FA81F202E0B0FA80F220320B
:1004E0009046FFF728FF04460F4640EA0A0041EA1B
:1004F0000B0153465A46084313D0114653EA0100F4
:1005000019D0C8F140025046FFF724FF05460E46B9
:10051000504659464246FFF70EFF084305D00120DA
:1005200004E020463946BDE8F08D0020054346EA48
:10053000E0762C4337430A986305E40AA0EB0800F1
:100540000022FD0A44EA47540A3002D50020014641
:10055000E9E7010510196941DDE90845001969411C
:10056000BDE8F04DA2E700BFFEE710B501F1E2FDE6
:1005700001F192FD10BD10B5002210E002EB420423
:10058000036903EBC40100230B604B608B60CB60FD
:100590000B614B6100F12C0343F82210521C042A1A
:1005A000ECD30024C46304644464C46484640324FA
:1005B000036803F58053C3F83041036803F58053A3
:1005C0000469C3F81C4103694833046804F5805486
:1005D000C4F8283110BD10B500220EE002EB420431
:1005E000C36803EBC40100230B604B608B60CB60DE
:1005F00000F1180343F82210521C042AEED3002401
:1006000084620324036803F58053C3F82C41036814
:1006100003F58053C468C3F81441036803F580539D
:10062000C468C3F8204110BD10B5024800F034FC86
:1006300010BD0000D800002470B506463068D0F820
:10064000004224F4706401F125FA054613488542FE
:1006500005D31348854202D244F400741AE01048CE
:10066000854205D30F48854202D244F4407411E01C
:100670000C48854203D30C48854200D20AE00A4860
:10068000854205D30948854202D244F4807401E0D2
:1006900044F480643068C0F8004270BD002D310120
:1006A000C00E16020087930300E1F50580D1F00823
:1006B00010B5036803F580531B6847F60204A34393
:1006C0000C682343046804F5805423600C798B681C
:1006D00043EA04330C7B43EAC432036803F58053D6
:1006E0005B684DF20104A3431343046804F580548E
:1006F00063604C7B0B6A43EA0442036803F5805352
:10070000D3F80031164C23401343046804F5805499
:10071000C4F800310C7D0B6943EA04134C7F43EAB3
:100720000432036803F58053D3F804310D4C2340A1
:100730001343046804F58054C4F804310C7F8B69BA
:1007400043EAC472036803F58053D3F80831064CBA
:1007500023401343046804F58054C4F8083110BDE5
:1007600000C0FEFFEFEFC0FFFFFFC07F10B51A48CB
:10077000007880B302F10BFB4FF4FA6002F100FB4A
:100780001648007838B3002009E0154951F82010C8
:10079000144A12681144124A42F82010401C1249AF
:1007A00009688842F1DB002011E00F210F4A52F85E
:1007B000202011800E4951F82010094A52F82020BB
:1007C00011440A4A52F82020C2F80210401C06497F
:1007D00009688842E9DB10BD8C0000248D000024EC
:1007E00010020224940000248800002490EF0124C9
:1007F000900102242DE9FC41002400250027A04699
:10080000ADA002F1ABFA00287AD0AEA001F1A4FEAF
:10081000012002F0F1FF002873DDB0480168B0A0AC
:1008200001F19AFEAD480068B2490860AB48006823
:10083000096888422AD1012423E0C4EBC40000EBFC
:100840004410AD4A02EBC00000F586712246ABA011
:1008500001F182FEC4EBC40000EB4410A64A02EB97
:10086000C00081882246ACA001F176FEB148C4EBFD
:10087000C40101EB4411A04A02EBC101C1F8080117
:10088000641C9C4800688442D7DD06E0AAA001F100
:1008900063FE4FF0FF30BDE8FC8102F157FA642798
:1008A0000BE09448006801F119FB0646012E00D1C7
:1008B00007E03146A5A001F14FFE381EA7F1010760
:1008C000EFD100BF27B9012E02D0A5A001F144FE4F
:1008D00001241CE0C4EBC40000EB4410864901EB8A
:1008E000C00090F8C90000280CDDA0B2A14BA24ABC
:1008F000012102F093FF2146A0A001F12DFE05E0A9
:10090000D4E0CDE02146A2A001F126FE641C794886
:1009100000688442DEDDA44802F078FFA348406B03
:10092000A249096BCDE90010A048C36A826A818B95
:100930009FA001F111FEA64A0421002002F0E8FF69
:1009400002F116FA00240BE0C4EBC40000EB4410E3
:10095000694931F8302021469EA001F1FDFD641C5B
:10096000644800688442EFDDA0A001F1F5FD8F48E6
:10097000818C408C01EB4000A74908600846016863
:10098000A6A001F1E9FD02F102FA4FF4FA6002F1CA
:10099000F7F9002002F100FAC82000F133F94FF412
:1009A0007A7700BF002408E00820C4EBC40101EB03
:1009B0004411514A22F83100641C4E4800688442B8
:1009C000F2DD002403E0A0B202F1E6F9641C49481C
:1009D00000688442F7DD00240BE0C4EBC40000EBA8
:1009E0004410454931F8302021467AA001F1B4FD88
:1009F000641C404800688442EFDD4FF00108002489
:100A00000BE0C4EBC40000EB44103B4931F830006C
:100A1000082801D04FF00008641C36480068844262
:100A2000EFDDB8F1000F00D003E0381EA7F1010799
:100A3000B8D100BF3048008808282BD1012518E024
:100A4000C5EBC50000EB45102B4901EBC000016A66
:100A5000681E794A42F82010C5EBC50000EB45102E
:100A6000254901EBC000C16A681E744A42F8201093
:100A70006D1C204800688542E2DD01207049087045
:100A8000002201216F4800F047FD6FA001F164FDD5
:100A9000012000E772A001F15FFD6FF00100FAE6AE
:100AA00072A001F159FD6FF00200F4E674A001F1AB
:100AB00053FD6FF00300EEE6536572766F44726982
:100AC0007665000065635F696E69742073756363A2
:100AD00065656465642E0D0A000000002000002496
:100AE000256420736C6176657320666F756E640D86
:100AF0000A0000008800002490020024466F756EF2
:100B00006420257320617420706F736974696F6E3F
:100B10002025640D0A000000466F756E642025785C
:100B200020617420706F736974696F6E2025640D85
:100B30000A00000091280008536C617665206E75EC
:100B40006D206572726F72210D0A0000256420739A
:100B50006C617665206E6F742073796E630D0A0088
:100B6000536C6176652073796E63206661696C658C
:100B7000640D0A00E093040040420F00536C61765C
:100B800065202564206861732044430D0A0000003D
:100B9000536C61766520256420686173206E6F74E4
:100BA0002044430D0A00000090F10124909E00248F
:100BB0007365676D656E7473203A202564203A2052
:100BC00025642025642025642025640D0A0000008A
:100BD00080841E00536C6176652025642053746107
:100BE00074653D3078253034780D0A005265717592
:100BF000657374206F7065726174696F6E616C20CB
:100C0000737461746520666F7220616C6C20736C04
:100C1000617665730D0A00009000002443616C63E7
:100C2000756C6174656420776F726B636F756E7439
:100C300065722025640D0A0090EF012410F0012454
:100C40008C00002400100258416C6C20736C61769B
:100C5000657320656E746572204F50210D0A000087
:100C60004F50204572726F72210D0A004E6F207333
:100C70006C6176657320666F756E64210D0A0000E5
:100C800065635F696E6974206661696C65640D0AED
:100C90000000000072B600BFFEE7014601F04F0001
:100CA000402801D10120704701F06F00212801D1B7
:100CB0000220F8E701F06F00232801D10320F2E7BA
:100CC00001F06F00272801D10420ECE701F06F004C
:100CD000072801D10520E6E701F04F000F2801D1D8
:100CE0000620E0E701F04F00082801D10720DAE7ED
:100CF0000020D8E701480068704700002404004045
:100D000070B5054605F12C02536952F82310966917
:100D1000906908B9012070BDD06900B1761C00242B
:100D200023E0086908604FF08070C860486928B106
:100D300048698860C86840F00070C860C86840F0C2
:100D40000040C860106A18B1C86840F08040C860B0
:100D50009069401EA04207D900BF5B1C042B00D342
:100D60001B1F00BF52F82310641CB442D9D328685B
:100D700000F58050C0F828110020906100BFCAE73C
:100D800030B504460D4604F12C0050F825100AB188
:100D9000042D02D30120606530BD0A600A61C86875
:100DA00040F08070C8602BB18B604B61C86840F028
:100DB0000070C860C86840F00040C8600020EBE7E1
:100DC00070472DE9F84F06468B4606F12C07D7F8F9
:100DD00014800020009057F828505C46B86930B95C
:100DE000304600F0E3F910B90120BDE8F88F4FF06C
:100DF000000A27E0686978B10CB90120F5E7286995
:100E0000206070696060A4680CB90120EDE7686932
:100E100020607069606003E028692060706960602C
:100E2000E868C0F30E00009000BF08F10108B8F1B7
:100E3000040F01D3A8F1040800BF57F82850A46894
:100E40000AF1010AB869401E5045D3D80CB90120F7
:100E5000CBE7E868C0F30E010098A1EB00097069C8
:100E6000484504D328692060C4F8049012E06869FA
:100E700070B12869206070696060A4680CB90120B5
:100E8000B3E7686920607069A9EB0000606001E069
:100E90000120AAE70020A8E710B50446206800F565
:100EA0008050D0F8600100F04000402817D1206841
:100EB00000F58050D0F8340100F0400040280ED1F9
:100EC000204600F073F9012802D1204600F0EEF927
:100ED00048F24001206800F58050C0F86011206899
:100EE00000F58050D0F8600100F0010088B1206862
:100EF00000F58050D0F8340100F0010048B12046E0
:100F000000F192F948F20101206800F58050C0F824
:100F10006011206800F58050D0F8600100F4804036
:100F2000B0F5804F4DD1206800F58050D0F83401E5
:100F300000F48040B0F5804F43D1606D40F0080070
:100F40006065206800F58050D0F8600100F48050A2
:100F5000B0F5805F1DD1206800F58050D0F86001A9
:100F600041F202110840884201D1012000E0002036
:100F7000A065206800F58050D0F8340120F440418D
:100F8000206800F58050C0F83411E02084F851004A
:100F900014E0206800F58050D0F8600100F4CD40E6
:100FA000B0F5CD4F01D1012000E00020A0654FF445
:100FB000CD41206800F58050C0F860112046FFF058
:100FC00035FE2068D0F8B00000F4C040B0F5C04F46
:100FD0000BD12068D0F8B800E065E02084F851001B
:100FE0002046FFF06DFF0020E0652068D0F8B000DB
:100FF00000F0100010280AD12068D0F8C00000F0DE
:1010000060002066204600F050F90020206620682D
:10101000D0F8B00000F0200020280AD12068D0F8D5
:10102000C00000F00F0060662046FFF7C9FE0020F8
:1010300060660648006800F4800030B14FF480001C
:1010400002490860204600F1F5F810BDA8000058DC
:1010500038B504460CB9012038BD94F8510010B9D8
:101060002046FFF02FFF232084F8510000BF4D4899
:10107000006840F002004B4908600846006800F034
:101080000200009000BF00BF207A18B9002000F0D5
:10109000E1FF03E04FF4000000F0DCFF206800F502
:1010A0008050006840F00101206800F58050016028
:1010B00000F106F905460CE000F102F9401BB0F51D
:1010C000FA7F06D904206065E02084F851000120F1
:1010D000C2E7206800F58050006800F00100002899
:1010E000EAD12046FFF7A8FA00F1D4FC2E49B0FB64
:1010F000F1F0401E2168C1F8DC002046FFF00FFA35
:10110000206800F58050D0F8000120F4E01040F491
:101110000021206800F58050C0F80011207D00F00B
:10112000030030B101206065E02084F85100012007
:1011300092E7206800F58050D0F8080147F6FE716C
:101140008843616940EA4101206800F58050C0F899
:1011500008112046FFF73FFA2046FFF70CFA6068B7
:1011600000796168497940EA01202168C1F80003EB
:101170006068C07800066168897840EA014061686B
:10118000497840EA01206168097808432168C1F87C
:10119000040300206065102084F8510084F8520098
:1011A000002059E7F444025840420F00F0B50746CA
:1011B00007F12C03196953F821200025002400268B
:1011C000986908B10020F0BD3DE06D1CD06800F0CA
:1011D000805000B3641C012C00D10E4600BF491C96
:1011E000042900D3091F00BF53F82120D06800F064
:1011F000004058B9D06800F0804038B10120D86173
:1012000000BF491C042900D3091F00BF19615E619A
:101210009C610120D7E7D06800F0005050B10E4625
:10122000012400BF491C042900D3091F00BF53F843
:10123000212008E0641C00BF491C042900D3091FB9
:1012400000BF53F82120D06800F0004008B9042DF9
:10125000BBD334B3314653F8212000251FE0106979
:1012600010604FF08070D060506928B15069906074
:10127000D06840F00070D060D06840F00040D0608E
:10128000186A18B1D06840F08040D06000BF491C97
:10129000042900D3091F00BF53F821206D1CA5426B
:1012A000DDD30020986100BF8DE77047704770471D
:1012B00010B5044604480068204020B1024804608C
:1012C0002046FFF7F4FF10BD88000058F8B502462D
:1012D0000B460021002600240020824D00BFFCE0C8
:1012E000012707FA01F61F6807EA0604B4427CD119
:1012F0005F68022F02D05F68122F1AD14FEAD10C1B
:1013000002F1200757F82C004F074FEAD76C0F2740
:1013100007FA0CF7B8434FEA417C4FEADC6C1F69CF
:1013200007FA0CF738434FEAD10C02F1200747F8CF
:101330002C0010684FEA410C032707FA0CF7B8435A
:101340001F7907F003074FEA410C07FA0CF73843FF
:1013500010605F68012F08D05F68022F05D05F68BA
:10136000112F02D05F68122F17D190684FEA410CFD
:10137000032707FA0CF7B8434FEA410CDF6807FA76
:101380000CF738439060506801278F40B8431F79AD
:10139000C7F300178F4038435060D0684FEA410CC4
:1013A000032707FA0CF7B8434FEA410C9F6807FA86
:1013B0000CF73843D0605F6807F08057B7F1805F63
:1013C00095D100BF484F3F6847F00207DFF818C1CA
:1013D000CCF8007067463F6807F00207009700BF2F
:1013E00000BF424F4FEA910C00E075E057F82C0027
:1013F0008F074FEA177C0F2707FA0CF7B8433C4FCB
:10140000BA4201D100272DE03A4FBA4201D101275B
:1014100028E0394FBA4201D1022723E0374FBA42C0
:1014200001D103271EE0364FBA4201D1042719E04B
:10143000344FBA4201D1052714E0334FBA4201D1EB
:1014400006270FE0314FBA4201D107270AE0304F9B
:10145000BA4201D1082705E02E4FBA4201D109272F
:1014600000E00A274FEA817C4FEA1C7C07FA0CF760
:1014700038431E4F4FEA910C47F82C002868A043D0
:101480005F6807F48037B7F5803F00D120432860BC
:101490006868A0435F6807F40037B7F5003F00D1E4
:1014A000204368604FF0B0473868A0435F6807F496
:1014B0008017B7F5801F00D120434FF0B047386048
:1014C0007868A0435F6807F40017B7F5001F00D1E4
:1014D00020434FF0B0477860491C1029FFF400AF5B
:1014E000F8BD000080000058F44402580804005879
:1014F000000002580004025800080258000C02586C
:10150000001002580014025800180258001C02581B
:1015100000200258002402580AB1018300E04183F0
:1015200070470000034800680349097808440149EE
:10153000086070470C000024140000244178154A0C
:1015400011600178F9B1121D41681160017B090732
:10155000C27A41EA0261827A41EAC241427B41EAAF
:101560008241827B41EA4241C27B41EA0241427AA6
:1015700041EA0221027A41EA420102781143054A16
:101580000832116005E00021024A121D1160121D8F
:101590001160704798ED00E000BF00BF00BFBFF3CF
:1015A0005F8F00BF00BF00BF0548006820F4803097
:1015B000034908600020024970310860704700004C
:1015C00024ED00E040F001010D4A11600C49703932
:1015D000096841F480310A4A703A116000BF00BFC7
:1015E00000BFBFF34F8F00BF00BF00BF00BF00BFF1
:1015F00000BFBFF36F8F00BF00BF00BF7047000088
:1016000094ED00E001460846002809DB00F01F03C6
:1016100001229A4043099B0003F1E023C3F8002113
:1016200000BF70472DE9F05F80460D46164601F079
:10163000BFFF074639462A46334601F00700C0F18E
:10164000070ABAF1040F02D94FF0040A01E0C0F111
:10165000070AD14600F1040ABAF1070F02D24FF08F
:10166000000A01E0A0F1030AD4464FF0010A0AFA89
:1016700009FAAAF1010A0AEA020A0AFA0CFA4FF078
:10168000010B0BFA0CFBABF1010B0BEA030B4AEA63
:101690000B042146404601F093FFBDE8F09F000097
:1016A00010B500F045F80949096801F470614FF47C
:1016B000807292FAA2F2B2FA82F2D140044A515CEC
:1016C000C840044908600846006810BD1844025824
:1016D000486E00081800002410B500F1DBF9074936
:1016E000096801F07001102292FAA2F2B2FA82F2B5
:1016F000D140034A515CC84010BD0000204402584C
:10170000486E000810B500F1C5F90749096801F0F5
:101710007001102292FAA2F2B2FA82F2D140034A88
:10172000515CC84010BD00001C440258486E0008BF
:1017300070B5012500EE905A0022012100230024FB
:10174000DFED861AB0EE610ADFED841AB0EE611AA1
:101750000020834D2D6805F0380535B1082D15D0D2
:10176000102D15D0182D7CD114E07D4D103D2D6825
:10177000C5F3401545B17A4D103D2D68C5F3C1063E
:10178000784D25FA06F000E07648E5E07648E3E09B
:101790007648E1E0724D18352D6805F00302704D72
:1017A00018352D68C5F305116D4D1C352D6805F0F4
:1017B00001036B4D24352D68C5F3CC0515FB03F5EE
:1017C00001EE905AF8EE611AB0EE610A22B1012AD8
:1017D0004FD0022A7DD16BE0614D103D2D68C5F3DD
:1017E00040152DB35E4D103D2D68C5F3C1065D4D0E
:1017F00025FA06F4B4FBF1F501EE905AB8EE612A31
:10180000DFED5B1AC0EE212A554D20352D68C5F35A
:10181000080501EE905AF8EE611A72EEA11AF7EE81
:10182000002A71EEA21A62EE211AB0EE611A1FE0D0
:101830004C4DB5FBF1F501EE905AB8EE612ADFEDA3
:101840004C1AC0EE212A464D20352D68C5F30805F7
:1018500001EE905AF8EE611A72EEA11AF7EE002A24
:1018600000E077E071EEA21A62EE211AB0EE611A82
:101870005EE03D4DB5FBF1F501EE905AB8EE612A00
:10188000DFED3B1AC0EE212A354D20352D68C5F31A
:10189000080501EE905AF8EE611A72EEA11AF7EE01
:1018A000002A71EEA21A62EE211AB0EE611A3FE030
:1018B0002E4DB5FBF1F501EE905AB8EE612ADFED41
:1018C0002C1AC0EE212A264D20352D68C5F30805B7
:1018D00000E00EE001EE905AF8EE611A72EEA11AE5
:1018E000F7EE002A71EEA21A62EE211AB0EE611A2A
:1018F0001EE01D4DB5FBF1F501EE905AF8EE612AA0
:10190000DFED1B1A80EE212A154D20352D68C5F319
:10191000080501EE905AF8EE611A72EE211AB7EE40
:10192000002A71EE821A62EEA11AB0EE611A00BFAF
:1019300000BF0B4D20352D68C5F346256D1C00EE0C
:10194000905AF8EE601A81EE212AFCEEC21A11EECE
:10195000900A01E0044800BF00BF70BD0000000015
:10196000104402580090D00300093D0040787D01EA
:101970000000004610B50748006800F48060B0F52C
:10198000806F06D1FFF052FF4FF480600149091DBE
:10199000086010BD6444025870B5044600252078E4
:1019A00000F00100002870D0F748006800F038000F
:1019B00010280CD0F448006800F03800182812D124
:1019C000F1481830006800F0030002280BD1EE48FF
:1019D00010380068C0F34040002869D060680028D3
:1019E00066D1012070BD00BF6068B0F5803F08D1AE
:1019F000E5481038006840F48030E3491039086049
:101A00002EE0606868B9E0481038006820F4803043
:101A1000DD49103908600846006820F4802008601D
:101A20001EE06068B0F5A02F0DD1D74810380068CF
:101A300040F48020D449103908600846006840F41A
:101A4000803008600CE0D0481038006820F4803006
:101A5000CD49103908600846006820F480200860ED
:101A600000BF606890B1FFF02BFC054606E0FFF078
:101A700027FC401B642801D90320B3E7C248103873
:101A80000068C0F340400028F1D011E0FFF018FCDE
:101A9000054606E0FFF014FC401B642801D9032032
:101AA000A0E7B94810380068C0F340400028F1D1E1
:101AB000207800F00200022847D1B348006800F007
:101AC000380058B1B048006800F0380018283ED1FE
:101AD000AD481830006800F00300B8BBAA481038C1
:101AE0000068C0F3800018B1E06808B9012079E708
:101AF000A5481038006820F01900E1680843A249A1
:101B000010390860FFF0DCFB054606E0FFF0D8FB6B
:101B1000401B022801D9032064E79B481038006865
:101B2000C0F380000028F1D097480C38006820F4FA
:101B30007C304FF47C3292FAA2F2B2FA82F221693E
:101B40009140084390490C3908604AE0FFE7E0689B
:101B500068B38D481038006820F01900E168084328
:101B6000894910390860FFF0ABFB054606E0FFF03D
:101B7000A7FB401B022801D9032033E78248103815
:101B80000068C0F380000028F1D07F480C3800685E
:101B900020F47C304FF47C3292FAA2F2B2FA82F254
:101BA00021699140084378490C39086019E076486A
:101BB0001038006820F00100734910390860FFF008
:101BC0007FFB054606E0FFF07BFB401B022801D9A6
:101BD000032007E76C4810380068C0F38000002835
:101BE000F1D1207800F01000102877D16648006805
:101BF00000F0380008280CD06348006800F0380076
:101C0000182823D160481830006800F0030001282C
:101C10001CD15D4810380068C0F3002020B1E06995
:101C2000802801D00120DDE657480C38006820F0FC
:101C3000F8404FF0F84292FAA2F2B2FA82F2216A28
:101C40009140084350490C39086047E0E06958B3B7
:101C50004D481038006840F080004B49103908604A
:101C6000FFF02EFB054606E0FFF02AFB401B022892
:101C700001D90320B6E6444810380068C0F30020BC
:101C80000028F1D040480C38006820F0F8404FF0B0
:101C9000F84292FAA2F2B2FA82F2216A9140084323
:101CA00039490C39086019E037481038006820F0CD
:101CB0008000354910390860FFF002FB054606E058
:101CC000FFF0FEFA401B022801D903208AE62E48C5
:101CD00010380068C0F300200028F1D1207800F00F
:101CE0000800082836D16069D0B127486430006800
:101CF00040F00100244964310860FFF0E1FA054634
:101D000006E0FFF0DDFA401B022801D9032069E656
:101D10001D4864300068C0F340000028F1D019E08D
:101D200019486430006820F00100174964310860E8
:101D3000FFF0C6FA054606E0FFF0C2FA401B022893
:101D400001D903204EE6104864300068C0F340001B
:101D50000028F1D1207800F02000202834D1A0699B
:101D6000D8B109481038006840F48050064910394D
:101D70000860FFF0A5FA054608E0FFF0A1FA401B55
:101D8000022803D903202DE610440258AF4800680A
:101D9000C0F340300028F0D016E0AC48006820F4D2
:101DA0008050AA490860FFF08BFA054606E0FFF074
:101DB00087FA401B022801D9032013E6A3480068D4
:101DC000C0F340300028F2D1207800F0040004284D
:101DD0007DD19F48006840F480709D490860FFF005
:101DE0006FFA054606E0FFF06BFA401B642801D944
:101DF0000320F7E59648006800F480700028F2D0D0
:101E000000BFA068012808D190487030006840F0F9
:101E100001008E49703108602DE0A06868B98B48D8
:101E20007030006820F00100884970310860084671
:101E3000006820F0040008601DE0A06805280DD1AE
:101E400082487030006840F00400804970310860BA
:101E50000846006840F0010008600CE07B487030E4
:101E6000006820F001007949703108600846006878
:101E700020F00400086000BFA068A0B1FFF020FAC5
:101E8000054608E0FFF01CFA401B41F28831884209
:101E900001D90320A6E56D4870300068C0F340000A
:101EA0000028EFD013E0FFF00BFA054608E0FFF042
:101EB00007FA401B41F28831884201D9032091E59D
:101EC000624870300068C0F340000028EFD1606ABB
:101ED00000287CD05D481030006800F038001828D9
:101EE00076D0606A022874D15848006820F080706B
:101EF00056490860FFF0E4F9054606E0FFF0E0F916
:101F0000401B022801D903206CE550480068C0F34B
:101F100040600028F2D100BFD4E90A1041EA001065
:101F20004A492831096840F2F3329143084347494E
:101F300028310860208E401EC0F30800616B491EE6
:101F40004FF47E4202EA41210843218F491ED2010B
:101F500002EA014108433C21095D491E120202EADE
:101F60000161084339493031086000BF081D00682D
:101F70004FF6F87188434FF6F87292FAA2F2B2FA6D
:101F800082F2A16C914008433049343108602F48F7
:101F90002C30006820F00C00216C08432B492C31B8
:101FA00008600846006820F00200616C0843274979
:101FB0002C3108600846006840F48030086008460C
:101FC000006840F4003008600846006802E03BE02A
:101FD00038E01FE040F4802008600846006840F0C8
:101FE000010008601948006840F0807017490860D7
:101FF000FFF066F9054606E0FFF062F9401B022893
:1020000001D90320EEE411480068C0F340600028C5
:10201000F2D019E00D48006820F080700B4908608C
:10202000FFF04EF9054606E0FFF04AF9401B022892
:1020300001D90320D6E405480068C0F340600028B9
:10204000F2D101E00120CDE40020CBE400440258AD
:10205000004802580349096821F460010143014A1C
:102060001160704704040058704710B5FFF7FCFF7B
:1020700010BD704730B502460B4600BF92F83C00D9
:10208000012801D1022030BD012082F83C0000BFB0
:1020900010684168106884680F4D1068A84203D02A
:1020A0000E4D1068A84203D121F470015868014315
:1020B00021F070011868014324F0800498680443FB
:1020C000106841601068846000BF002082F83C0006
:1020D00000BF00BFD7E7000000000140000401403E
:1020E00010B504460CB9012010BD94F83D0028B984
:1020F000002084F83C002046FFF02EFD022084F8EA
:102100003D00211D206800F145F9012084F83D00C3
:102110000020E9E72DE9F04104460D46002600BF06
:1021200094F83C00012802D10220BDE8F081012092
:1021300084F83C0000BF022084F83D0020688668D7
:102140004148064026F47F4620688660286850286B
:102150003BD00CDC202860D004DC002853D01028B1
:1021600065D155E030285DD0402860D141E060283D
:1021700035D070280DD0B0F5805F03D0B0F5005F8A
:1021800055D115E020688068304908402168886092
:102190004EE0D5E902136A68206800F001FC20686F
:1021A00086682948064046F07706206886603FE04A
:1021B000D5E902136A68206800F0F2FB20688068A5
:1021C00040F480402168886032E0EA6869682068ED
:1021D00000F048FC5021206800F142F928E0EA684C
:1021E0006968206800F148F96021206800F138F939
:1021F0001EE0EA686968206800F034FC402120682D
:1022000000F12EF914E00021206800F129F90FE017
:102210001021206800F124F90AE02021206800F153
:102220001FF905E03021206800F11AF900E000BF35
:1022300000BF012084F83D0000BF002084F83C006E
:1022400000BF00BF71E7000088FFCEFFF8FFFEFF70
:102250007047704710B504460CB9012010BDA06945
:1022600000B100E000BF94F8790028B9002084F89C
:1022700078002046FFF0F0FD242084F879002068E3
:10228000006820F0010021680860204600F074FC1E
:10229000012800D1E2E7606B10B1204600F0F7FBA7
:1022A0002068406820F49040216848602068806879
:1022B00020F02A00216888602068006840F0010052
:1022C00021680860204600F1EDF8C7E72DE9F843E2
:1022D00004460D4616461F464FF0000994F8790053
:1022E000202854D105B116B90120BDE8F88300BFFC
:1022F00094F87800012801D10220F6E7012084F843
:10230000780000BF00206034E06121206076FEF09C
:10231000D7FF814626806680603C21E0B4F86200E9
:10232000401EA4F862004B46002280212046009700
:1023300001F0F4F808B10320D7E7A068B0F5805F9A
:102340000AD1206940B9A846B8F80000C0F30800D7
:1023500021680885AD1C03E015F8010B216808858C
:10236000B4F862000028D9D14B4600224021204613
:10237000009701F0D3F808B10320B6E7202084F8D5
:10238000790000BF002084F8780000BFADE702208C
:10239000ABE700007CB5002001900025012400BFC0
:1023A00015E001AB122229463148FEF01BFE04461F
:1023B0001CB130A000F1D0F808E0019800F01F0037
:1023C000A84202D12F48056003E000BF6D1C202DFC
:1023D000E7D900BF2B4800681F2805D92AA000F1C3
:1023E000BBF84FF0FF307CBD4FF40043002225487E
:1023F00001681F48FEF020FF04462CB11DA000F12B
:10240000ABF84FF0FF30EEE700BF01AB00221D48F4
:1024100001681748FEF0E6FD04462CB115A000F156
:102420009BF84FF0FF30DEE7019800F400400028F1
:10243000EBD100906B460022124801680C48FEF078
:10244000D1FD044614B10BA000F186F8009840F4C9
:102450008050009000220B48009B01680448FEF069
:10246000EBFE044614B10FA000F176F80020BAE7A5
:10247000D800002452656164526567206572726FEE
:10248000720D0A009C0000244D617463682050485E
:10249000592041646472657373204661696C656498
:1024A000210D0A005374617274204175746F4E657A
:1024B000676F206572726F720D0A00001FB5FFF71B
:1024C0006BF801208DF800001F48019007208DF85F
:1024D000080003208DF80B0001208DF80F0000206C
:1024E0008DF80E008DF80D008DF801008DF80A00B2
:1024F0008DF809008DF80C006846FFF71FF80120E1
:102500008DF80000114801900D208DF8080003207F
:102510008DF80B0000208DF80F0001208DF80E00C3
:1025200000208DF80D0001208DF8010000208DF8AD
:102530000A008DF809008DF80C006846FEF7FEFFD2
:102540000420FFF73FF81FBD0000043000400430B6
:102550001CB520482049086001208DF800000020AB
:102560008DF8010045208DF8020019208DF8030038
:1025700003208DF8040000208DF80500C1F804D078
:102580000121154801721549C160154901614FF4D7
:10259000BF61416100224FF400511248FEF7BCFFB9
:1025A0003720FEF02FFB012251030E48FEF7B4FF47
:1025B0003720FEF027FB0848FEF74AFD0648FEF7E5
:1025C00047FD18B908A0FFF0C7FF02E00CA0FFF01C
:1025D000C3FF1CBD00800240D8000024600004300E
:1025E00000000430000C02584D616320496E69748C
:1025F000205375636365737366756C6C790D0A009F
:102600004D616320496E6974204661696C65640D93
:102610000A00000000B587B00020039004900590E8
:1026200006900090019002901648FFF095FA164827
:10263000144908603120486000211248816040F64A
:102640009F71C1600021016141618161FFF748FD17
:1026500008B1FEF71FFB4FF48050039003A909480F
:10266000FFF758FD08B1FEF715FB00200090019020
:10267000029069460348FFF7FDFC08B1FEF70AFB2C
:1026800007B000BD400100240000014000B585B046
:102690001048FFF061FA10480E49086000204860B9
:1026A00000210C4881600D49C16000210161802139
:1026B0008161FFF715FD0720009010200190002098
:1026C000029069460348FFF09BFB0248FFF090FA36
:1026D00005B000BDC00100240004004020A1070097
:1026E00010B50B480B4908604FF4E13048600021F9
:1026F00008488160C16001610C2141610021816154
:10270000C161FFF7A7FD08B1FEF7C4FA10BD0000D4
:10271000001001400002002400BFFEE7F0B59DB0AC
:10272000002769462D48FEF06DFB01208DF8000062
:1027300069462A48FEF0A4FC00250CE0C5EB851094
:1027400000EBC510264901EBC002002329462348AF
:10275000FEF716FB6D1C042DF0D3FFF71BFE00BF28
:102760006420FEF04FFAFEF0C9F906461DA0FFF006
:10277000F3FE012EF4DD314620A0FFF0EDFE022E27
:1027800006D0032E08D0042E0AD0052E0FD10BE060
:102790004FF4005467000EE000244FF480470AE035
:1027A0004FF40054002706E00024002703E04FF414
:1027B0000054670000BF00BF04A90848FEF037FAC4
:1027C0000A94099704A90548FEF048FC0348FEF066
:1027D0008BFC0248FEF794FA1DB0F0BDD80000242F
:1027E00000020430436F6E6E656374204465766941
:1027F0006365202E2E2E2E2E2E0D0A004C696E6B38
:10280000205374617475732069732025640D0A0068
:102810007047000010B500231B4C236000BF00BFB1
:1028200000BFBFF34F8F00BF00BF00BF231F18685A
:10283000C0F34E3100BFC0F3C90200BF43F6E073DE
:1028400003EA41134FF0404404EA827423430F4CDF
:10285000236000BF00BF131EA2F10102EED10B1EC8
:10286000A1F10101E7D100BF00BF00BFBFF34F8F4F
:1028700000BF00BF00BF00BF00BF00BFBFF36F8F2E
:1028800000BF00BF00BF10BD84ED00E074EF00E0AA
:1028900070B506460124012500BF00BF00231A467B
:1028A00041F61241304604F07BFA00231A464FF4F9
:1028B000B051304604F074FA2246641C314B4FF498
:1028C000B051304604F032FA2246641C2E4B4FF4CD
:1028D000B051304604F02AFA601EC3B200224FF411
:1028E000B051304604F05CFA4FF4B053012241F687
:1028F0001241304603F1CEFE0123002241F612417F
:10290000304604F04DFA00231A4641F61341304692
:1029100004F046FA00231A464FF4D051304604F032
:102920003FFA2A466D1C194B4FF4D051304604F043
:10293000FDF92A466D1C164B4FF4D051304604F079
:10294000F5F9681EC3B200224FF4D051304604F0AE
:1029500027FA4FF4D053012241F61341304603F1D8
:1029600099FE0123002241F61341304604F018FA83
:102970000823002246F26001304604F011FA0020DC
:1029800070BD00001000406020007A6010004160BF
:102990002000646010B5FEF7C5FDFFF766FB10BDB3
:1029A00030B50C460021816821F47F4142EA0325BD
:1029B00025432943816030BD2DE9F04104460D4691
:1029C00000260027B04620688668244806406868CC
:1029D00006432348064028680643206886606868E6
:1029E00000F00F01002935D10011082832D2DFE8AC
:1029F00000F02D2E2F300B212704D5E90313AA68F0
:102A00002068FFF7CDFF26E02068D0F820802068FE
:102A1000006A20F00100216808622068876927F0B9
:102A2000F007286947EA0017206887612068C0F826
:102A3000208010E02A69A968206800F013F80AE0F5
:102A40002A69A9682068FFF017FD04E003E002E0AE
:102A500001E000E000BF00BFBDE8F0818FFFCFFFC5
:102A6000F8FFFEFF30B50B46144600210022026A33
:102A7000056A25F001050562816921F0F00141EA4E
:102A8000041122F00A021A438161026230BD90F8FB
:102A9000341001F0010139B10168496821F40031B5
:102AA000826B11430268516090F8341001F002010A
:102AB00039B10168496821F48031C26B1143026861
:102AC000516090F8341001F0040139B1016849688F
:102AD00021F48021026C11430268516090F8341097
:102AE00001F0080139B10168496821F40041426CE4
:102AF00011430268516090F8341001F0100139B1AF
:102B00000168896821F48051826C114302689160E8
:102B100090F8341001F0200139B10168896821F47E
:102B20000051C26C11430268916090F8341001F0BA
:102B3000400199B10168496821F48011026D114387
:102B400002685160016DB1F5801F07D101684968C5
:102B500021F4C001426D11430268516090F83410B5
:102B600001F0800139B10168496821F40021826DCA
:102B700011430268516070472DE9F04F89B0044657
:102B800000254FF08008A946AA4600200890FA497F
:102B90002068884201D1012000E0002000B100E05F
:102BA00000BFA06AB0F1005F00D100BF2169A0683A
:102BB000084361690843E16940EA0105A06A0543E9
:102BC00020680068ED4908402843216808602068B3
:102BD000406820F44050E168084321684860A569D6
:102BE000E5492068884201D1012000E0002008B9B1
:102BF000206A0543A06AB0F1005F03D1D4E90B015C
:102C00000843054320688068DD490840284321685F
:102C100088602068C06A20F00F00616A084321685C
:102C2000C86200BFD7492068884224D1D6480068CE
:102C300000F03800182814D005DC48B108280AD064
:102C4000102817D10AE020280ED0282812D10EE033
:102C50004FF001080EE04FF004080BE04FF0400881
:102C600008E04FF0080805E04FF0100802E04FF0D0
:102C7000200800BF17E1C549206888421DD1C2481D
:102C8000006800F00700062816D2DFE800F003060F
:102C9000090C0F124FF000080EE04FF004080BE093
:102CA0004FF0400808E04FF0080805E04FF010082A
:102CB00002E04FF0200800BFF5E0B54920688842E7
:102CC0001DD1B148006800F00700062816D2DFE8E1
:102CD00000F00306090C0F124FF000080EE04FF051
:102CE00004080BE04FF0400808E04FF0080805E04A
:102CF0004FF0100802E04FF0200800BFD3E0A549D4
:102D0000206888421DD1A048006800F0070006280E
:102D100016D2DFE800F00306090C0F124FF000088E
:102D20000EE04FF004080BE04FF0400808E04FF0D1
:102D3000080805E04FF0100802E04FF0200800BF3F
:102D4000B1E09549206888421DD18F48006800F0A5
:102D50000700062816D2DFE800F00306090C0F1260
:102D60004FF000080EE04FF004080BE04FF0400871
:102D700008E04FF0080805E04FF0100802E04FF0BF
:102D8000200800BF8FE085492068884224D17E4812
:102D9000006800F03800182814D005DC48B1082875
:102DA0000AD0102817D10AE020280ED0282812D1E6
:102DB0000EE04FF001080EE04FF004080BE04FF07A
:102DC000400808E04FF0080805E04FF0100802E066
:102DD0004FF0200800BF66E07149206888421DD18D
:102DE0006948006800F00700062816D2DFE800F006
:102DF0000306090C0F124FF000080EE04FF0040814
:102E00000BE04FF0400808E04FF0080805E04FF0F5
:102E1000100802E04FF0200800BF44E0614920683C
:102E200088421DD15848006800F00700062816D2D5
:102E3000DFE800F00306090C0F124FF000080EE067
:102E40004FF004080BE04FF0400808E04FF008088E
:102E500005E04FF0100802E04FF0200800BF22E02C
:102E60004549206888421ED14748001D006800F08F
:102E70000700062816D2DFE800F00306090C0F123F
:102E80004FF002080EE04FF004080BE04FF040084E
:102E900008E04FF0080805E04FF0100802E04FF09E
:102EA000200800BF00BF00BF33492068884201D11D
:102EB000012000E0002000285DD00025B8F1100FAF
:102EC00033D009DCB8F1020F10D0B8F1040F11D0E3
:102ED000B8F1080F2ED117E0B8F1200F27D0B8F1C4
:102EE000400F0CD0B8F1800F24D124E0FEF7F4FBA2
:102EF000054623E005A8FEF06DFA069D1EE002A837
:102F0000FEF07EFB039D19E01F4854380068C0F3B3
:102F1000401040B11C4854380068C0F3C101224839
:102F200020FA01F500E0204D08E0204D06E04FF4C6
:102F3000004503E000BF0120089000BF00BF002D46
:102F40000AD0606800EB4000A84203D86068000324
:102F5000A84202D201200890D4E2B8F1100F7CD030
:102F600026DCB8F1020F2DD0B8F1040F52D0B8F121
:102F7000080F73D19EE03FE1000C0058F369FFCFCA
:102F8000FFF4FF1100100140544402580044004077
:102F900000480040004C0040005000400014014038
:102FA00000780040007C00400090D00300093D0004
:102FB000B8F1200F7DD0B8F1400F54D0B8F1800F98
:102FC000D7D109E1FEF788FB00270646FB49606A76
:102FD00031F810C062463B4630463946FDF768F985
:102FE0004FF4807600220346A3FB060701FB06711F
:102FF00003FB021361684908064671185A41CDE97E
:10300000001266683246002308460199FDF750F920
:103010000546E4E005A8FEF0DDF9DDF818C0E74953
:10302000606A31F810B05A46002360461946FDF731
:103030003FF94FF4807C0022A0FB0C3B01FB0CB15C
:1030400000FB0210616849085E1840EB0201D4F8E9
:1030500004C062460023304601E079E0BBE0FDF7A2
:1030600027F90546BBE002A8FEF0CAFADDF80CC05D
:10307000D249606A31F810B05A46002360461946BA
:10308000FDF716F94FF4807C0022A0FB0C3B01FBFE
:103090000CB100FB0210616849085E1840EB0201A8
:1030A000D4F804C0624600233046FDF701F9054616
:1030B00095E06EE0C2480068C0F3401038B3C048E5
:1030C0000068C0F3C101BF4820FA01FCBB49606A37
:1030D00031F810B05A46002360461946FDF7E8F86B
:1030E0004FF4807C0022A0FB0C3B01FB0CB100FBE9
:1030F0000210616849085E1840EB0201D4F804C070
:10310000624600233046FDF7D3F805461FE0AB4981
:10311000606A31F810C062460023AA481946FDF7DC
:10312000C7F84FF4807C0022A0FB0C3B01FB0CB1E4
:1031300000FB0210616849085E1840EB0201D4F8F8
:1031400004C0624600233046FDF7B2F8054646E06B
:103150009A49606A31F810C0624600239A481946BD
:10316000FDF7A6F84FF4807C0022A0FB0C3B01FB8E
:103170000CB100FB0210616849085E1840EB0201C7
:10318000D4F804C0624600233046FDF791F80546A6
:1031900025E08A49606A31F810C0624600234FF486
:1031A00000401946FDF784F84FF4807C0022A0FB14
:1031B0000C3B01FB0CB100FB0210616849085E1872
:1031C00040EB0201D4F804C0624600233046FDF70C
:1031D0006FF8054603E000BF0120089000BF00BF64
:1031E000B5F5407F05D3B5F5801F02D22068C560D4
:1031F00088E10120089085E1E069B0F5004F7CD1BD
:10320000B8F1100F7AD00CDCB8F1000F13D0B8F180
:10321000010F21D0B8F1040F2FD0B8F1080F6ED1F3
:1032200051E0B8F1200F6BD0B8F1400F38D0B8F1B1
:10323000800F64D197E0FEF765FA604A616A32F860
:103240001110B0FBF1F04000616800EB5100B0FBE1
:10325000F1F01FFA80FA89E0FEF038FC574A616A03
:1032600032F81110B0FBF1F04000616800EB510042
:10327000B0FBF1F01FFA80FA78E005A8FEF0AAF89A
:1032800006994E4A606A32F81000B1FBF0F0400037
:10329000616800EB5100B0FBF1F01FFA80FA65E0C5
:1032A00002A8FEF0ADF90399444A606A32F81000B2
:1032B000B1FBF0F04000616800EB5100B0FBF1F0B1
:1032C0001FFA80FA52E03E480068C0F34010C0B1D7
:1032D0003B480068C0F3C1013A48C840374A616AB8
:1032E00032F81110B0FBF1F04000616800EB5100C2
:1032F000B0FBF1F01FFA80FA12E044E011E031E097
:103300001FE02E49606A31F810002E49B1FBF0F041
:103310004000616800EB5100B0FBF1F01FFA80FA49
:1033200024E02649606A31F810002749B1FBF0F02B
:103330004000616800EB5100B0FBF1F01FFA80FA29
:1033400014E01E49606A31F810004FF40041B1FBEF
:10335000F0F04000616800EB5100B0FBF1F01FFAA3
:1033600080FA03E000BF0120089000BF00BF4FF6C5
:10337000F0700AEA0009CAF3420049EA000920682D
:10338000C0F80C90BEE0B8F1100F7CD00CDCB8F1A6
:10339000000F1BD0B8F1010F29D0B8F1040F37D0BE
:1033A000B8F1080F70D159E0B8F1200F6DD0B8F125
:1033B000400F40D0B8F1800F66D19FE00C67100835
:1033C000004402580090D00300093D00FEF79AF92E
:1033D0004E4A616A32F81110B0FBF1F0616800EBFF
:1033E0005100B0FBF1F080B22168C86089E0FEF0C6
:1033F0006DFB464A616A32F81110B0FBF1F061686A
:1034000000EB5100B0FBF1F080B22168C86078E0B9
:1034100005A8FDF0DFFF06993C4A606A32F810000B
:10342000B1FBF0F0616800EB5100B0FBF1F080B24D
:103430002168C86065E002A8FEF0E2F80399334A0B
:10344000606A32F81000B1FBF0F0616800EB5100E7
:10345000B0FBF1F080B22168C86052E02C480068EF
:10346000C0F34010C0B12A480068C0F3C101294828
:10347000C840264A616A32F81110B0FBF1F0616869
:1034800000EB510002E017E037E025E0B0FBF1F07F
:1034900080B22168C8600EE01C49606A31F81000F3
:1034A0001C49B1FBF0F0616800EB5100B0FBF1F09A
:1034B00080B22168C86024E01449606A31F81000C5
:1034C0001549B1FBF0F0616800EB5100B0FBF1F081
:1034D00080B22168C86014E00C49606A31F81000BD
:1034E0004FF40041B1FBF0F0616800EB5100B0FB1C
:1034F000F1F080B22168C86003E000BF01200890AD
:1035000000BF00BF089809B0BDE8F08F0C67100835
:10351000004402580090D00300093D002DE9F0411D
:1035200004460D4617469846069E21E0701CF8B1E9
:103530002EB1FDF0C5FEA0EB0800B04218D92068FE
:10354000006820F4D070216808602068806820F04E
:10355000010021688860202084F8790084F87A00CE
:1035600000BF002084F8780000BF0320BDE8F08190
:103570002068C0692840A84201D1012000E0002055
:10358000B842D3D00020F1E70FB4084B10B504A91E
:1035900002AA0398FEF0F0FF044602A9002000F002
:1035A0001EF9204610BC5DF814FB0000DF37000850
:1035B00002480068C0F30220704700000CED00E0F4
:1035C00010B5002804DB0A07130E054A135406E061
:1035D0000A07140E034A00F00F031B1FD45410BD3A
:1035E00000E400E018ED00E002E008C8121F08C186
:1035F000002AFAD170477047002001E001C1121F74
:10360000002AFBD1704700002DE9FF5F82B0002146
:10361000DDE90430020DDDF840B0034318D044F674
:103620001050A2F2FF3242431514119801281FD006
:10363000A5EB0B00401C5FEA000A4FF000064E4F5E
:10364000DFF83891B046504615D5CAF1000413E0B2
:10365000119801244AA3012801D16FEA0B010298B5
:10366000119AC0E90031C0E9024206B0BDE8F09FFE
:10367000CBF10000DFE704460021404A491842EB45
:103680000450CDE9001012E0E00707D032463B4677
:1036900040464946FCF76EFE8046894632463B4628
:1036A00010461946FCF766FE06460F466410002CCD
:1036B000EAD1DDE90401DDE90023BAF1000F06DA01
:1036C000FCF758FE42464B46FCF754FE05E0FCF082
:1036D000B2FD42464B46FCF0AEFD04460E460022CB
:1036E000284BFCF017FE03D84FF0FF30014607E0EF
:1036F0000022254B20463146FCF0F6FCFCF7ACFEE0
:10370000102409E0002C0ADB0A220023FCF7D0FD7C
:10371000039B30321A55641E50EA0102F2D1641C38
:10372000039AC4F111031444119A012A03D001220F
:1037300008430DD10AE0084304D000204FF0110BDC
:10374000119072E7A3EB0B056D1E0DE05B4504DDE8
:103750004FF0000205F1010504E003DA4FF000022A
:10376000A5F10105002AECD002981199C0E90231B7
:10377000C0E9004579E70000000014400000F03F78
:10378000300000000000F0430000E03F2DE9F04170
:10379000044600251E461746880404D405E0394631
:1037A0002020B0476D1C641EF9D52846BDE8F08185
:1037B0002DE9F041044600251E469046C80301D578
:1037C000302700E02027880404D505E0414638462C
:1037D000B0476D1C641EF9D52846BDE8F0810A6823
:1037E000531C0B601070704710B5044640F2CE5168
:1037F0002046FCF04FFC10BD10B50446214602489F
:1038000000F1CCF810BD00003800002410B50446CB
:1038100000212046FFF08EFA10BD0000F8B50446E6
:103820000D4616461F4633462A4621460248009753
:1038300001F134F8F8BD00003800002410B502464C
:10384000002000BF401C00EBC0030D4C54F8333087
:103850005B1C63B100EBC00354F833309342F1D1E9
:1038600000EBC00304EBC3035B688B42EAD100EBBF
:10387000C003034C54F833305B1C03B9002010BD67
:103880006C671008411CC8B2072800DD0120704792
:1038900070B504460D462A462146024802F000FC57
:1038A00070BD00003800002410B5044621460248CF
:1038B00002F0E9FC10BD00003800002470B5044699
:1038C00025464FF6FF7003F02AFA28804FF6FF7066
:1038D00003F025FA68804FF6FF7003F020FAA88005
:1038E0000A49088803F01BFAE8800849488803F071
:1038F00016FA28810549888803F011FA688148F68C
:10390000A40003F00CFAA88170BD0000886E0008C6
:1039100070B504460D46164633462A4621460248EF
:1039200002F10FFD70BD000038000024FFB583B028
:1039300004460D4616460C9F06A802233246294629
:10394000CDE900072046FFF081FA07B0F0BD2DE970
:10395000FF5F05460F4690461E46DDE90E9B284652
:1039600001F0D5FBC4B240F2F72014FB00F046F2A0
:1039700074522A4402EB4001234607222846CDE92F
:103980000269CDE9007802F152FB5A4621462846E9
:1039900003F007F88246BAF1000F0CDD40F2F72081
:1039A000604305F1200202EB400000F10C013246B9
:1039B0004846FCF7AEFC00222146284602F127FBD0
:1039C000504604B0BDE8F09F2DE9FF5F05460E4666
:1039D00017469846DDE90E9A284601F098FBC4B2D6
:1039E00040F2F72014FB00F046F274522A4402EB36
:1039F00040012346082228468DE8C00302F117FB48
:103A000052462146284602F0CCFF8346002221463A
:103A1000284602F1FCFA584604B0BDE8F09F2DE9B3
:103A2000F04FC5B08346884691461E46DBF80070CD
:103A3000384601F06CFBC5B2002404EB440006EBF1
:103A4000400006224FF4987339F81410CDE9013282
:103A50000091039040F2F72015FB00F046F27452FB
:103A60003A4402EB40012B460422384602F1DFFAC9
:103A70000C2005A941F824001EE004EB440006EBED
:103A8000400006224FF4987339F81410CDE9023241
:103A9000019104900120009040F2F720684346F223
:103AA00074523A4402EB40012B460422384600F09F
:103AB00088FB05A941F82400601C0446A8F1010117
:103AC0008842DADB44451EDA04EB440006EB400092
:103AD00006224FF4987339F81410CDE9023201919F
:103AE00004900020009040F2F720684346F27452A0
:103AF0003A4402EB40012B460422384600F061FBB9
:103B000005A941F82400294638464E9A02F049FF9B
:103B10008246BAF1000F17DB002413E040F2F720D1
:103B2000684307F1200101EB400005A951F824107A
:103B3000084404EB440106EB410102680A608088F6
:103B40008880641C4445E9DB00222946384602F19E
:103B50005EFA504645B0BDE8F08FFEB505460E460C
:103B600017461C460020029002A802233A4631461E
:103B7000CDE900042846FFF094F9BDF80800FEBD29
:103B8000FFB583B004460D4616460C9F06A80223D7
:103B900032462946CDE900072046FFF0BFF907B0BD
:103BA000F0BD2DE9FF4FADF6B43D81468A46DDF804
:103BB000ECBB0DF5BC60FFF717FE00230DF5BC62F2
:103BC0005146484601F10EFB804604A8FFF70CFE63
:103BD0000DF5BC6504ACCAEBCA0101EB4A11D9F87A
:103BE000040000EBC100B0F8BE001038CDF8B00BF7
:103BF000BBF1040F78DCDDF8E80B002874D10A2053
:103C00002080002060802071CAEBCA0202EB4A12B9
:103C1000D9F8041001EBC20191F8C800FFF732FE99
:103C20000746CAEBCA0101EB4A11D9F8040000EBC0
:103C3000C10080F8C870032000EB071060714FF4DA
:103C40000050E080CBF104000C2101EA800040F03C
:103C500023002072DDF8BC0BA4F80900DDF8C00BCE
:103C6000E072DDF8F00B01905A4604F10C00019966
:103C7000FCF74FFB44F6206304AA5146484602F085
:103C800096F88046B8F1000F3ADD2846FFF7ACFD04
:103C90002A4651464846DDF8F43B01F1A3FA804636
:103CA000B8F1000FF0DD687900F00F0003280ED1A5
:103CB000E8880321B1EB203F09D1B5F80900B4F839
:103CC0000910884203D1E87AE17A884218D0287A2C
:103CD00080280AD1E8680090514648460DF6BC326B
:103CE0000CCAFFF046F909E00BE0012000905146B4
:103CF00048460DF6BC320CCA02F0D0F84FF000086E
:103D000047E11FFA8BF600200290DDF8B00B8642E7
:103D100004DDDDF8B00B86B20120029006F10A0046
:103D20002080002060802071CAEBCA0202EB4A1298
:103D3000D9F8041001EBC20191F8C800FFF7A2FD09
:103D40000746CAEBCA0202EB4A12D9F8041001EB8B
:103D5000C20181F8C870032101EB071060714FF4B4
:103D60000050E080DDF8E80B10B13120207201E056
:103D700021202072DDF8BC0BA4F80900DDF8C00B8F
:103D8000E072DDF8E80B28B1DDF8C00B012801DD99
:103D90000120E072C4F80CB0DDF8F01B019132464E
:103DA00004F110000199FCF7B4FA01983044019035
:103DB000ABEB060B44F6206304AA5146484601F0DB
:103DC000F6FF8046B8F1000F9ADD0DF5BC60FFF7F5
:103DD0000BFD0DF5BC6251464846DDF8F43B01F1A0
:103DE00001FA8046B8F1000F8ADD687900F00F0013
:103DF00003287DD1E8880321B1EB203FF9D1B5F844
:103E00000900B4F809108842F3D1E87AE17A8842CF
:103E1000EFD1DDF8B00BC01DCDF8B00B0020039042
:103E20009AE004AC1FFA8BF6002002900120207269
:103E3000DDF8B00B864206DDDDF8B00B86B201205E
:103E4000029000202072029850B9072E08DA0A204A
:103E50002080C6F10700012101EB4000207201E043
:103E6000F01C2080002060802071CAEBCA0202EBA7
:103E70004A12D9F8041001EBC20191F8C800FFF70B
:103E800001FD0746CAEBCA0101EB4A11D9F804004B
:103E900000EBC10080F8C870032000EB07106071D0
:103EA0004FF40050E080217A039808442072324693
:103EB00004F109000199FCF72CFA019830440190B3
:103EC000ABEB060B44F6206304AA5146484601F0CA
:103ED0006EFF8046B8F1000F3ADD0DF5BC60FFF7CC
:103EE00083FC0DF5BC6251464846DDF8F43B00E02A
:103EF00037E001F177F98046B8F1000F28DD6879E5
:103F000000F00F00032809D1E8880321B1EB203F1E
:103F100004D1287A00F0E000202819D0287A8028DF
:103F200009D1E8680090514648460DF6BC320CCAEB
:103F3000FFF01FF808E001200090514648460DF6BA
:103F4000BC320CCA01F0AAFF4FF00008002002901A
:103F5000039880F010000390029800287FF461AF6E
:103F600017E0287A802809D1E86800905146484631
:103F70000DF6BC320CCAFEF0FCFF08E001200090F8
:103F8000514648460DF6BC320CCA01F087FF4FF08F
:103F9000000840460DF6C43DBDE8F08F2DE9FF4F07
:103FA000ADF6BC3D81468A469346DDF8F47B0DF2C2
:103FB000DC50FFF719FC00230DF2DC525146484655
:103FC00001F110F903A8FFF70FFC0DF2DC5503AC6B
:103FD00004202080002060802071CAEBCA0202EB1E
:103FE0004A12D9F8041001EBC20191F8C800FFF79A
:103FF00049FC02900298CAEBCA0202EB4A12D9F8B5
:10400000041001EBC20181F8C8000521029801EB00
:1040100000106071A07920F00700401CA071A07909
:1040200020F00800A071A07920F01000A071A07904
:104030006BF34710A071DDF8C80BE071DDF8F00BF1
:1040400020814FF00008DDF8F81BCDF8B41B0DF20D
:10405000E650CDF8B00B0120019044F6206303AA8E
:104060005146484601F0A3FECDF8B80BDDF8B80B79
:1040700000287CDD9BE00DF2DC50FFF7B5FB0DF274
:10408000DC5251464846DDF8FC3B01F1ABF8CDF877
:10409000B80BDDF8B80B00287EDD687900F00F0062
:1040A000052843D1A87900F0070002283ED1A8795D
:1040B000C0F30010C8BBA879BBEB501F36D1E9791B
:1040C000DDF8C80B814231D12888001F86B208EB89
:1040D00006001FFA80F8386840450CDB3246DDF8F0
:1040E000B01BDDF8B40BFCF714F9DDF8B40B304469
:1040F000CDF8B40B10E03888A8EB0000301A86B277
:1041000038881FFA80F8002E06DD3246DDF8B01B35
:10411000DDF8B40BFCF7FDF8A879C0F3C00040BB94
:1041200000200190C7F8008041E0FFE700200190E7
:10413000687900F00F00052821D1A87900F0070068
:1041400002281CD1A879C0F30010C0B12888001D36
:104150000DF2DC510844CDF8B00BDDF8B00BCDF812
:10416000AC0BDDF8AC0B03885146484602E022E078
:1041700012E01CE0DDF8F02BFFF0D5F808E001209C
:104180000023009051464846DDF8F02B01F086FEF2
:104190000020CDF8B80B0AE0002001900420002395
:1041A000009051464846DDF8F02B01F077FE01986B
:1041B00000287FF460AFDDF8B80B0DF6CC3DBDE80C
:1041C000F08F2DE9F05F82468846934699460D9D13
:1041D00047464CF25440504430F8290086B207F16B
:1041E0000E0420880C3028442080208940F40040B0
:1041F0002081B01EC41984F802B084F803900B9893
:10420000A0800C98E0800A9818B145F40040208105
:1042100000E0258106F10A01C8192A4659460E9B7D
:1042200002F0F3FB002106F10A002844395406F19C
:104230000A002844401C395406F10C0028444CF272
:104240005441514441F82900301FBDE8F09F00005F
:104250002DE9FF4F87B004461D46DDE91497002085
:104260000690059000BF04908046FEA0FEF074F911
:10427000C5EBC50101EB4511606800EBC10090F88A
:104280000461C5EBC50101EB4511606800EBC1009D
:104290008088029031E23146F7A0FEF05DF903E03C
:1042A00008F1010000F0FF08B8F1070F0BDAC5EBC9
:1042B000C50101EB4511606800EBC100713010F8D9
:1042C00008000328ECD14146EFA0FEF045F9C5EB0C
:1042D000C50101EB4511606800EBC100313000EB16
:1042E000C8000188C5EBC50202EB4512606800EB0F
:1042F000C200793000EB06100181C5EBC50101EB6E
:104300004511606800EBC100313000EBC800B0F827
:1043100002A0059850440590069800EBCA0006904C
:10432000C5EBC50101EB4511606800EBC100313000
:1043300000EBC8000088504480B203904BE008F1C5
:10434000010000F0FF0803E008F1010000F0FF08A1
:10435000B8F1070F0BDAC5EBC50101EB4511606839
:1043600000EBC100713010F808000328ECD1C5EB58
:10437000C50101EB4511606800EBC100313000EB75
:10438000C80001880398814200DD32E04146BEA0AA
:10439000FEF0E2F8C5EBC50101EB4511606800EBEA
:1043A000C100313000EBC800B0F802A005985044BD
:1043B0000590069800EBCA000690C5EBC50101EB1D
:1043C0004511606800EBC100313000EBC800008887
:1043D000504480B20390C5EBC50101EB4511606804
:1043E00000EBC100018B0698814202DDB8F1070F96
:1043F000A5DB00BFC5EBC50101EB4511606800EB13
:10440000C100C069002866D1D9F80010C5EBC5020B
:1044100002EB4512606800EBC200793000EB061039
:1044200001603978C5EBC50202EB4512606800EB0C
:10443000C200793000EB06108171C5EBC50101EBBC
:104440004511606800EBC100007E401E39780844C9
:1044500038703878072807DDD9F80000401CC9F803
:104460000000387808383870C5EBC50101EB4511FC
:10447000606800EBC100793000EB06100068D9F8E5
:104480000010081A00F1010BC5EBC50202EB451242
:10449000606800EBC200793000EB0610A0F804B0B1
:1044A0003978C5EBC50202EB4512606800EBC2002B
:1044B000793000EB0610C1713878401C38703878BC
:1044C000072864DDD9F80000401CC9F800003878DE
:1044D000083838705BE0387830B1D9F80000401CFB
:1044E000C9F8000000203870D9F80010C5EBC502EB
:1044F00002EB4512606800EBC200793000EB061059
:1045000001603978C5EBC50202EB4512606800EB2B
:10451000C200793000EB0610817107203870DDF899
:1045200014B0C5EBC50101EB4511606800EBC1009B
:10453000C1690498584481420ADAC5EBC50101EB10
:104540004511606800EBC100C1690498A1EB000B44
:10455000D9F800005844C9F80000C5EBC50202EBC9
:104560004512606800EBC200793000EB0610A0F83D
:1045700004B03978C5EBC50202EB4512606800EB68
:10458000C200793000EB0610C17100203870049829
:10459000584404900021C5EBC50202EB4512606847
:1045A00000EBC200793000EB061081720221C5EBEE
:1045B000C50202EB4512606800EBC200793000EBE7
:1045C0000610C1720121C5EBC50202EB45126068FD
:1045D00000EBC200793000EB0610017341F27071FC
:1045E000C5EBC50202EB4512606800EBC2007930F2
:1045F00000EB0610CDE90001310101F5C062102386
:1046000020680299FEF08AFC2169099800EB80027B
:1046100002EB401001EBC000408C401C81B22269CB
:10462000099800EB800303EB401002EBC0004184CB
:10463000C5EBC50101EB4511606800EBC100006AE4
:1046400078B9C5EBC50101EB4511606800EBC1000D
:10465000793000EB0610016808980144C5EBC502EB
:104660001AE048E020204F5554505554204D4150F9
:1046700050494E470D0A000020202020464D4D5540
:104680002025640D0A000000202020202020534D0A
:1046900025640D0A0000000002EB4512606800EB83
:1046A000C2000162C5EBC50101EB4511606800EB7A
:1046B000C100793000EB06108079C5EBC50202EB32
:1046C0004512616801EBC20181F82400C5EBC50108
:1046D00001EB4511606800EBC10090F82430C5EB98
:1046E000C50101EB4511606800EBC1002946026A73
:1046F00012A0FDF031FF701CC6B2B8F1070F10DA3E
:10470000C5EBC50202EB4512616801EBC201098BE2
:10471000C81DC11700EB5171CA1004998A423FF7B6
:10472000BAADC5EBC50101EB4511606800EBC100F6
:1047300080F804610BB0BDE8F08F0000202020203D
:10474000736C617665202564204F75747075747381
:104750002025702073746172746269742025640D61
:104760000A0000002DE9F04106460F46C7EBC701DD
:1047700001EB4711706800EBC104D4E90201FFF7B7
:104780005DF80546A4F8F650002D7CD005EBC50079
:104790005B4901EBC00090F83100E08205EBC500F9
:1047A0000A4602EBC00000F1080104F58670FBF038
:1047B0007CFC05EBC500524901EBC000408EE08453
:1047C00005EBC50001EBC000808E2083208B10B16B
:1047D000012084F8B900E08C10B1022084F8BA00FE
:1047E00005EBC500464901EBC00090F84410852058
:1047F000015505EBC500424901EBC00090F845109A
:1048000084F8951005EBC5003D4901EBC000C18E51
:1048100004F13100A4F8411005EBC500384901EB63
:10482000C000816BC4F84510208BE8B1B4F841009A
:10483000D0B94FF47060A4F83100218BC81DC117A6
:1048400000EB5171C91004F13102A4F833102D4965
:10485000C4F835100121852001550221842001551D
:10486000032084F871000AE0218BC81DC11700EBFA
:104870005171CA10A4F8432003217320015505EBA0
:10488000C5001F4900E038E001EBC000818F04F152
:104890003100A4F8491005EBC500194901EBC0002F
:1048A000016CC4F84D10E08CE0B1B4F84900C8B90F
:1048B0004FF4805104F13100A4F83910E18CC81D87
:1048C000C11700EB5171CA10A4F83B200021C4F8B5
:1048D0003D10012184F8951084F894100421722071
:1048E00001550AE0E18CC81DC11700EB5171CA10D7
:1048F000A4F84B200421742001552846BDE8F0811E
:104900006C671008440001002DE9F04F95B0044693
:10491000002011908046616881F8C90021690875FE
:1049200010904FF4FA6010A9CDE9001004234FF461
:10493000106200212068FFF747F8684602F09CF9F2
:10494000DDE90001CDE90501FE490598401A059011
:10495000FD490598A0FB013006995A1840F1000066
:104960004FF47A730021A2FB03CB00FB03B002FBE0
:104970000100CDE902C00125E2E2C5EBC50101EB72
:104980004511606800EBC10090F8CC00C5EBC50292
:1049900002EB4512616801EBC20181F8CD00C5EB65
:1049A000C50101EB4511606800EBC10090F8C9003A
:1049B00000287DD0606890F8C900B0B90120616816
:1049C00081F8C9006068A0F8E8500020C5EBC50276
:1049D00002EB4512616801EBC201A1F8EA00012077
:1049E000216908752069C58211E0C8EBC80101EB97
:1049F0004811606800EBC100A0F8E850C5EBC501A4
:104A000001EB4511606800EBC100A0F8EA800020CE
:104A10001190A846C5EBC50101EB4511606800EB9C
:104A2000C100808813904FF4FA6010A9CDE90010FE
:104A300004234FF4106220681399FEF032FA1098A4
:104A4000C5EBC50202EB4512616801EBC201C1F87A
:104A5000D4004FF4FA600CA9CDE90010082340F609
:104A6000181220681399FEF01CFA0022DDE90C01EF
:104A7000434262EB0101DDE902209A184141CDE990
:104A80000C214FF4FA600CA9CDE9001008234FF473
:104A9000126220681399FEF041FA4FF4FA6010A9EF
:104AA000CDE90010042340F604122068139900E0B9
:104AB000F5E1FEF0F6F91098C5EBC50202EB4512E0
:104AC000616801EBC201C1F8D8004FF4FA6010A987
:104AD000CDE90010042340F6081220681399FEF077
:104AE000E0F91098C5EBC50202EB4512616801EBD5
:104AF000C201C1F8DC004FF4FA6010A9CDE9001042
:104B0000042340F60C1220681399FEF0CAF910989D
:104B1000C5EBC50202EB4512616801EBC201C1F8A9
:104B2000E0000027C5EBC50101EB4511606800EB13
:104B3000C10090F8CC0000F0010080B100200BA96A
:104B4000C855C5EBC50101EB4511606800EBC1001C
:104B5000D0F8D40007A941F82700781C47B2C5EB6C
:104B6000C50101EB4511606800EBC10090F8CC0075
:104B700000F0080080B103200BA9C855C5EBC501A2
:104B800001EB4511606800EBC100D0F8E00007A917
:104B900041F82700781C47B2C5EBC50101EB451170
:104BA000606800EBC10090F8CC0000F0020080B11A
:104BB00001200BA9C855C5EBC50101EB4511606883
:104BC00000EBC100D0F8D80007A941F82700781CF5
:104BD00047B2C5EBC50101EB4511606800EBC100B0
:104BE00090F8CC0000F0040080B102200BA9C85559
:104BF000C5EBC50101EB4511606800EBC100D0F8C1
:104C0000DC0007A941F82700781C47B24FF00009E3
:104C1000012F07DD07A951F829100898884201DA09
:104C20004FF00109022F07DD07A951F82910099853
:104C3000884201DA4FF00209032F07DD07A951F876
:104C400029100A98884201DA4FF003090BA810F8DE
:104C50000990C5EBC50101EB4511606800EBC1008F
:104C600080F8D190C5EBC50101EB4511606800EB00
:104C7000C10090F8CD00012101FA09F18843C5EB8C
:104C8000C50202EB4512616801EBC20181F8CD005B
:104C90002E4600BF1296C6EBC60101EB46116068B6
:104CA00000EBC100B0F8CE6056B1C6EBC60101EB17
:104CB0004611606800EBC10090F8C9000028E9D0F7
:104CC000002E7CDD3146204600F1BEFBC5EBC5025F
:104CD00002EB4512616801EBC20181F8D000C6EB1E
:104CE000C60101EB4611606800EBC10090F8CB00F3
:104CF000012811D1C6EBC60101EB4611606800EB3B
:104D0000C10090F8D100C5EBC50202EB4512616805
:104D100001EBC20181F8D0004FF0000A00200F9093
:104D2000C5EBC50101EB4511606800EBC10090F8CF
:104D3000D0203146204600F1B9FB8346C5EBC501C2
:104D400004E0000080436D3840420F0001EB451144
:104D5000606800EBC10090F8D0203146204600F199
:104D6000DBFB024631460190204600F19FFBABEB96
:104D700000000E90C5EBC50101EB4511606800EB2A
:104D8000C10090F8CB00012824DDC5EBC50101EB83
:104D90004511606800EBC10090F8D12029462046FB
:104DA00000F1BAFB024629460190204600F17EFB45
:104DB0008346C5EBC50101EB4511606800E0BDE02D
:104DC00000EBC10090F8D1202946204600F16EFB8F
:104DD000ABEB000A0E98824501DDCAF1000A129879
:104DE000801B012823DDC5EBC50101EB451160687F
:104DF00000EBC10090F8D0203146204600F18CFB3A
:104E0000024631460190204600F150FB8346C6EB36
:104E1000C60101EB4611606800EBC10090F8D1209B
:104E20003146204600F142FBABEB00000F900F989B
:104E3000002802DA0F9840420F900E99A1EB0A0069
:104E400000EBD0714A100F990A44C6EBC60303EB7E
:104E50004613616801EBC301D1F8E4100A44C5EBC5
:104E6000C50303EB4513616801EBC301C1F8E420FE
:104E7000C5EBC50101EB4511606800EBC100D0F83E
:104E8000E40010904FF4FA6010A9CDE9001004235B
:104E900040F6281220681399FEF040F84EE00020FA
:104EA000C5EBC50202EB4512616801EBC201C1F816
:104EB000D400C5EBC50202EB4512616801EBC201EB
:104EC000C1F8D800C5EBC50202EB4512616801EBE1
:104ED000C201C1F8DC00C5EBC50202EB45126168F6
:104EE00001EBC201C1F8E000C5EBC50101EB4511C2
:104EF000606800EBC100B0F8CE60002E0BDDC6EBA1
:104F0000C60101EB4611606800EBC10090F8CB00D0
:104F1000022800DD1196119880B1C5EBC50101EBA7
:104F20004511606800EBC10090F8CB00012805D165
:104F30002046119900F188FA00201190681C85B272
:104F4000A0680068A842BFF618AD606890F8C90074
:104F500015B0BDE8F08F00007FB504460020039037
:104F600041F2707003A9CDE90010012340F2031251
:104F700000212068FEF728FD1120039041F2707097
:104F800003A9CDE9001001234FF49072002120689D
:104F9000FEF71AFD41F2707003A9CDE9001001235C
:104FA0004FF4907200212068FEF70EFD44F6206059
:104FB00002A9CDE900100223002211462068FEF765
:104FC000C6FC0546002D0DDD802D02DAA0680560C7
:104FD00008E0802229460448FDF0BEFA6FF0010087
:104FE00004B070BD2846FBE7D86E00082DE9FE43EB
:104FF00004460D4601260027C5EBC50101EB45110E
:10500000606800EBC10090F8FB0000283FD0C5EBC2
:10501000C50101EB4511606800EBC100B0F80480E8
:105020000220029000BF4FF4FA6002A9CDE90010FF
:1050300001234FF4A06241462068FDF06FFF064651
:10504000002E03DC38467F1C0328ECDB0020029096
:10505000002700BF4FF4FA6002A9CDE90010012338
:105060004FF4A06241462068FDF058FF0646002E2E
:1050700003DC38467F1C0328ECDB0020C5EBC502AF
:1050800002EB4512616801EBC20181F8FB0030467A
:10509000BDE8FE832DE9FE4304460D4601264FF090
:1050A0000008C5EBC50101EB4511606800EBC100CC
:1050B00090F8FB0040BBC5EBC50101EB45116068F2
:1050C00000EBC10087880120029000BF4FF4FA6016
:1050D00002A9CDE9001001234FF4A06239462068EF
:1050E000FDF01CFF0646002E04DC404608F10108D6
:1050F0000328EBDB0120C5EBC50202EB451261681A
:1051000001EBC20181F8FB003046BDE8FE8310B51B
:1051100001464CF688235B58581C102800DB002001
:10512000002204E0401C521C102800DB002001F586
:10513000BE4353F820300BB1102AF3DB012401F5F4
:10514000BE4343F820404CF68C235B5833B14CF6F9
:1051500090235B5803F5BE4343F820404CF6882368
:10516000585010BD70B504460D46002229462068EF
:1051700000F18CFF70BD00002DE9F04704460E469B
:1051800090469946012E7DDDA06800680028FADD72
:10519000012500E06D1CC5EBC50101EB4511606800
:1051A00000EBC1008068C6EBC60202EB46126168E4
:1051B00001EBC2018968884223D1C5EBC50101EB2F
:1051C0004511606800EBC100C068C6EBC60202EB87
:1051D0004612616801EBC201C968884211D1C5EB72
:1051E000C50101EB4511606800EBC1000069C6EB29
:1051F000C60202EB4612616801EBC20109698842EE
:1052000001D0B542C6DBB5425EDA002728E0C5EB27
:10521000C50101EB4511606800EBC100313000EBC6
:10522000C7004188C6EBC60202EB4612606800EB7D
:10523000C200313000EBC7004180C5EBC50101EB76
:105240004511606800EBC1007130C15DC6EBC6025C
:1052500002EB4612606800EBC2007130C1557F1C42
:10526000082FD4DBC5EBC50101EB4511606800EBED
:10527000C100008BC8F80000C5EBC50101EB45116A
:10528000606800E020E000EBC100C08CC9F80000BD
:10529000B8F80000C6EBC60202EB4612616801EBEB
:1052A000C2010883B9F80000C6EBC60202EB461241
:1052B000616801EBC201C8842A46314603A0FDF0B3
:1052C0004BF90120BDE8F0870020FBE7436F7079C0
:1052D000206D617070696E6720736C617665202542
:1052E000642066726F6D2025642E0D0A0000000098
:1052F0002DE9F04104460D46012D7CDDA0680068D3
:105300000028FADD012600E0761CC6EBC60101EBA1
:105310004611606800EBC1008068C5EBC50202EB76
:105320004512616801EBC2018968884223D1C6EB4E
:10533000C60101EB4611606800EBC100C068C5EB17
:10534000C50202EB4512616801EBC201C9688842DF
:1053500011D1C6EBC60101EB4611606800EBC1003C
:105360000069C5EBC50202EB4512616801EBC201A1
:105370000969884201D0AE42C6DBAE423BDAC6EBD9
:10538000C60101EB4611606800EBC10090F8FC001B
:10539000C5EBC50202EB4512616801EBC20181F861
:1053A000FC00C6EBC60101EB4611606800EBC100D2
:1053B00090F8FD00C5EBC50202EB4512616801EBF8
:1053C000C20181F8FD00C6EBC60101EB4611606821
:1053D00000EBC10090F8FE00C5EBC50202EB4512E0
:1053E000616801EBC20181F8FE00C6EBC60101EB6A
:1053F0004611606800E0F7E000EBC10090F8FF1094
:10540000C5EBC50202EB4512606800EBC20080F8F4
:10541000FF10C6EBC60101EB4611606800EBC1004E
:1054200090F80201002810DD0120C5EBC50202EB57
:105430004512616801EBC20181F80201606890F8D1
:105440000201401C616881F80201C6EBC60101EB54
:105450004611606800EBC100B0F80001C5EBC50261
:1054600002EB4512616801EBC201A1F80001C5EB36
:10547000C50101EB4511606800EBC100B0F8000107
:105480006168B1F80011084400B26168A1F8000138
:10549000C6EBC60303EB4613626802EBC30202F5D8
:1054A0008671C5EBC50303EB4513626802EBC302CB
:1054B00002F586702922FAF72CFF002742E0C6EB9E
:1054C000C60101EB4611606800EBC100313000EB12
:1054D000C7000188C5EBC50202EB4512606800EB0E
:1054E000C200313000EBC7000180C6EBC60101EB02
:1054F0004611606800EBC100313000EBC700418805
:10550000C5EBC50202EB4512606800EBC20031300A
:1055100000EBC7004180C6EBC60101EB4611606895
:1055200000EBC100313000EBC7004168C5EBC5029C
:1055300002EB4512606800EBC200313000EBC7009F
:1055400041607F1C082FBADBC6EBC60101EB461198
:10555000606800EBC10090F8B900C5EBC50202EB32
:105560004512616801EBC20181F8B900C6EBC601C2
:1055700001EB4611606800EBC10090F8BA00C5EB82
:10558000C50202EB4512616801EBC20181F8BA0065
:10559000C6EBC60101EB4611606800EBC10090F854
:1055A000BB00C5EBC50202EB4512616801EBC2010D
:1055B00081F8BB00C6EBC60101EB4611606800EB49
:1055C000C10090F8BC00C5EBC50202EB4512616852
:1055D00001EBC20181F8BC003246294603A0FCF071
:1055E000BBFF0120BDE8F0810020FBE7436F70792D
:1055F0002053494920736C617665202564206672CA
:105600006F6D2025642E0D0A00000000FEB50546D2
:105610000C4617465D4B02222146284600F191FEBA
:10562000C4EBC40101EB4411686830F83130C4EBBD
:10563000C40101EB441100EBC1008288214654A053
:10564000FCF08AFFC4EBC40101EB4411686800EB75
:10565000C100D0F8080150B1C4EBC40202EB4412FF
:10566000686800EBC200D0F8081120468847C4EBF8
:10567000C40101EB4411686800EBC100B0F8F6000A
:10568000002869D102900190C4EBC40101EB4411E0
:10569000686800EBC10090F8C60000F0040010B389
:1056A0000026C4EBC40101EB4411686800EBC100A3
:1056B00090F8FC0000F0200040B102A801AB3A468F
:1056C00021460090284600F10BFA064636B902AB97
:1056D00001AA2146284600F121F9064636A0DDE957
:1056E0000112FCF039FF0298A8BB019898BBC4EBEB
:1056F000C40101EB4411686800EBC10090F8C600DA
:1057000000F0100038B302AB01AA21462846FFF092
:10571000C7FF06460199C81DC11700EB5171C1F3BF
:10572000CF02C4EBC40303EB4413696801EBC3016C
:10573000A1F843200299C81DC11700EB5171C1F3B4
:10574000CF02C4EBC40303EB4413696801EBC3014C
:10575000A1F84B2001E005E016E01EA0DDE90112F2
:10576000FCF0FAFE0198C4EBC40202EB4412696833
:1057700001EBC20108830298C4EBC40202EB44129D
:10578000696801EBC201C8840120FEBD80841E004F
:10579000203E536C6176652025642C20636F6E6615
:1057A00069676164722025782C20737461746520A8
:1057B00025322E32780D0A002020436F45204F738A
:1057C000697A653A2564204973697A653A25640DDA
:1057D0000A0000002020536F45204F73697A653A14
:1057E0002564204973697A653A25640D0A00000032
:1057F00070B5ADF5426D05460E46C6EBC60101EB30
:105800004611686800EBC100008BCDF8180CC6EBA0
:10581000C60101EB4611686800EBC100C08CCDF8F1
:105820001C0CDDF81C0C48B9DDF8180C30B90DF66D
:105830001C431A1F31462846FFF79EFCDDF81C0C5E
:1058400000287CD1DDF8180C0028FAD140F6184168
:105850006846FAF01FFC00236A463146284600F0ED
:10586000D1FDCDF81C0C51A0DDF81C1CFCF074FE21
:1058700000242CE00DF6064030F81400002825DD49
:105880000DF6064131F81410C81DC11700EB517117
:10589000C910C6EBC60303EB46136A6802EBC302EA
:1058A000313202EBC40251800421C6EBC60202EB86
:1058B0004612686800EBC200713001550DF60640D3
:1058C00030F8142021463EA0FCF046FE641C082C53
:1058D000D0DB01236A463146284600F093FDCDF81F
:1058E000180C3DA0DDF8181CFCF036FE00242EE05C
:1058F0000DF6064030F81400002827DD0DF60641AD
:1059000031F81410C81DC11700EB5171C910C6EB56
:10591000C60303EB46136A6802EBC302313202EBA3
:10592000C40251800321C6EBC60202EB461268682E
:1059300000EBC200713001550DF6064000E008E0B2
:1059400030F8142021461EA0FCF006FE641C082C32
:10595000CEDBDDF8180CC6EBC60202EB4612696816
:1059600001EBC2010883DDF81C0CC6EBC60202EB9A
:105970004612696801EBC201C884C6EBC60202EB9D
:105980004612686800EBC200038BC6EBC60202EB4E
:105990004612686800EBC200C18C14A0DDF81C2C14
:1059A000FCF0DAFD01200DF5426D70BD2020534959
:1059B00049204973697A653A25640D0A00000000A0
:1059C00020202020534D2564206C656E677468206C
:1059D00025640D0A000000002020534949204F7320
:1059E000697A653A25640D0A000000002020202015
:1059F000204953495A453A2564202564204F53498C
:105A00005A453A25640D0A002DE9FC4104460D462D
:105A1000C5EBC50101EB4511606800EBC10087884B
:105A2000A1A0FCF099FDC5EBC50101EB4511606833
:105A300000EBC100B0F8BE0000283BD1C5EBC501AA
:105A400001EB4511606800EBC100B0F8310068B3AC
:105A500041F27071C5EBC50202EB4512606800EBC4
:105A6000C2003130CDE9000108231A02394620680E
:105A7000FDF054FAC5EBC50C0CEB451C606800EB5F
:105A8000CC00D0F83530C5EBC50C0CEB451C60687C
:105A900000EBCC00B0F83120C5EBC50C0CEB451C7D
:105AA000606800EBCC0090F8711000E002E083A089
:105AB000FCF052FDC5EBC50101EB4511606800EB40
:105AC000C100B0F8BE0000283AD1C5EBC50101EB1A
:105AD0004511606800EBC100B0F8390080B341F2B5
