:020000040800F2
:10000000B82202240100100825211008C11C100884
:10001000AD2B000801041008DD25100800000000C9
:10002000000000000000000000000000212D00087A
:10003000AD070008000000002D211008752E0008F3
:100040001B0010081B0010081B0010081B001008E4
:100050001B0010081B0010081B0010081B001008D4
:100060001B0010081B0010081B0010081B001008C4
:100070001B0010081B0010081B0010081B001008B4
:100080001B0010081B0010081B0010081B001008A4
:100090001B0010081B0010081B0010081B00100894
:1000A0001B001008852310081B0010081B001008F7
:1000B0001B0010081B0010081B0010081B00100874
:1000C0001B0010081B0010081B0010081B00100864
:1000D0001B001008912510081B0010081B001008B9
:1000E000590810081B001008000000001B00100831
:1000F0001B0010081B0010081B0010081B00100834
:100100001B0010081B0010081B0010081B00100823
:100110001B0010081B0010081B0010081B00100813
:100120001B0010081B0010081B0010081B00100803
:100130001B001008110800081B0010081B00100805
:1001400000000000000000000000000000000000AF
:100150001B0010081B0010081B0010081B001008D3
:100160001B0010081B0010081B0010081B001008C3
:100170001B0010081B0010081B00100800000000E6
:100180001B0010081B0010081B0010081B001008A3
:100190001B0010081B0010081B0010081B00100893
:1001A0001B0010081B0010081B0010081B00100883
:1001B0001B0010081B0010081B0010081B00100873
:1001C0001B0010081B0010081B0010081B00100863
:1001D0001B0010081B0010081B0010081B00100853
:1001E0001B0010081B0010081B0010081B00100843
:1001F0001B0010081B0010081B0010081B00100833
:100200001B0010081B0010081B0010081B00100822
:100210001B0010081B0010081B0010081B00100812
:100220001B0010081B0010081B0010080000000035
:100230001B0010081B001008000000001B00100825
:100240001B0010081B0010081B0010081B001008E2
:100250001B0010081B0010081B0010081B001008D2
:100260001B0010081B0010081B0010081B001008C2
:100270001B0010081B0010081B00100800000000E5
:100280001B001008000000001B0010080000000008
:10029000000000001B001008DFF810D000F03CF94F
:1002A0000048004719671008AFF30080B822022405
:1002B0002DE9F05F0546002092469B46884606469B
:1002C000814640241BE02846414647462246FFF02F
:1002D000F9FE53465A46C01A914110D311461846AA
:1002E000224600F047F82D1A67EB01084F462246D8
:1002F0000120002100F03EF817EB00094E41201EBE
:10030000A4F10104DFDC484631462A464346BDE8F5
:10031000F09FD2B201E000F8012B491EFBD27047DA
:100320000022F6E710B513460A4604461946FFF7C1
:10033000F0FF204610BD034611F8012B00F8012BF9
:10034000002AF9D11846704730B50B460146002007
:100350002022012409E021FA02F59D4205D303FA87
:1003600002F5491B04FA02F52844151EA2F1010208
:10037000F1DC30BD202A04DB203A00FA02F1002033
:1003800070479140C2F1200320FA03F319439040D3
:1003900070472DE9F04791460F46804604460026F7
:1003A00014F8015B2DB1FFF0CBFF0068405DC00782
:1003B000F6D12B2D02D02D2D18D0641E4A46394679
:1003C000204600F0CDF827B13968A14201D1C7F825
:1003D000008071054FF002040BD54042002803DD78
:1003E00003F01CFC0460A007BDE8F08746F48066BB
:1003F000E4E70028F8DA03F011FC04606FF0004035
:10040000F2E72DE9FE4F81EA030404F0004421F0F5
:10041000004100944FF0000B23F0004350EA010428
:100420005ED052EA03045BD0C3F30A54C1F30A5509
:100430002C44A4F2F3340194A0FB0254C1F3130141
:1004400041F48011C3F3130343F4801301FB02440E
:1004500000FB034E840A970A44EA815447EA835713
:10046000A4FB076802958D0A05FB07854FEA932CCC
:1004700004FB0C542705029D4FEA065847EA16373D
:10048000B5EB08056EEB070C870E920E47EA811755
:1004900042EA8312A7FB0201B6EB0B0164EB0004F6
:1004A0002B0D43EA0C335E1844EB1C50DA465146E0
:1004B000E7FB0201C5F313044FEA0B3343EA14537D
:1004C0004FEA0432019C43EA0603A4F10C040294AF
:1004D000009CCDE900B400F0A1F803B0BDE8F08FB6
:1004E00000200146F9E7000030B5041E71F1000458
:1004F00004DB4FF00044404264EB0101141E73F131
:10050000000405DB1C464FF00043524263EB04033A
:10051000994208BF904230BD064C074D06E0E068A6
:1005200040F0010394E8070098471034AC42F6D33A
:10053000FFF7B6FEB4720008D4720008202A06DB6A
:10054000CB17203A41FA02F043EAE07306E041FAA1
:1005500002F3D040C2F1200291400843194670478F
:100560002DE9F05F82460078002715468B460AF198
:100570000104B946302801D09DB113E014F8010BF5
:100580000127782803D0582801D045B10AE00DB1E1
:10059000102D07D10027102514F8010B02E00825C3
:1005A00000E00A250026B0460EE005FB080005FB2A
:1005B00006F1012701EB10461FFA80F8B6F5803FDF
:1005C00000D3B94614F8010B294600F075F800284D
:1005D000EBDABBF1000F05D00FB1641E00E054460A
:1005E000CBF80040B9F1000F06D003F017FB022151
:1005F0000160C81EBDE8F09F48EA0640FAE710B562
:10060000141E73F1000408DA401C41F10001921835
:100610005B411A4301D120F0010010BD2DE9F04DDE
:1006200092469B4611B1B1FA81F202E0B0FA80F233
:1006300020329046FFF79EFE04460F4640EA0A002D
:1006400041EA0B0153465A46084313D0114653EA78
:10065000010019D0C8F140025046FFF033FD0546B5
:100660000E46504659464246FFF784FE084305D0E1
:10067000012004E020463946BDE8F08D0020054306
:1006800046EAE0762C4337430A986305E40AA0EB78
:1006900008000022FD0A44EA47540A3002D500202F
:1006A0000146E9E7010510196941DDE9084500192E
:1006B0006941BDE8F04DA2E73A2800D2303820F079
:1006C0002002412A01D3A2F13700884201D34FF022
:1006D000FF3070472DE9F04104460027254850F8C7
:1006E00024000588284600F0B0FC064605F0080006
:1006F00080B18020204951F8241008801E4850F80D
:10070000240002882B4621461CA003F06FFA00202B
:10071000BDE8F081082E1AD2DFE806F004050B11BF
:10072000171A1B1C00BF0620134951F8241008801B
:1007300013E00720104951F8241008800DE00F2025
:100740000D4951F82410088007E0012705E000BF9B
:1007500000BF00BF4FF0FF3700BF00BF064850F892
:10076000240002882B46214604A003F03FFA3846B5
:10077000CEE7000038F00124B8EF012425642053AF
:100780006C61766520436F6E74726F6C576F726424
:100790002030782530347820537461747573576F26
:1007A0007264203078253034780D0A00704710B517
:1007B000002210E002EB4204036903EBC4010023B2
:1007C0000B604B608B60CB600B614B6100F12C03C5
:1007D00043F82210521C042AECD30024C46304649E
:1007E0004464C46484640324036803F58053C3F839
:1007F0003041036803F580530469C3F81C41036961
:100800004833046804F58054C4F8283110BD000052
:1008100010B5024800F030FD10BD000000010024BA
:1008200010B5A2B0044601208DF8330000201290CC
:100830008DF841008DF8430001208DF828008DF8D7
:1008400056008DF8320000208DF84C0001208DF804
:10085000840040030F9000208DF85C0018908DF804
:1008600085008DF886004FF4C360169000208DF847
:1008700030000B9001208DF8350000208DF83600F7
:100880008DF840001D901B9014908DF864008DF839
:100890007A0001208DF842002020209001208DF860
:1008A000440000208DF855004FF0405009904FF45F
:1008B00080400E9000208DF8310002201F90002013
:1008C0008DF878008DF879008DF8540001208DF8AE
:1008D000340000201A9001208DF8700009A92046EC
:1008E00000F05EF801208DF80400029000200090D6
:1008F0008DF81C008DF80D008DF80C004FF40010E1
:10090000069000208DF814004FF400100490002091
:100910008DF81D004FF40670089069462046FFF0E0
:100920003DFF22B010BD000070B506463068D0F81B
:10093000004224F4706401F019FA05461348854218
:1009400005D31348854202D244F400741AE01048DB
:10095000854205D30F48854202D244F4407411E029
:100960000C48854203D30C48854200D20AE00A486D
:10097000854205D30948854202D244F4807401E0DF
:1009800044F480643068C0F8004270BD002D31012D
:10099000C00E16020087930300E1F50580D1F00830
:1009A00010B50C688B6823430C7943EAC4630C7B55
:1009B00043EAC4534C7B43EA84538C7B43EA44535D
:1009C000CC7B43EA04530C7C0CB9012400E00024E6
:1009D00043EAC4434C7C0CB9012400E0002443EA00
:1009E00044438C7C43EA04434C6923438C6923438E
:1009F0000C7F43EA04334C7F43EAC4238C7F0CB959
:100A0000012400E0002443EA8423CC7F43EA44230A
:100A100091F820400CB9012400E0002443EA0423AB
:100A200051F8244F23430C7943EA04138C6843EABA
:100A3000040203681B683D4C234013430468236091
:100A40000B7E5B060C7D43EA04630C7B43EA844324
:100A50004C7B43EA44438C7B24390CB9012400E0ED
:100A6000002443EA04434C6B43EA040203685B68D6
:100A70002F4C234013430468636091F840404B6C53
:100A800043EA04220368DB6840F20F14A3431343D4
:100A90000468E36091F854400B6D43EA440391F815
:100AA0004C400CB9012400E0002443EAC41331F89F
:100AB000484F43EA044203681B6F4FF60D7423400E
:100AC0001343046823678B7B4C7B43EA440203682F
:100AD000D3F8903023F0030313430468C4F8903034
:100AE0000368D3F8003D23F072030C6923430468C4
:100AF000C4F8003D0C7E4B6948390CB9012400E074
:100B0000002443EA841391F8614043EA041391F806
:100B1000624043EAC4020368D3F8303D23F07B030C
:100B200013430468C4F8303D10BD00008380040006
:100B30000080F8C010B51548007830B303F031F9E3
:100B40004FF4FA6003F026F911480078E8B100206C
:100B500017E010490968104A52F82020C2F8061020
:100B60000E490D4A52F82020C2F80A100A4A52F8DB
:100B70002020C2F80E100F21074A52F820201180C1
:100B8000401C074909688842E3DB10BD9C00002433
:100B90009D000024A8000024B8EF0124A0860100D5
:100BA000980000242DE9FC41002400250027A046E0
:100BB000ADA003F0DFF800287AD0AEA003F016F85D
:100BC000012002F1ABF9002873DDB0480168B0A044
:100BD00003F00CF8AD480068B2490860AB48006803
:100BE000096888422AD1012423E0C4EBC40000EB49
:100BF0004410AD4A02EBC00000F586712246ABA05E
:100C000002F0F4FFC4EBC40000EB4410A64A02EB70
:100C1000C00081882246ACA002F0E8FFB148C4EBD6
:100C2000C40101EB4411A04A02EBC101C1F8080163
:100C3000641C9C4800688442D7DD06E0AAA002F04C
:100C4000D5FF4FF0FF30BDE8FC8102F171F9642758
:100C50000BE09448006801F135F80646012E00D1FA
:100C600007E03146A5A002F0C1FF381EA7F1010739
:100C7000EFD100BF27B9012E02D0A5A002F0B6FF28
:100C800001241CE0C4EBC40000EB4410864901EBD6
:100C9000C00090F8C90000280CDDA0B2A14BA24A08
:100CA000012102F14DF92146A0A002F09FFF05E0CD
:100CB000D4E0CDE02146A2A002F098FF641C794860
:100CC00000688442DEDDA44803F01CF8A348406BB2
:100CD000A249096BCDE90010A048C36A826A818BE2
:100CE0009FA002F083FFA64A0421002002F180F9B0
:100CF00002F136F900240BE0C4EBC40000EB441011
:100D0000694931F8302021469EA002F06FFF641C33
:100D1000644800688442EFDDA0A002F067FF8F48BE
:100D2000818C408C01EB4000A749086008460168AF
:100D3000A6A002F05BFF03F034F84FF4FA6003F072
:100D400029F8002003F032F8C82000F0B5F94FF47C
:100D50007A7700BF002408E00820C4EBC40101EB4F
:100D60004411514A22F83100641C4E480068844204
:100D7000F2DD002403E0A0B203F018F8641C494837
:100D800000688442F7DD00240BE0C4EBC40000EBF4
:100D90004410454931F8302021467AA002F026FF60
:100DA000641C404800688442EFDD4FF001080024D5
:100DB0000BE0C4EBC40000EB44103B4931F83000B9
:100DC000082801D04FF00008641C364800688442AF
:100DD000EFDDB8F1000F00D003E0381EA7F10107E6
:100DE000B8D100BF3048008808282BD1012518E071
:100DF000C5EBC50000EB45102B4901EBC000016AB3
:100E0000681E794A42F82010C5EBC50000EB45107A
:100E1000254901EBC000C16A681E744A42F82010DF
:100E20006D1C204800688542E2DD01207049087091
:100E3000002201216F4800F0C5FE6FA002F0D6FE2F
:100E4000012000E772A002F0D1FE6FF00100FAE687
:100E500072A002F0CBFE6FF00200F4E674A002F084
:100E6000C5FE6FF00300EEE6536572766F4472695B
:100E70007665000065635F696E69742073756363EE
:100E800065656465642E0D0A0000000030000024D2
:100E9000256420736C6176657320666F756E640DD2
:100EA0000A00000098000024B8020024466F756E06
:100EB0006420257320617420706F736974696F6E8C
:100EC0002025640D0A000000466F756E64202578A9
:100ED00020617420706F736974696F6E2025640DD2
:100EE0000A000000252D0008536C617665206E75A0
:100EF0006D206572726F72210D0A000025642073E7
:100F00006C617665206E6F742073796E630D0A00D4
:100F1000536C6176652073796E63206661696C65D8
:100F2000640D0A00E093040040420F00536C6176A8
:100F300065202564206861732044430D0A00000089
:100F4000536C61766520256420686173206E6F7430
:100F50002044430D0A000000B8F10124B89E00248B
:100F60007365676D656E7473203A202564203A209E
:100F700025642025642025642025640D0A000000D6
:100F800080841E00536C6176652025642053746153
:100F900074653D3078253034780D0A0052657175DE
:100FA000657374206F7065726174696F6E616C2017
:100FB000737461746520666F7220616C6C20736C51
:100FC000617665730D0A0000A000002443616C6324
:100FD000756C6174656420776F726B636F756E7486
:100FE00065722025640D0A00B8EF012438F0012451
:100FF0009C00002400100258416C6C20736C6176D8
:10100000657320656E746572204F50210D0A0000D3
:101010004F50204572726F72210D0A004E6F20737F
:101020006C6176657320666F756E64210D0A000031
:1010300065635F696E6974206661696C65640D0A39
:101040000000000072B600BFFEE7014601F04F004D
:10105000402801D10120704701F06F00212801D103
:101060000220F8E701F06F00232801D10320F2E706
:1010700001F06F00272801D10420ECE701F06F0098
:10108000072801D10520E6E701F04F000F2801D124
:101090000620E0E701F04F00082801D10720DAE739
:1010A0000020D8E701480068704700002404004091
:1010B0004FF08040406A704770B50446FFF0B0FEC4
:1010C00006462546681C10B104480078054400BF58
:1010D000FFF0A6FE801BA842FAD370BD20000024BA
:1010E00070B5054605F12C02536952F82310966934
:1010F000906908B9012070BDD06900B1761C002448
:1011000023E0086908604FF08070C860486928B122
:1011100048698860C86840F00070C860C86840F0DE
:101120000040C860106A18B1C86840F08040C860CC
:101130009069401EA04207D900BF5B1C042B00D35E
:101140001B1F00BF52F82310641CB442D9D3286877
:1011500000F58050C0F828110020906100BFCAE758
:10116000704730B504460D4604F12C0050F82510A8
:101170000AB1042D02D30120606530BD0A600A6106
:10118000C86840F08070C8602BB18B604B61C86844
:1011900040F00070C860C86840F00040C86000209F
:1011A000EBE72DE9F84F06468B4606F12C07D7F8FA
:1011B00014800020009057F828505C46B86930B978
:1011C000304600F0E3F910B90120BDE8F88F4FF088
:1011D000000A27E0686978B10CB90120F5E72869B1
:1011E000206070696060A4680CB90120EDE768694F
:1011F00020607069606003E0286920607069606049
:10120000E868C0F30E00009000BF08F10108B8F1D3
:10121000040F01D3A8F1040800BF57F82850A468B0
:101220000AF1010AB869401E5045D3D80CB9012013
:10123000CBE7E868C0F30E010098A1EB00097069E4
:10124000484504D328692060C4F8049012E0686916
:1012500070B12869206070696060A4680CB90120D1
:10126000B3E7686920607069A9EB0000606001E085
:101270000120AAE70020A8E710B50446206800F581
:101280008050D0F8600100F04000402817D120685D
:1012900000F58050D0F8340100F0400040280ED115
:1012A000204600F073F9012802D12046FFF05DFDD1
:1012B00048F24001206800F58050C0F860112068B5
:1012C00000F58050D0F8600100F0010088B120687E
:1012D00000F58050D0F8340100F0010048B12046FC
:1012E000FFF044FD48F20101206800F58050C0F88D
:1012F0006011206800F58050D0F8600100F4804053
:10130000B0F5804F4DD1206800F58050D0F8340101
:1013100000F48040B0F5804F43D1606D40F008008C
:101320006065206800F58050D0F8600100F48050BE
:10133000B0F5805F1DD1206800F58050D0F86001C5
:1013400041F202110840884201D1012000E0002052
:10135000A065206800F58050D0F8340120F44041A9
:10136000206800F58050C0F83411E02084F8510066
:1013700014E0206800F58050D0F8600100F4CD4002
:10138000B0F5CD4F01D1012000E00020A0654FF461
:10139000CD41206800F58050C0F860112046FFF76D
:1013A000DFFE2068D0F8B00000F4C040B0F5C04FB8
:1013B0000BD12068D0F8B800E065E02084F8510037
:1013C000204600F062F90020E0652068D0F8B00007
:1013D00000F0100010280AD12068D0F8C00000F0FA
:1013E000600020662046FFF083FC00202066206815
:1013F000D0F8B00000F0200020280AD12068D0F8F2
:10140000C00000F00F0060662046FFF027FB0020C0
:1014100060660648006800F4800030B14FF4800038
:1014200002490860204600F0A6FA10BDA800005846
:1014300038B504460CB9012038BD94F8510010B9F4
:10144000204600F023F9232084F8510000BF4D48C6
:10145000006840F002004B4908600846006800F050
:101460000200009000BF00BF207A18B9002000F1F0
:1014700009F903E04FF4000000F104F9206800F5D9
:101480008050006840F00101206800F58050016044
:10149000FFF0C6FC05460CE0FFF0C2FC401BB0F5B7
:1014A000FA7F06D904206065E02084F8510001200D
:1014B000C2E7206800F58050006800F001000028B5
:1014C000EAD12046FFF730FA00F050FC2E49B0FB7D
:1014D000F1F0401E2168C1F8DC002046FFF7A0F9BA
:1014E000206800F58050D0F8000120F4E01040F4AE
:1014F0000021206800F58050C0F80011207D00F028
:10150000030030B101206065E02084F85100012023
:1015100092E7206800F58050D0F8080147F6FE7188
:101520008843616940EA4101206800F58050C0F8B5
:1015300008112046FEF06CFF2046FFF738F960687E
:1015400000796168497940EA01202168C1F8000307
:101550006068C07800066168897840EA0140616887
:10156000497840EA01206168097808432168C1F898
:10157000040300206065102084F8510084F85200B4
:10158000002059E7F444025840420F00F0B50746E6
:1015900007F12C03196953F82120002500240026A7
:1015A000986908B10020F0BD3DE06D1CD06800F0E6
:1015B000805000B3641C012C00D10E4600BF491CB2
:1015C000042900D3091F00BF53F82120D06800F080
:1015D000004058B9D06800F0804038B10120D8618F
:1015E00000BF491C042900D3091F00BF19615E61B7
:1015F0009C610120D7E7D06800F0005050B10E4642
:10160000012400BF491C042900D3091F00BF53F85F
:10161000212008E0641C00BF491C042900D3091FD5
:1016200000BF53F82120D06800F0004008B9042D15
:10163000BBD334B3314653F8212000251FE0106995
:1016400010604FF08070D060506928B15069906090
:10165000D06840F00070D060D06840F00040D060AA
:10166000186A18B1D06840F08040D06000BF491CB3
:10167000042900D3091F00BF53F821206D1CA54287
:10168000DDD30020986100BF8DE7704710B586B0AC
:1016900004464149206888427CD100BF3F48006829
:1016A00040F004003D4908600846006800F004006E
:1016B000009000BF00BF00BF0846006840F0010076
:1016C00008600846006800F00100009000BF00BFFD
:1016D00000BF0846006840F0020008600846006845
:1016E00000F00200009000BF00BF00BF2B48083888
:1016F000006840F40040294908390860084600683D
:1017000000F40040009000BF00BF00BF0846006822
:1017100040F4803008600846006800F48030009093
:1017200000BF00BF00BF0846006840F400300860FA
:101730000846006800F40030009000BF00BF32206F
:1017400001900220029000200390022004900B20C0
:10175000059001A9124800F00FF98620019002209F
:10176000029000200390022004900B20059001A914
:101770000C4800F001F94FF46050019002200290F3
:1017800000200390022004900B20059001A9064838
:1017900000F0F2F806B010BD00800240E0440258AC
:1017A00000080258000002580004025870B50446B0
:1017B0000D460DB9012070BD94F85200102805D1D6
:1017C00029462046FFF7ECF80020F4E70120F2E775
:1017D00010B5024609B9012010BD0878CC7840EA5E
:1017E00044000C7940EA84000C7A40EAC4004C7949
:1017F00040EA04104C7A0CB9012400E0002440EACD
:101800004410CC7940EA04208C7940EA44208C785A
:1018100040EA84204C7840EAC470CC6840EA040373
:1018200010688068034C204018431468A0600020B2
:10183000D2E7000000F8FF7F30B50146002201F139
:101840002C0050F8224091F85100102864D1232038
:1018500081F8510000230EE0E06840F08040E06035
:1018600000BF521C042A00D3121F00BF01F12C003C
:1018700050F822405B1C042BEED30125CD64086890
:10188000006840F002000D6828600868006840F0B9
:1018900001000D6828600868D0F8000D40F00100D4
:1018A0000D68C5F8000D086800F58050D0F80401F7
:1018B00040F00105086800F58050C0F80451086840
:1018C00000F58050D0F8080140F00105086800F5E7
:1018D0008050C0F80851086800F58050D0F86001C9
:1018E00040F48175086800F58050C0F86051102000
:1018F00081F85100222081F85200086800F58050DC
:10190000D0F834014DF2410528430D6805F58055A6
:10191000C5F83401002030BD0120FCE770B5044655
:101920000D460DB9012070BD94F85100102820D14A
:10193000012229462046FEF095FD18B1022060657F
:101940000120F0E700BFA06A401CA062A06A042842
:1019500002D3A06A001FA06200BF04F11800A16AB0
:1019600050F82110206800F58050C0F820110020A8
:10197000D9E70120D7E77047F8B502460B460021AA
:10198000002600240020824D00BFFCE0012707FA5A
:1019900001F61F6807EA0604B4427CD15F68022F93
:1019A00002D05F68122F1AD14FEAD10C02F1200742
:1019B00057F82C004F074FEAD76C0F2707FA0CF7A0
:1019C000B8434FEA417C4FEADC6C1F6907FA0CF719
:1019D00038434FEAD10C02F1200747F82C00106879
:1019E0004FEA410C032707FA0CF7B8431F7907F0B9
:1019F00003074FEA410C07FA0CF7384310605F68A1
:101A0000012F08D05F68022F05D05F68112F02D028
:101A10005F68122F17D190684FEA410C032707FA2D
:101A20000CF7B8434FEA410CDF6807FA0CF738436C
:101A30009060506801278F40B8431F79C7F30017A3
:101A40008F4038435060D0684FEA410C032707FAB3
:101A50000CF7B8434FEA410C9F6807FA0CF738437C
:101A6000D0605F6807F08057B7F1805F95D100BF05
:101A7000484F3F6847F00207DFF818C1CCF8007004
:101A800067463F6807F00207009700BF00BF424F5C
:101A90004FEA910C00E075E057F82C008F074FEAF1
:101AA000177C0F2707FA0CF7B8433C4FBA4201D115
:101AB00000272DE03A4FBA4201D1012728E0394FE3
:101AC000BA4201D1022723E0374FBA4201D103279E
:101AD0001EE0364FBA4201D1042719E0344FBA4212
:101AE00001D1052714E0334FBA4201D106270FE098
:101AF000314FBA4201D107270AE0304FBA4201D133
:101B0000082705E02E4FBA4201D1092700E00A2735
:101B10004FEA817C4FEA1C7C07FA0CF738431E4FD2
:101B20004FEA910C47F82C002868A0435F6807F43F
:101B30008037B7F5803F00D1204328606868A04314
:101B40005F6807F40037B7F5003F00D120436860B5
:101B50004FF0B0473868A0435F6807F48017B7F5C7
:101B6000801F00D120434FF0B04738607868A04311
:101B70005F6807F40017B7F5001F00D120434FF04E
:101B8000B0477860491C1029FFF400AFF8BD000091
:101B900080000058F444025808040058000002581D
:101BA0000004025800080258000C025800100258A5
:101BB0000014025800180258001C02580020025855
:101BC000002402580AB1018300E0418370470000FD
:101BD00003480068034909780844014908607047D0
:101BE000180000242000002410B50320FFF088F91D
:101BF000002000F007F808B1012010BDFFF044F903
:101C00000020FAE770B504460E4800784FF47A7168
:101C1000B1FBF0F00C490968B1FBF0F5284600F083
:101C20006BFD08B1012070BD102C07D200222146A7
:101C3000501E00F053F80548046001E00120F2E76F
:101C40000020F0E720000024240000241C000024D1
:101C500000BF00BF00BFBFF35F8F00BF00BF00BF6A
:101C60000548006820F480300349086000200249DC
:101C7000703108607047000024ED00E040F0010181
:101C80000D4A11600C497039096841F480310A4AE3
:101C9000703A116000BF00BF00BFBFF34F8F00BF9D
:101CA00000BF00BF00BF00BF00BFBFF36F8F00BF0A
:101CB00000BF00BF7047000094ED00E001460846F9
:101CC000002809DB00F01F0301229A4043099B0012
:101CD00003F1E023C3F8002100BF70472DE9F05F56
:101CE00080460D46164601F091FF074639462A46C2
:101CF000334601F00700C0F1070ABAF1040F02D918
:101D00004FF0040A01E0C0F1070AD14600F1040ACD
:101D1000BAF1070F02D24FF0000A01E0A0F1030A66
:101D2000D4464FF0010A0AFA09FAAAF1010A0AEAAE
:101D3000020A0AFA0CFA4FF0010B0BFA0CFBABF19A
:101D4000010B0BEA030B4AEA0B042146404600F163
:101D50005BFCBDE8F09F70470348006840F400203A
:101D600001490860704700000044025810B5FFF0B8
:101D7000DBF80949096801F00F01012292FAA2F289
:101D8000B2FA82F2D140054A515CC8400449086069
:101D90000846006810BD000018440258DC710008B5
:101DA0002800002410B5FFF7E1FF0749096801F496
:101DB000E0614FF4807292FAA2F2B2FA82F2D1405C
:101DC000024A515CC84010BD1C440258DC71000836
:101DD00070B5012500EE905A002201210023002455
:101DE000DFED861AB0EE610ADFED841AB0EE611AFB
:101DF0000020834D2D6805F0380535B1082D15D02C
:101E0000102D15D0182D7CD114E07D4D103D2D687E
:101E1000C5F3401545B17A4D103D2D68C5F3C10697
:101E2000784D25FA06F000E07648E5E07648E3E0F4
:101E30007648E1E0724D18352D6805F00302704DCB
:101E400018352D68C5F305116D4D1C352D6805F04D
:101E500001036B4D24352D68C5F3CC0515FB03F547
:101E600001EE905AF8EE611AB0EE610A22B1012A31
:101E70004FD0022A7DD16BE0614D103D2D68C5F336
:101E800040152DB35E4D103D2D68C5F3C1065D4D67
:101E900025FA06F4B4FBF1F501EE905AB8EE612A8A
:101EA000DFED5B1AC0EE212A554D20352D68C5F3B4
:101EB000080501EE905AF8EE611A72EEA11AF7EEDB
:101EC000002A71EEA21A62EE211AB0EE611A1FE02A
:101ED0004C4DB5FBF1F501EE905AB8EE612ADFEDFD
:101EE0004C1AC0EE212A464D20352D68C5F3080551
:101EF00001EE905AF8EE611A72EEA11AF7EE002A7E
:101F000000E077E071EEA21A62EE211AB0EE611ADB
:101F10005EE03D4DB5FBF1F501EE905AB8EE612A59
:101F2000DFED3B1AC0EE212A354D20352D68C5F373
:101F3000080501EE905AF8EE611A72EEA11AF7EE5A
:101F4000002A71EEA21A62EE211AB0EE611A3FE089
:101F50002E4DB5FBF1F501EE905AB8EE612ADFED9A
:101F60002C1AC0EE212A264D20352D68C5F3080510
:101F700000E00EE001EE905AF8EE611A72EEA11A3E
:101F8000F7EE002A71EEA21A62EE211AB0EE611A83
:101F90001EE01D4DB5FBF1F501EE905AF8EE612AF9
:101FA000DFED1B1A80EE212A154D20352D68C5F373
:101FB000080501EE905AF8EE611A72EE211AB7EE9A
:101FC000002A71EE821A62EEA11AB0EE611A00BF09
:101FD00000BF0B4D20352D68C5F346256D1C00EE66
:101FE000905AF8EE601A81EE212AFCEEC21A11EE28
:101FF000900A01E0044800BF00BF70BD000000006F
:10200000104402580090D00300093D0040787D0143
:102010000000004670B504460025207800F001005D
:10202000002870D0F748006800F0380010280CD065
:10203000F448006800F03800182812D1F148183030
:10204000006800F0030002280BD1EE481038006849
:10205000C0F34040002869D06068002866D10120A4
:1020600070BD00BF6068B0F5803F08D1E54810380A
:10207000006840F48030E349103908602EE0606861
:1020800068B9E0481038006820F48030DD49103924
:1020900008600846006820F4802008601EE0606840
:1020A000B0F5A02F0DD1D7481038006840F480203B
:1020B000D449103908600846006840F48030086050
:1020C0000CE0D0481038006820F48030CD49103939
:1020D00008600846006820F48020086000BF60683F
:1020E00090B1FEF09DFE054606E0FEF099FE401B15
:1020F000642801D90320B3E7C24810380068C0F350
:1021000040400028F1D011E0FEF08AFE054606E0CE
:10211000FEF086FE401B642801D90320A0E7B948E1
:1021200010380068C0F340400028F1D1207800F05A
:102130000200022847D1B348006800F0380058B1C7
:10214000B048006800F0380018283ED1AD4818307B
:10215000006800F00300B8BBAA4810380068C0F35C
:10216000800018B1E06808B9012079E7A548103867
:10217000006820F01900E1680843A249103908609E
:10218000FEF04EFE054606E0FEF04AFE401B022829
:1021900001D9032064E79B4810380068C0F3800031
:1021A0000028F1D097480C38006820F47C304FF4B8
:1021B0007C3292FAA2F2B2FA82F22169914008438B
:1021C00090490C3908604AE0FFE7E06868B38D4841
:1021D0001038006820F01900E16808438949103977
:1021E0000860FEF01DFE054606E0FEF019FE401BED
:1021F000022801D9032033E7824810380068C0F371
:1022000080000028F1D07F480C38006820F47C3032
:102210004FF47C3292FAA2F2B2FA82F22169914032
:10222000084378490C39086019E07648103800688E
:1022300020F00100734910390860FEF0F1FD0546F9
:1022400006E0FEF0EDFD401B022801D9032007E760
:102250006C4810380068C0F380000028F1D1207865
:1022600000F01000102877D16648006800F03800B0
:1022700008280CD06348006800F03800182823D1E3
:1022800060481830006800F0030001281CD15D4848
:1022900010380068C0F3002020B1E069802801D028
:1022A0000120DDE657480C38006820F0F8404FF078
:1022B000F84292FAA2F2B2FA82F2216A91400843FD
:1022C00050490C39086047E0E06958B34D48103870
:1022D000006840F080004B4910390860FEF0A0FD16
:1022E000054606E0FEF09CFD401B022801D90320B4
:1022F000B6E6444810380068C0F300200028F1D04A
:1023000040480C38006820F0F8404FF0F84292FA4C
:10231000A2F2B2FA82F2216A9140084339490C399B
:10232000086019E037481038006820F0800035490F
:1023300010390860FEF074FD054606E0FEF070FD01
:10234000401B022801D903208AE62E481038006875
:10235000C0F300200028F1D1207800F00800082800
:1023600036D16069D0B127486430006840F0010080
:10237000244964310860FEF053FD054606E0FEF096
:102380004FFD401B022801D9032069E61D48643037
:102390000068C0F340000028F1D019E0194864300B
:1023A000006820F00100174964310860FEF038FD34
:1023B000054606E0FEF034FD401B022801D903204B
:1023C0004EE6104864300068C0F340000028F1D1A8
:1023D000207800F02000202834D1A069D8B1094825
:1023E0001038006840F48050064910390860FEF04B
:1023F00017FD054608E0FEF013FD401B022803D937
:1024000003202DE610440258AF480068C0F3403066
:102410000028F0D016E0AC48006820F48050AA49AB
:102420000860FEF0FDFC054606E0FEF0F9FC401BEE
:10243000022801D9032013E6A3480068C0F3403006
:102440000028F2D1207800F0040004287DD19F48B4
:10245000006840F480709D490860FEF0E1FC05468C
:1024600006E0FEF0DDFC401B642801D90320F7E5FF
:102470009648006800F480700028F2D000BFA06881
:10248000012808D190487030006840F001008E4962
:10249000703108602DE0A06868B98B487030006822
:1024A00020F001008849703108600846006820F07B
:1024B000040008601DE0A06805280DD18248703036
:1024C000006840F0040080497031086008460068E8
:1024D00040F0010008600CE07B487030006820F09C
:1024E00001007949703108600846006820F0040056
:1024F000086000BFA068A0B1FEF092FC054608E0AD
:10250000FEF08EFC401B41F28831884201D9032045
:10251000A6E56D4870300068C0F340000028EFD099
:1025200013E0FEF07DFC054608E0FEF079FC401B60
:1025300041F28831884201D9032091E56248703028
:102540000068C0F340000028EFD1606A00287CD00A
:102550005D481030006800F03800182876D0606AB6
:10256000022874D15848006820F0807056490860ED
:10257000FEF056FC054606E0FEF052FC401B022829
:1025800001D903206CE550480068C0F34060002882
:10259000F2D100BFD4E90A1041EA00104A492831BB
:1025A000096840F2F33291430843474928310860F3
:1025B000208E401EC0F30800616B491E4FF47E421E
:1025C00002EA41210843218F491ED20102EA01415A
:1025D00008433C21095D491E120202EA01610843D9
:1025E00039493031086000BF081D00684FF6F871A6
:1025F00088434FF6F87292FAA2F2B2FA82F2A16C14
:10260000914008433049343108602F482C3000682D
:1026100020F00C00216C08432B492C31086008463F
:10262000006820F00200616C084327492C310860E3
:102630000846006840F4803008600846006840F4AE
:10264000003008600846006802E03BE038E01FE028
:1026500040F4802008600846006840F001000860EF
:102660001948006840F0807017490860FEF0D8FBF8
:10267000054606E0FEF0D4FB401B022801D90320EA
:10268000EEE411480068C0F340600028F2D019E081
:102690000D48006820F080700B490860FEF0C0FB18
:1026A000054606E0FEF0BCFB401B022801D90320D2
:1026B000D6E405480068C0F340600028F2D101E08C
:1026C0000120CDE40020CBE4004402580048025829
:1026D000042808D14FF0E021096941F004014FF0CE
:1026E000E022116107E04FF0E021096921F00401C7
:1026F0004FF0E0221161704770B504462546681E10
:10270000B0F1807F01D301200FE0681E4FF0E0217F
:1027100048610F214FF0FF30FFF076FF00204FF0AF
:10272000E021886107200861002070BD10B5FEF02F
:10273000B3FF10BD70470146022081F83D000868D4
:10274000008840F001000A681080012081F83D00F7
:10275000002070477047704710B504460349206851
:10276000884201D1FEF7E6F910BD000000000140EB
:1027700070B504460D4600BF94F83C00012801D115
:10278000022070BD012084F83C0000BF022084F8C4
:102790003D002946204600F02FFC2068C06820F04C
:1027A00040002168C8602068C06820F4804021682B
:1027B000C860012084F83D0000BF002084F83C0080
:1027C00000BF00BFDDE700002DE9F04104462068AE
:1027D000C569206807682068866805F00F08B8F1A9
:1027E000000F0DD105F0200050B107F0200010B906
:1027F00006F0805020B12046FFF043FEBDE8F08196
:10280000B8F1000F72D05D48304018B907F49070ED
:1028100000287AD005F0010048B107F4807030B18B
:10282000012021680862E06F40F00100E06705F0D8
:10283000020048B106F0010030B1022021680862B0
:10284000E06F40F00400E06705F0040048B106F0D6
:10285000010030B1042021680862E06F40F00200FE
:10286000E06705F0080078B107F0200028B906F00D
:10287000805010B906F0010030B1082021680862CC
:10288000E06F40F00800E067E06F70B305F02000F3
:1028900040B107F0200010B906F0805010B120467A
:1028A000FFF0EFFDE06F00F0080020B920688068BD
:1028B00000F0400018B3204600F07FFC20688068DC
:1028C00000F04000B8B12068806820F04000216826
:1028D0008860606F58B12A48616F0865606FFEF0CC
:1028E00041F810B1606F016D88470DE00DE02046A2
:1028F000FFF0FDF808E02046FFF0F9F804E020467C
:10290000FFF0F5F80020E06778E705F4801078B173
:1029100006F4800060B14FF4801021680862202026
:1029200084F8790084F87A002046FFF0DFF865E744
:1029300005F0800048B107F0800010B906F40000EF
:1029400018B12046FFF0E2FD58E705F0400030B135
:1029500007F0400018B12046FFF083FD4EE705F474
:10296000000040B107F0804028B12068006820F0E6
:1029700080402168086000BF40E7000001000010AF
:102980004B24100810B504460CB9012010BDA069F5
:1029900000B100E000BF94F8790028B9002084F865
:1029A00078002046FFF0A4F8242084F879002068FD
:1029B000006820F0010021680860204600F00EFC4D
:1029C000012800D1E2E7606B10B1204600F080FBE7
:1029D0002068406820F49040216848602068806842
:1029E00020F02A00216888602068006840F001001B
:1029F000216808602046FFF0EEFCC7E72DE9F843A8
:102A000004460D4616461F464FF0000994F879001B
:102A1000202854D105B116B90120BDE8F88300BFC4
:102A200094F87800012801D10220F6E7012084F80B
:102A3000780000BF00206034E06121206076FEF065
:102A4000EFF9814626806680603C21E0B4F86200A0
:102A5000401EA4F862004B460022802120460097C9
:102A600001F08EF808B10320D7E7A068B0F5805FC9
:102A70000AD1206940B9A846B8F80000C0F30800A0
:102A800021680885AD1C03E015F8010B2168088555
:102A9000B4F862000028D9D14B46002240212046DC
:102AA000009701F06DF808B10320B6E7202084F804
:102AB000790000BF002084F8780000BFADE7022055
:102AC000ABE770471FB5FFF7C3F801208DF8000092
:102AD0001F48019007208DF8080003208DF80B0097
:102AE00001208DF80F0000208DF80E008DF80D00EC
:102AF0008DF801008DF80A008DF809008DF80C00A2
:102B00006846FEF093F901208DF80000114801900D
:102B10000D208DF8080003208DF80B0000208DF8A3
:102B20000F0001208DF80E0000208DF80D0001200F
:102B30008DF8010000208DF80A008DF809008DF84D
:102B40000C006846FEF072F90420FFF797F81FBDED
:102B5000000004300040043000B585B01048FEF09D
:102B6000EDFD10480E4908600020486000210C4827
:102B700081600D49C1600021016180218161FEF009
:102B8000C3FD0720009010200190002002906946AC
:102B90000348FFF7EDFD0248FFF7CDFD05B000BD8E
:102BA000E80100240004004020A1070000BFFEE768
:102BB000F0B59DB0002769462D48FEF03BF8012096
:102BC0008DF8000069462A48FEF702FE00250CE059
:102BD000C5EB851000EBC510264901EBC0020023B0
:102BE00029462348FEF7BDFA6D1C042DF0D3FFF0F3
:102BF000A1F800BF6420FEF75FFAFDF033FE064641
:102C00001DA000F0F3FF012EF4DD314620A000F0FE
:102C1000EDFF022E06D0032E08D0042E0AD0052E7A
:102C20000FD10BE04FF4005467000EE000244FF486
:102C300080470AE04FF40054002706E000240027F4
:102C400003E04FF40054670000BF00BF04A9084828
:102C5000FDF005FF0A94099704A90548FEF7A6FDB3
:102C60000348FEF7E9FD0248FEF73AFA1DB0F0BD51
:102C70000001002400020430436F6E6E656374200F
:102C8000446576696365202E2E2E2E2E2E0D0A00A9
:102C90004C696E6B205374617475732069732025C1
:102CA000640D0A0010B500231B4C236000BF00BF59
:102CB00000BFBFF34F8F00BF00BF00BF231F1868C6
:102CC000C0F34E3100BFC0F3C90200BF43F6E0734A
:102CD00003EA41134FF0404404EA827423430F4C4B
:102CE000236000BF00BF131EA2F10102EED10B1E34
:102CF000A1F10101E7D100BF00BF00BFBFF34F8FBB
:102D000000BF00BF00BF00BF00BF00BFBFF36F8F99
:102D100000BF00BF00BF10BD84ED00E074EF00E015
:102D20007047000070B506460124012500231A46AD
:102D300041F61241304604F0FDF900231A464FF4E3
:102D4000B051304604F0F6F92246641C414B4FF472
:102D5000B051304604F0B4F92246641C3E4B4FF4A7
:102D6000B051304604F0ACF92246641C3B4B4FF4A2
:102D7000B051304604F0A4F92246641C384B4FF49D
:102D8000B051304604F09CF92246641C354B4FF498
:102D9000B051304604F094F9601EC3B200224FF4E3
:102DA000B051304604F0C6F94FF4B053012241F659
:102DB0001241304603F1F4FD0123002241F6124195
:102DC000304604F0B7F900231A4641F61341304665
:102DD00004F0B0F900231A464FF4D051304604F005
:102DE000A9F92A466D1C204B4FF4D051304604F00F
:102DF00067F92A466D1C1D4B4FF4D051304604F044
:102E00005FF92A466D1C1A4B4FF4D051304604F03E
:102E100057F9681EC3B200224FF4D051304604F077
:102E200089F94FF4D053012241F61341304603F1A2
:102E3000B7FD0123002241F61341304604F07AF930
:102E40000323002246F26001304604F073F90120AA
:102E500070BD00001000406020007A602000FF601C
:102E600020008360200084601000416020006460C6
:102E700020006C6010B5FEF7ABFEFFF757FC10BDED
:102E80002048006840F470001E4908601E48006831
:102E900040F001001C49086000201B491031086007
:102EA0001948006819490840174908600020164968
:102EB00018310860091D0860091D08601249283191
:102EC0000860091D0860091D0860091D0860091DCA
:102ED0000860091D0860091D0860091D08600A488E
:102EE000006820F48020084908600020064960310D
:102EF0000860012006490860C00602498039086060
:102F00007047000088ED00E0004402587FEDF6EACB
:102F10000881005110B500220288294B98420ED03A
:102F2000B0F1804F0BD0274B984208D0264B9842E7
:102F300005D0264B984202D0254B984203D122F06F
:102F400070024B681A431E4B984217D0B0F1804F65
:102F500014D01C4B984211D01B4B98420ED01B4BE7
:102F600098420BD01A4B984208D01A4B984205D081
:102F7000194B984202D0194B984203D122F4407267
:102F8000CB681A4322F080034C6943EA04020280B2
:102F90008B68C3620B880385094B98420BD00C4B9E
:102FA000984208D00B4B984205D00B4B984202D068
:102FB0000A4B984201D10B8A03860123436110BD5D
:102FC000000001400004004000080040000C0040E8
:102FD000000401400040014000440140004801401D
:102FE00030B50C460021816821F47F4142EA032577
:102FF00025432943816030BD2DE9F04104460D464B
:1030000000260027B0462068866824480640686885
:10301000064323480640286806432068866068689F
:1030200000F00F01002935D10011082832D2DFE865
:1030300000F02D2E2F300B212704D5E90313AA68A9
:103040002068FFF7CDFF26E02068D0F820802068B8
:10305000006A20F00100216808622068876927F073
:10306000F007286947EA0017206887612068C0F8E0
:10307000208010E02A69A9682068FFF097F90AE02B
:103080002A69A968206800F00DF804E003E002E076
:1030900001E000E000BF00BFBDE8F0818FFFCFFF7F
:1030A000F8FFFEFF30B50B46144600210022056AEA
:1030B00025F0100505628169026A21F4704141EA38
:1030C000043122F0A00242EA03128161026230BDA3
:1030D00090F8341001F0010139B10168496821F418
:1030E0000031826B11430268516090F8341001F096
:1030F000020139B10168496821F48031C26B114382
:103100000268516090F8341001F0040139B101688F
:10311000496821F48021026C11430268516090F8E3
:10312000341001F0080139B10168496821F4004107
:10313000426C11430268516090F8341001F01001A4
:1031400039B10168896821F48051826C11430268A9
:10315000916090F8341001F0200139B1016889685C
:1031600021F40051C26C11430268916090F8341050
:1031700001F0400199B10168496821F48011026DA4
:10318000114302685160016DB1F5801F07D10168DC
:10319000496821F4C001426D11430268516090F802
:1031A000341001F0800139B10168496821F400212F
:1031B000826D11430268516070470168096821F40B
:1031C0009071026811600168896821F0010102684C
:1031D0009160202180F87A10704700002DE9F04FAF
:1031E00089B0044600254FF08008A946AA46002071
:1031F0000890FA492068884201D1012000E00020AF
:1032000000B100E000BFA06AB0F1005F00D100BFD4
:103210002169A068084361690843E16940EA010542
:10322000A06A054320680068ED49084028432168EA
:1032300008602068406820F44050E1680843216835
:103240004860A569E5492068884201D1012000E075
:10325000002008B9206A0543A06AB0F1005F03D1DD
:10326000D4E90B010843054320688068DD49084024
:103270002843216888602068C06A20F00F00616AD6
:1032800008432168C86200BFD7492068884224D11A
:10329000D648006800F03800182814D005DC48B182
:1032A00008280AD0102817D10AE020280ED0282894
:1032B00012D10EE04FF001080EE04FF004080BE0D1
:1032C0004FF0400808E04FF0080805E04FF0100804
:1032D00002E04FF0200800BF17E1C549206888428E
:1032E0001DD1C248006800F00700062816D2DFE8AA
:1032F00000F00306090C0F124FF000080EE04FF02B
:1033000004080BE04FF0400808E04FF0080805E023
:103310004FF0100802E04FF0200800BFF5E0B5497B
:10332000206888421DD1B148006800F007000628D7
:1033300016D2DFE800F00306090C0F124FF0000868
:103340000EE04FF004080BE04FF0400808E04FF0AB
:10335000080805E04FF0100802E04FF0200800BF19
:10336000D3E0A549206888421DD1A048006800F03C
:103370000700062816D2DFE800F00306090C0F123A
:103380004FF000080EE04FF004080BE04FF040084B
:1033900008E04FF0080805E04FF0100802E04FF099
:1033A000200800BFB1E09549206888421DD18F48B0
:1033B000006800F00700062816D2DFE800F00306D8
:1033C000090C0F124FF000080EE04FF004080BE05C
:1033D0004FF0400808E04FF0080805E04FF01008F3
:1033E00002E04FF0200800BF8FE085492068884246
:1033F00024D17E48006800F03800182814D005DC7D
:1034000048B108280AD0102817D10AE020280ED089
:10341000282812D10EE04FF001080EE04FF004080A
:103420000BE04FF0400808E04FF0080805E04FF0CF
:10343000100802E04FF0200800BF66E071492068E4
:1034400088421DD16948006800F00700062816D29E
:10345000DFE800F00306090C0F124FF000080EE041
:103460004FF004080BE04FF0400808E04FF0080868
:1034700005E04FF0100802E04FF0200800BF44E0E4
:103480006149206888421DD15848006800F0070053
:10349000062816D2DFE800F00306090C0F124FF0E1
:1034A00000080EE04FF004080BE04FF0400808E081
:1034B0004FF0080805E04FF0100802E04FF0200838
:1034C00000BF22E04549206888421ED14748001DC0
:1034D000006800F00700062816D2DFE800F00306B7
:1034E000090C0F124FF002080EE04FF004080BE039
:1034F0004FF0400808E04FF0080805E04FF01008D2
:1035000002E04FF0200800BF00BF00BF3349206831
:10351000884201D1012000E0002000285DD0002574
:10352000B8F1100F33D009DCB8F1020F10D0B8F1A8
:10353000040F11D0B8F1080F2ED117E0B8F1200F09
:1035400027D0B8F1400F0CD0B8F1800F24D124E07F
:10355000FDF006FD054623E005A8FDF017FD069DDC
:103560001EE002A8FDF028FE039D19E01F48543814
:103570000068C0F3401040B11C4854380068C0F3E4
:10358000C101224820FA01F500E0204D08E0204D5D
:1035900006E04FF4004503E000BF0120089000BFA3
:1035A00000BF002D0AD0606800EB4000A84203D89D
:1035B00060680003A84202D201200890D4E2B8F16A
:1035C000100F7CD026DCB8F1020F2DD0B8F1040F1B
:1035D00052D0B8F1080F73D19EE03FE1000C0058C3
:1035E000F369FFCFFFF4FF1100100140544402586B
:1035F0000044004000480040004C004000500040A3
:103600000014014000780040007C00400090D0038E
:1036100000093D00B8F1200F7DD0B8F1400F54D023
:10362000B8F1800FD7D109E1FDF09AFC00270646DA
:10363000FB49606A31F810C062463B463046394665
:10364000FCF736FE4FF4807600220346A3FB060704
:1036500001FB067103FB02136168490806467118F5
:103660005A41CDE9001266683246002308460199A6
:10367000FCF71EFE0546E4E005A8FDF087FCDDF83A
:1036800018C0E749606A31F810B05A460023604616
:103690001946FCF70DFE4FF4807C0022A0FB0C3B8A
:1036A00001FB0CB100FB0210616849085E1840EB99
:1036B0000201D4F804C062460023304601E079E0FC
:1036C000BBE0FCF7F5FD0546BBE002A8FDF074FD8C
:1036D000DDF80CC0D249606A31F810B05A460023B8
:1036E00060461946FCF7E4FD4FF4807C0022A0FB05
:1036F0000C3B01FB0CB100FB0210616849085E182D
:1037000040EB0201D4F804C0624600233046FCF7C7
:10371000CFFD054695E06EE0C2480068C0F340105A
:1037200038B3C0480068C0F3C101BF4820FA01FCAB
:10373000BB49606A31F810B05A460023604619460A
:10374000FCF7B6FD4FF4807C0022A0FB0C3B01FB94
:103750000CB100FB0210616849085E1840EB0201E1
:10376000D4F804C0624600233046FCF7A1FD0546AC
:103770001FE0AB49606A31F810C062460023AA48D6
:103780001946FCF795FD4FF4807C0022A0FB0C3B12
:1037900001FB0CB100FB0210616849085E1840EBA8
:1037A0000201D4F804C0624600233046FCF780FDD5
:1037B000054646E09A49606A31F810C06246002327
:1037C0009A481946FCF774FD4FF4807C0022A0FB58
:1037D0000C3B01FB0CB100FB0210616849085E184C
:1037E00040EB0201D4F804C0624600233046FCF7E7
:1037F0005FFD054625E08A49606A31F810C06246DF
:1038000000234FF400401946FCF752FD4FF4807C32
:103810000022A0FB0C3B01FB0CB100FB0210616815
:1038200049085E1840EB0201D4F804C06246002348
:103830003046FCF73DFD054603E000BF012008903F
:1038400000BF00BFB5F5407F05D3B5F5801F02D29C
:103850002068C56088E10120089085E1E069B0F545
:10386000004F7CD1B8F1100F7AD00CDCB8F1000F0A
:1038700013D0B8F1010F21D0B8F1040F2FD0B8F157
:10388000080F6ED151E0B8F1200F6BD0B8F1400FA6
:1038900038D0B8F1800F64D197E0FDF0CBFE604ADC
:1038A000616A32F81110B0FBF1F04000616800EB82
:1038B0005100B0FBF1F01FFA80FA89E0FEF772FACE
:1038C000574A616A32F81110B0FBF1F040006168AC
:1038D00000EB5100B0FBF1F01FFA80FA78E005A888
:1038E000FDF054FB06994E4A606A32F81000B1FBB5
:1038F000F0F04000616800EB5100B0FBF1F01FFAFE
:1039000080FA65E002A8FDF057FC0399444A606A1A
:1039100032F81000B1FBF0F04000616800EB51009C
:10392000B0FBF1F01FFA80FA52E03E480068C0F3A5
:103930004010C0B13B480068C0F3C1013A48C840DC
:10394000374A616A32F81110B0FBF1F0400061684B
:1039500000EB5100B0FBF1F01FFA80FA12E044E0F6
:1039600011E031E01FE02E49606A31F810002E4965
:10397000B1FBF0F04000616800EB5100B0FBF1F0EA
:103980001FFA80FA24E02649606A31F810002749BE
:10399000B1FBF0F04000616800EB5100B0FBF1F0CA
:1039A0001FFA80FA14E01E49606A31F810004FF4E3
:1039B0000041B1FBF0F04000616800EB5100B0FB4A
:1039C000F1F01FFA80FA03E000BF0120089000BF69
:1039D00000BF4FF6F0700AEA0009CAF3420049EA54
:1039E00000092068C0F80C90BEE0B8F1100F7CD040
:1039F0000CDCB8F1000F1BD0B8F1010F29D0B8F1E1
:103A0000040F37D0B8F1080F70D159E0B8F1200F8A
:103A10006DD0B8F1400F40D0B8F1800F66D19FE073
:103A2000186A1008004402580090D00300093D00B5
:103A3000FDF000FE4E4A616A32F81110B0FBF1F061
:103A4000616800EB5100B0FBF1F080B22168C86002
:103A500089E0FEF7A7F9464A616A32F81110B0FB17
:103A6000F1F0616800EB5100B0FBF1F080B2216829
:103A7000C86078E005A8FDF089FA06993C4A606ABA
:103A800032F81000B1FBF0F0616800EB5100B0FBC0
:103A9000F1F080B22168C86065E002A8FDF08CFBFF
:103AA0000399334A606A32F81000B1FBF0F06168A4
:103AB00000EB5100B0FBF1F080B22168C86052E029
:103AC0002C480068C0F34010C0B12A480068C0F319
:103AD000C1012948C840264A616A32F81110B0FB7A
:103AE000F1F0616800EB510002E017E037E025E0FB
:103AF000B0FBF1F080B22168C8600EE01C49606A3A
:103B000031F810001C49B1FBF0F0616800EB510086
:103B1000B0FBF1F080B22168C86024E01449606A0B
:103B200031F810001549B1FBF0F0616800EB51006D
:103B3000B0FBF1F080B22168C86014E00C49606A03
:103B400031F810004FF40041B1FBF0F0616800EB78
:103B50005100B0FBF1F080B22168C86003E000BF03
:103B60000120089000BF00BF089809B0BDE8F08FA1
:103B7000186A1008004402580090D00300093D0064
:103B80002DE9F04104460D4617469846069E21E071
:103B9000701CF8B12EB1FDF043F9A0EB0800B04263
:103BA00018D92068006820F4D07021680860206867
:103BB000806820F0010021688860202084F8790066
:103BC00084F87A0000BF002084F8780000BF03204A
:103BD000BDE8F0812068C0692840A84201D10120D9
:103BE00000E00020B842D3D00020F1E70FB4054B2D
:103BF00010B503A9044A0298FEF0DCFD10BC5DF884
:103C000014FB0000FD661008B400002402480068A0
:103C1000C0F30220704700000CED00E00048704740
:103C2000B800002402E008C8121F08C1002AFAD117
:103C300070477047002001E001C1121F002AFBD12C
:103C4000704700007FB504460E4600200090FFF745
:103C500029F801A91848FDF7A4FA054645BB6946AD
:103C60001548FDF025F84FF4BF511448FEF0ECFA6A
:103C700013480068C0EB801202EBC0100F4A02EB41
:103C8000C0012046009AFCF0FEF90D4800680328A8
:103C900005D20B480068401C0949086002E000207A
:103CA000074908600448FDF71BFA009804B070BD8E
:103CB0004FF0FF30FAE7000000010024000204305A
:103CC000140000242DE9FF4704460D4616461F4602
:103CD000DDE90D9ADDF8308033462A462146044856
:103CE0008DE8800700F048F904B0BDE8F0870000D7
:103CF0004800002410B5044640F2CE512046FCF79F
:103D00000FFB10BD10B504460021204600F002F85C
:103D100010BD000070B504460D462A4621460248F3
:103D200000F1D6FD70BD00004800002410B5024629
:103D3000002000BF401C00EBC0030D4C54F8333092
:103D40005B1C63B100EBC00354F833309342F1D1F4
:103D500000EBC00304EBC3035B688B42EAD100EBCA
:103D6000C003034C54F833305B1C03B9002010BD72
:103D7000786A100810B504462146024801F189F816
:103D800010BD000048000024411CC8B2072800DD17
:103D90000120704710B5044621460020FFF0E8F8E6
:103DA00010BD10B50020FFF0EFF810BD10B50446AF
:103DB0002146024803F049F910BD000048000024E4
:103DC0002DE9FF5F05460F4690461E46DDE90E9B36
:103DD000284601F01BFBC4B240F2F72014FB00F0B0
:103DE00046F274522A4402EB40012346012228463F
:103DF000CDE90269CDE9007802F083FE5A462146FA
:103E0000284602F147FB8246BAF1000F0CDD40F272
:103E1000F720604305F1200202EB400000F10C01A5
:103E200032464846FCF02FF900222146284602F08F
:103E300058FE504604B0BDE8F09FFEB505460E465C
:103E400017461C460020029002A802233A4631463B
:103E5000CDE900042846FFF7B3FFBDF80800FEBD1A
:103E60002DE9FF5F05460E4617469846DDE90E9A96
:103E7000284601F0CBFAC4B240F2F72014FB00F060
:103E800046F274522A4402EB400123460822284697
:103E90008DE8C00302F035FE52462146284602F165
:103EA000F9FA834600222146284602F01AFE5846B7
:103EB00004B0BDE8F09F2DE9FF5F05460F46904630
:103EC0001E46DDE90E9B284601F0A0FAC4B240F27E
:103ED000F72014FB00F046F274522A4402EB400132
:103EE000234604222846CDE90269CDE9007802F094
:103EF00008FE5A462146284602F1CCFA8246BAF11B
:103F0000000F0CDD40F2F720604305F1200202EBC8
:103F1000400000F10C0132464846FCF0B4F80022A3
:103F20002146284602F0DDFD504604B0BDE8F09F72
:103F3000FEB505460E4617461C460020029002A814
:103F400002233A463146CDE900042846FFF7B3FF85
:103F5000BDF80800FEBDFFB583B004460D46164609
:103F60000C9F06A8022332462946CDE900072046C9
:103F7000FFF063F907B0F0BD2DE9FF4FADF6B43D9A
:103F800081468A46DDF8ECBB0DF5BC60FFF7B2FE5A
:103F900000230DF5BC625146484601F10BFB8046FB
:103FA00004A8FFF7A7FE0DF5BC6504ACCAEBCA0177
:103FB00001EB4A11D9F8040000EBC100B0F8BE00D3
:103FC0001038CDF8B00BBBF1040F78DCDDF8E80B4E
:103FD000002874D10A202080002060802071CAEB64
:103FE000CA0202EB4A12D9F8041001EBC20191F89F
:103FF000C800FFF7C9FE0746CAEBCA0101EB4A1128
:10400000D9F8040000EBC10080F8C870032000EB71
:10401000071060714FF40050E080CBF104000C21D8
:1040200001EA800040F023002072DDF8BC0BA4F808
:104030000900DDF8C00BE072DDF8F00B01905A4684
:1040400004F10C000199FCF01EF844F6206304AA68
:104050005146484602F03BF88046B8F1000F3ADD81
:104060002846FFF747FE2A4651464846DDF8F43B0E
:1040700001F1A0FA8046B8F1000FF0DD687900F098
:104080000F0003280ED1E8880321B1EB203F09D1AE
:10409000B5F80900B4F80910884203D1E87AE17A4A
:1040A000884218D0287A80280AD1E86800905146C2
:1040B00048460DF6BC320CCAFFF0EAF809E00BE006
:1040C00001200090514648460DF6BC320CCA02F061
:1040D00075F84FF0000847E11FFA8BF600200290B8
:1040E000DDF8B00B864204DDDDF8B00B86B20120AE
:1040F000029006F10A002080002060802071CAEB47
:10410000CA0202EB4A12D9F8041001EBC20191F87D
:10411000C800FFF739FE0746CAEBCA0202EB4A1293
:10412000D9F8041001EBC20181F8C870032101EB3A
:10413000071060714FF40050E080DDF8E80B10B11B
:104140003120207201E021202072DDF8BC0BA4F8A0
:104150000900DDF8C00BE072DDF8E80B28B1DDF8EE
:10416000C00B012801DD0120E072C4F80CB0DDF8BD
:10417000F01B0191324604F110000199FBF083FF1E
:10418000019830440190ABEB060B44F6206304AA7F
:104190005146484601F09BFF8046B8F1000F9ADD7A
:1041A0000DF5BC60FFF7A6FD0DF5BC625146484613
:1041B000DDF8F43B01F1FEF98046B8F1000F8ADD2D
:1041C000687900F00F0003287DD1E8880321B1EB66
:1041D000203FF9D1B5F80900B4F809108842F3D1AD
:1041E000E87AE17A8842EFD1DDF8B00BC01DCDF856
:1041F000B00B002003909AE004AC1FFA8BF600206D
:10420000029001202072DDF8B00B864206DDDDF859
:10421000B00B86B20120029000202072029850B9A3
:10422000072E08DA0A202080C6F10700012101EBE1
:104230004000207201E0F01C20800020608020718E
:10424000CAEBCA0202EB4A12D9F8041001EBC20110
:1042500091F8C800FFF798FD0746CAEBCA0101EBC9
:104260004A11D9F8040000EBC10080F8C87003209F
:1042700000EB071060714FF40050E080217A039842
:1042800008442072324604F109000199FBF0FBFE5C
:10429000019830440190ABEB060B44F6206304AA6E
:1042A0005146484601F013FF8046B8F1000F3ADD51
:1042B0000DF5BC60FFF71EFD0DF5BC62514648468A
:1042C000DDF8F43B00E037E001F174F98046B8F125
:1042D000000F28DD687900F00F00032809D1E88875
:1042E0000321B1EB203F04D1287A00F0E000202820
:1042F00019D0287A802809D1E868009051464846AC
:104300000DF6BC320CCAFEF0C3FF08E0012000909D
:10431000514648460DF6BC320CCA01F04FFF4FF033
:10432000000800200290039880F01000039002988B
:1043300000287FF461AF17E0287A802809D1E86867
:104340000090514648460DF6BC320CCAFEF0A0FF64
:1043500008E001200090514648460DF6BC320CCAD8
:1043600001F02CFF4FF0000840460DF6C43DBDE8BB
:10437000F08FF0B589B004460D4616461F46182149
:1043800003A8FBF7CDFF01A802F17AFADDE90101EC
:10439000CDE90301ADF81650ADF8186000208DF896
:1043A0001A000120E16A087008208DF81B00ADF8A2
:1043B0001C7003A9204601F07DFF09B0F0BD2DE976
:1043C000FF4FADF6BC3D81468A469346DDF8F47B4F
:1043D0000DF2DC50FFF78EFC00230DF2DC5251464B
:1043E000484601F1E7F803A8FFF784FC0DF2DC551D
:1043F00003AC04202080002060802071CAEBCA0238
:1044000002EB4A12D9F8041001EBC20191F8C8007E
:10441000FFF7BAFC02900298CAEBCA0202EB4A12FA
:10442000D9F8041001EBC20181F8C80005210298F7
:1044300001EB00106071A07920F00700401CA07112
:10444000A07920F00800A071A07920F01000A071E0
:10445000A0796BF34710A071DDF8C80BE071DDF8AF
:10446000F00B20814FF00008DDF8F81BCDF8B41BED
:104470000DF2E650CDF8B00B0120019044F6206318
:1044800003AA5146484601F022FECDF8B80BDDF8EC
:10449000B80B00287CDD9BE00DF2DC50FFF72AFC16
:1044A0000DF2DC5251464846DDF8FC3B01F182F842
:1044B000CDF8B80BDDF8B80B00287EDD687900F088
:1044C0000F00052843D1A87900F0070002283ED14B
:1044D000A879C0F30010C8BBA879BBEB501F36D138
:1044E000E979DDF8C80B814231D12888001F86B2F6
:1044F00008EB06001FFA80F8386840450CDB3246AE
:10450000DDF8B01BDDF8B40BFBF0BDFDDDF8B40B3E
:104510003044CDF8B40B10E03888A8EB0000301A16
:1045200086B238881FFA80F8002E06DD3246DDF8A4
:10453000B01BDDF8B40BFBF0A6FDA879C0F3C000FA
:1045400040BB00200190C7F8008041E0FFE7002059
:104550000190687900F00F00052821D1A87900F0BA
:10456000070002281CD1A879C0F30010C0B1288828
:10457000001D0DF2DC510844CDF8B00BDDF8B00B96
:10458000CDF8AC0BDDF8AC0B03885146484602E091
:1045900022E012E01CE0DDF8F02BFFF7EAFE08E075
:1045A00001200023009051464846DDF8F02B01F031
:1045B00005FE0020CDF8B80B0AE000200190042091
:1045C0000023009051464846DDF8F02B01F0F6FD3F
:1045D000019800287FF460AFDDF8B80B0DF6CC3DF4
:1045E000BDE8F08F0146002003E0002241F82020C2
:1045F000401C1028F9DB70472DE9FF4F87B00446B7
:104600001D46DDE9149700200690059000BF049038
:104610008046FEA0FFF7EAFAC5EBC50101EB4511A4
:10462000606800EBC10090F80461C5EBC50101EBC7
:104630004511606800EBC1008088029031E231468C
:10464000F7A0FFF7D3FA03E008F1010000F0FF083C
:10465000B8F1070F0BDAC5EBC50101EB4511606836
:1046600000EBC100713010F808000328ECD141467E
:10467000EFA0FFF7BBFAC5EBC50101EB4511606880
:1046800000EBC100313000EBC8000188C5EBC5026A
:1046900002EB4512606800EBC200793000EB0610B7
:1046A0000181C5EBC50101EB4511606800EBC1005C
:1046B000313000EBC800B0F802A0059850440590D6
:1046C000069800EBCA000690C5EBC50101EB451149
:1046D000606800EBC100313000EBC8000088504436
:1046E00080B203904BE008F1010000F0FF0803E006
:1046F00008F1010000F0FF08B8F1070F0BDAC5EB75
:10470000C50101EB4511606800EBC100713010F884
:1047100008000328ECD1C5EBC50101EB4511606829
:1047200000EBC100313000EBC800018803988142E2
:1047300000DD32E04146BEA0FFF758FAC5EBC501E7
:1047400001EB4511606800EBC100313000EBC8009F
:10475000B0F802A0059850440590069800EBCA00F6
:104760000690C5EBC50101EB4511606800EBC10087
:10477000313000EBC8000088504480B20390C5EB94
:10478000C50101EB4511606800EBC100018B069883
:10479000814202DDB8F1070FA5DB00BFC5EBC50103
:1047A00001EB4511606800EBC100C069002866D1CB
:1047B000D9F80010C5EBC50202EB4512606800EBAA
:1047C000C200793000EB061001603978C5EBC502F4
:1047D00002EB4512606800EBC200793000EB061076
:1047E0008171C5EBC50101EB4511606800EBC100AB
:1047F000007E401E3978084438703878072807DD75
:10480000D9F80000401CC9F8000038780838387022
:10481000C5EBC50101EB4511606800EBC1007930C3
:1048200000EB06100068D9F80010081A00F1010B1F
:10483000C5EBC50202EB4512606800EBC20079309F
:1048400000EB0610A0F804B03978C5EBC50202EB06
:104850004512606800EBC200793000EB0610C171B0
:104860003878401C38703878072864DDD9F80000A3
:10487000401CC9F800003878083838705BE0387898
:1048800030B1D9F80000401CC9F800000020387091
:10489000D9F80010C5EBC50202EB4512606800EBC9
:1048A000C200793000EB061001603978C5EBC50213
:1048B00002EB4512606800EBC200793000EB061095
:1048C000817107203870DDF814B0C5EBC50101EB2C
:1048D0004511606800EBC100C169049858448142E9
:1048E0000ADAC5EBC50101EB4511606800EBC100B8
:1048F000C1690498A1EB000BD9F800005844C9F82D
:104900000000C5EBC50202EB4512606800EBC20077
:10491000793000EB0610A0F804B03978C5EBC50279
:1049200002EB4512606800EBC200793000EB061024
:10493000C171002038700498584404900021C5EBE0
:10494000C50202EB4512606800EBC200793000EB53
:10495000061081720221C5EBC50202EB45126068A8
:1049600000EBC200793000EB0610C1720121C5EBEB
:10497000C50202EB4512606800EBC200793000EB23
:104980000610017341F27071C5EBC50202EB4512CE
:10499000606800EBC200793000EB0610CDE9000141
:1049A000310101F5C062102320680299FEF045FC38
:1049B0002169099800EB800202EB401001EBC00076
:1049C000408C401C81B22269099800EB800303EB04
:1049D000401002EBC0004184C5EBC50101EB45115D
:1049E000606800EBC100006A78B9C5EBC50101EB56
:1049F0004511606800EBC100793000EB06100168DA
:104A000008980144C5EBC5021AE048E020204F5544
:104A100054505554204D415050494E470D0A000006
:104A200020202020464D4D552025640D0A00000011
:104A3000202020202020534D25640D0A0000000076
:104A400002EB4512606800EBC2000162C5EBC501D4
:104A500001EB4511606800EBC100793000EB0610F6
:104A60008079C5EBC50202EB4512616801EBC2011A
:104A700081F82400C5EBC50101EB4511606800EB2E
:104A8000C10090F82430C5EBC50101EB4511606809
:104A900000EBC1002946026A12A0FFF7A7F8701CBC
:104AA000C6B2B8F1070F10DAC5EBC50202EB45122A
:104AB000616801EBC201098BC81DC11700EB517180
:104AC000CA1004998A423FF7BAADC5EBC50101EBA4
:104AD0004511606800EBC10080F804610BB0BDE8CF
:104AE000F08F000020202020736C61766520256403
:104AF000204F757470757473202570207374617203
:104B0000746269742025640D0A0000002DE9F041EB
:104B100005460E464FF0000806E00020254901EB4F
:104B20000811486008F10108B8F1010FF5DB012414
:104B300012E056B1C4EBC40101EB4411686800EB0C
:104B4000C10090F80301B04204D10022214628465A
:104B500000F0D4FE601C84B2A8680068A042E8DAC5
:104B600000BF00F045FC07461FB14FF47A7001F119
:104B700003FF002FF5D1012415E056B1C4EBC401A9
:104B800001EB4411686800EBC10090F80301B042EA
:104B900007D12146284600F0A3FF2146284601F010
:104BA000ABF8601C84B2A8680068A042E5DABDE8F2
:104BB000F0810000A80200242DE9F04F95B00446D2
:104BC000002011908046616881F8C900216908754C
:104BD00010904FF4FA6010A9CDE9001004234FF4AF
:104BE000106200212068FFF73BF9684601F148FE9A
:104BF000DDE90001CDE90501FE490598401A05905F
:104C0000FD490598A0FB013006995A1840F10000B3
:104C10004FF47A730021A2FB03CB00FB03B002FB2D
:104C20000100CDE902C00125E2E2C5EBC50101EBBF
:104C30004511606800EBC10090F8CC00C5EBC502DF
:104C400002EB4512616801EBC20181F8CD00C5EBB2
:104C5000C50101EB4511606800EBC10090F8C90087
:104C600000287DD0606890F8C900B0B90120616863
:104C700081F8C9006068A0F8E8500020C5EBC502C3
:104C800002EB4512616801EBC201A1F8EA000120C4
:104C9000216908752069C58211E0C8EBC80101EBE4
:104CA0004811606800EBC100A0F8E850C5EBC501F1
:104CB00001EB4511606800EBC100A0F8EA8000201C
:104CC0001190A846C5EBC50101EB4511606800EBEA
:104CD000C100808813904FF4FA6010A9CDE900104C
:104CE00004234FF4106220681399FFF7E4F810983A
:104CF000C5EBC50202EB4512616801EBC201C1F8C8
:104D0000D4004FF4FA600CA9CDE90010082340F656
:104D1000181220681399FFF7CEF80022DDE90C0184
:104D2000434262EB0101DDE902209A184141CDE9DD
:104D30000C214FF4FA600CA9CDE9001008234FF4C0
:104D4000126220681399FEF078FA4FF4FA6010A905
:104D5000CDE90010042340F604122068139900E006
:104D6000F5E1FFF7A8F81098C5EBC50202EB451274
:104D7000616801EBC201C1F8D8004FF4FA6010A9D4
:104D8000CDE90010042340F6081220681399FFF7BC
:104D900092F81098C5EBC50202EB4512616801EB71
:104DA000C201C1F8DC004FF4FA6010A9CDE900108F
:104DB000042340F60C1220681399FFF77CF8109832
:104DC000C5EBC50202EB4512616801EBC201C1F8F7
:104DD000E0000027C5EBC50101EB4511606800EB61
:104DE000C10090F8CC0000F0010080B100200BA9B8
:104DF000C855C5EBC50101EB4511606800EBC1006A
:104E0000D0F8D40007A941F82700781C47B2C5EBB9
:104E1000C50101EB4511606800EBC10090F8CC00C2
:104E200000F0080080B103200BA9C855C5EBC501EF
:104E300001EB4511606800EBC100D0F8E00007A964
:104E400041F82700781C47B2C5EBC50101EB4511BD
:104E5000606800EBC10090F8CC0000F0020080B167
:104E600001200BA9C855C5EBC50101EB45116068D0
:104E700000EBC100D0F8D80007A941F82700781C42
:104E800047B2C5EBC50101EB4511606800EBC100FD
:104E900090F8CC0000F0040080B102200BA9C855A6
:104EA000C5EBC50101EB4511606800EBC100D0F80E
:104EB000DC0007A941F82700781C47B24FF0000931
:104EC000012F07DD07A951F829100898884201DA57
:104ED0004FF00109022F07DD07A951F829100998A1
:104EE000884201DA4FF00209032F07DD07A951F8C4
:104EF00029100A98884201DA4FF003090BA810F82C
:104F00000990C5EBC50101EB4511606800EBC100DC
:104F100080F8D190C5EBC50101EB4511606800EB4D
:104F2000C10090F8CD00012101FA09F18843C5EBD9
:104F3000C50202EB4512616801EBC20181F8CD00A8
:104F40002E4600BF1296C6EBC60101EB4611606803
:104F500000EBC100B0F8CE6056B1C6EBC60101EB64
:104F60004611606800EBC10090F8C9000028E9D044
:104F7000002E7CDD3146204600F14EFCC5EBC5021B
:104F800002EB4512616801EBC20181F8D000C6EB6B
:104F9000C60101EB4611606800EBC10090F8CB0040
:104FA000012811D1C6EBC60101EB4611606800EB88
:104FB000C10090F8D100C5EBC50202EB4512616853
:104FC00001EBC20181F8D0004FF0000A00200F90E1
:104FD000C5EBC50101EB4511606800EBC10090F81D
:104FE000D0203146204600F149FC8346C5EBC5017F
:104FF00004E0000080436D3840420F0001EB451192
:10500000606800EBC10090F8D0203146204601F0E6
:10501000FEF8024631460190204600F12FFCABEB32
:1050200000000E90C5EBC50101EB4511606800EB77
:10503000C10090F8CB00012824DDC5EBC50101EBD0
:105040004511606800EBC10090F8D1202946204648
:1050500001F0DDF8024629460190204600F10EFCE1
:105060008346C5EBC50101EB4511606800E0BDE07A
:1050700000EBC10090F8D1202946204600F1FEFB4C
:10508000ABEB000A0E98824501DDCAF1000A1298C6
:10509000801B012823DDC5EBC50101EB45116068CC
:1050A00000EBC10090F8D0203146204601F0AFF867
:1050B000024631460190204600F1E0FB8346C6EBF4
:1050C000C60101EB4611606800EBC10090F8D120E9
:1050D0003146204600F1D2FBABEB00000F900F9859
:1050E000002802DA0F9840420F900E99A1EB0A00B7
:1050F00000EBD0714A100F990A44C6EBC60303EBCC
:105100004613616801EBC301D1F8E4100A44C5EB12
:10511000C50303EB4513616801EBC301C1F8E4204B
:10512000C5EBC50101EB4511606800EBC100D0F88B
:10513000E40010904FF4FA6010A9CDE900100423A8
:1051400040F6281220681399FEF077F84EE0002010
:10515000C5EBC50202EB4512616801EBC201C1F863
:10516000D400C5EBC50202EB4512616801EBC20138
:10517000C1F8D800C5EBC50202EB4512616801EB2E
:10518000C201C1F8DC00C5EBC50202EB4512616843
:1051900001EBC201C1F8E000C5EBC50101EB45110F
:1051A000606800EBC100B0F8CE60002E0BDDC6EBEE
:1051B000C60101EB4611606800EBC10090F8CB001E
:1051C000022800DD1196119880B1C5EBC50101EBF5
:1051D0004511606800EBC10090F8CB00012805D1B3
:1051E0002046119900F118FB00201190681C85B22F
:1051F000A0680068A842BFF618AD606890F8C900C2
:1052000015B0BDE8F08F00002DE9F04F8BB00546DA
:10521000894692461C46149EC9EBC90101EB49110F
:10522000686800EBC100B0F804B0002008904FF4AB
:10523000FA6008A9CDE90010012340F68112594611
:105240002868FDF0FAFFBAF1000F01D003200890A2
:10525000002009904FF4FA6009A9CDE9001001235C
:105260004FF4186259462868FDF0E7FF00210491C9
:1052700005914FF4FA6004A9CDE9001008234FF41A
:10528000116259462868FEF716FEDDE90401CDE9F2
:105290000401D4B1364ADDE904309F1840F1000121
:1052A000224600233846FAF0BDFE00220B46A0FB42
:1052B000041703FB047300FB0230091950418919DC
:1052C00040EBE670CDE906100AE0294BDDE9042049
:1052D000D11840F10000891940EBE670CDE90610C5
:1052E000DDE90601CDE906014FF4FA6006A9CDE932
:1052F00000104FF008034FF4196259462868FDF07A
:105300009CFF03944FF4FA6003A9CDE90010042335
:105310004FF41A6259462868FDF08FFF4FF4FA6087
:1053200008A9CDE90010012340F6811259462868EA
:10533000FDF083FFC9EBC90101EB4911686800EB7F
:10534000C10080F8F4A0C9EBC90101EB49116868FC
:1053500000EBC100C0F8F060C9EBC90101EB4911D5
:10536000686800EBC100C0F8EC400BB0BDE8F08FFE
:1053700000E1F5052DE9FF470646884614461F461D
:105380004FF00009CA46394602A801F1BFFA00BF32
:10539000B9F1000009F1010902D0C82001F1ECFACD
:1053A000002020804FF4FA60CDE90040022340F253
:1053B000025241463068FEF77EFD05462088208077
:1053C000002D04DD208800F40040002804DD02A840
:1053D00001F16FFA0028DBD0208800F4004008B902
:1053E0004FF0010A1FFA8AF004B0BDE8F087000010
:1053F0000020002105E0044A02EB0112526810442B
:10540000491C0129F7DB7047A802002410B50146AA
:105410004CF688235B58581C102800DB0020002223
:1054200004E0401C521C102800DB002001F5BE43A4
:1054300053F820300BB1102AF3DB012401F5BE43F1
:1054400043F820404CF68C235B5833B14CF6902344
:105450005B5803F5BE4343F820404CF68823585070
:1054600010BD2DE9F74F82B082460D46049808B969
:10547000544603E04CF6902050F80A404FF0FF30BD
:10548000019040F2F7206843216901EB4006102D9E
:1054900017DA606950F82500032812D13078717846
:1054A00001F00F0100EB012816F8081008F10100C7
:1054B000305C01EB002001900420616941F8250077
:1054C0005FE05046049900F1D1FC002859D06FF0FC
:1054D00001000190D4F80C9048F6A40001F0EAFD18
:1054E000B9F80C1088424CD1E06800F10E0BBBF803
:1054F0000000C0F30B089BF80370AF421ED1A068F8
:1055000050F82500A0F10E02E06800F10E013046CF
:10551000FAF0B9FD16F8081008F10100305C01EB53
:10552000002001900420616941F82500B9F80800C5
:1055300001F130FAA16941F8250022E0102F20DAAC
:10554000606950F8270002281BD140F2F720784309
:10555000216901EB4006A06850F82700A0F10E0277
:10556000E06800F10E013046FAF08DFD032061691C
:1055700041F82700B9F8080001F10CFAA16941F8D7
:105580002700019805B0BDE8F08F70B504460020F3
:10559000A16808604FF49C73E26802FB03F1606845
:1055A000FAF7BEFE4FF49473626902FB03F12069BF
:1055B000FAF7B6FE4FF480520021204600F17CFE3F
:1055C000002508E0280405EB850202EB451221695D
:1055D00041F832006D1C6069A842F3DC70BD000028
:1055E0002DE9F04104460D46012D7CDDA0680068E0
:1055F0000028FADD012600E0761CC6EBC60101EBAF
:105600004611606800EBC1008068C5EBC50202EB83
:105610004512616801EBC2018968884223D1C6EB5B
:10562000C60101EB4611606800EBC100C068C5EB24
:10563000C50202EB4512616801EBC201C9688842EC
:1056400011D1C6EBC60101EB4611606800EBC10049
:105650000069C5EBC50202EB4512616801EBC201AE
:105660000969884201D0AE42C6DBAE423BDAC6EBE6
:10567000C60101EB4611606800EBC10090F8FC0028
:10568000C5EBC50202EB4512616801EBC20181F86E
:10569000FC00C6EBC60101EB4611606800EBC100DF
:1056A00090F8FD00C5EBC50202EB4512616801EB05
:1056B000C20181F8FD00C6EBC60101EB461160682E
:1056C00000EBC10090F8FE00C5EBC50202EB4512ED
:1056D000616801EBC20181F8FE00C6EBC60101EB77
:1056E0004611606800E0F7E000EBC10090F8FF10A1
:1056F000C5EBC50202EB4512606800EBC20080F802
:10570000FF10C6EBC60101EB4611606800EBC1005B
:1057100090F80201002810DD0120C5EBC50202EB64
:105720004512616801EBC20181F80201606890F8DE
:105730000201401C616881F80201C6EBC60101EB61
:105740004611606800EBC100B0F80001C5EBC5026E
:1057500002EB4512616801EBC201A1F80001C5EB43
:10576000C50101EB4511606800EBC100B0F8000114
:105770006168B1F80011084400B26168A1F8000145
:10578000C6EBC60303EB4613626802EBC30202F5E5
:105790008671C5EBC50303EB4513626802EBC302D8
:1057A00002F586702922FAF06EFC002742E0C6EB73
:1057B000C60101EB4611606800EBC100313000EB1F
:1057C000C7000188C5EBC50202EB4512606800EB1B
:1057D000C200313000EBC7000180C6EBC60101EB0F
:1057E0004611606800EBC100313000EBC700418812
:1057F000C5EBC50202EB4512606800EBC200313018
:1058000000EBC7004180C6EBC60101EB46116068A2
:1058100000EBC100313000EBC7004168C5EBC502A9
:1058200002EB4512606800EBC200313000EBC700AC
:1058300041607F1C082FBADBC6EBC60101EB4611A5
:10584000606800EBC10090F8B900C5EBC50202EB3F
:105850004512616801EBC20181F8B900C6EBC601CF
:1058600001EB4611606800EBC10090F8BA00C5EB8F
:10587000C50202EB4512616801EBC20181F8BA0072
:10588000C6EBC60101EB4611606800EBC10090F861
:10589000BB00C5EBC50202EB4512616801EBC2011A
:1058A00081F8BB00C6EBC60101EB4611606800EB56
:1058B000C10090F8BC00C5EBC50202EB451261685F
:1058C00001EBC20181F8BC003246294603A0FEF775
:1058D0008DF90120BDE8F0810020FBE7436F70796E
:1058E0002053494920736C617665202564206672D7
:1058F0006F6D2025642E0D0A00000000FEB50546E0
:105900000C4617465D4B02222146284601F018FB43
:10591000C4EBC40101EB4411686830F83130C4EBCA
:10592000C40101EB441100EBC1008288214654A060
:10593000FEF75CF9C4EBC40101EB4411686800EBAD
:10594000C100D0F8080150B1C4EBC40202EB44120C
:10595000686800EBC200D0F8081120468847C4EB05
:10596000C40101EB4411686800EBC100B0F8F60017
:10597000002869D102900190C4EBC40101EB4411ED
:10598000686800EBC10090F8C60000F0040010B396
:105990000026C4EBC40101EB4411686800EBC100B0
:1059A00090F8FC0000F0200040B102A801AB3A469C
:1059B00021460090284600F01BFE064636B902AB91
:1059C00001AA2146284600F127F8064636A0DDE95F
:1059D0000112FEF70BF90298A8BB019898BBC4EB23
:1059E000C40101EB4411686800EBC10090F8C600E7
:1059F00000F0100038B302AB01AA2146284600F09F
:105A0000B9FC06460199C81DC11700EB5171C1F3DD
:105A1000CF02C4EBC40303EB4413696801EBC30179
:105A2000A1F843200299C81DC11700EB5171C1F3C1
:105A3000CF02C4EBC40303EB4413696801EBC30159
:105A4000A1F84B2001E005E016E01EA0DDE90112FF
:105A5000FEF7CCF80198C4EBC40202EB441269686B
:105A600001EBC20108830298C4EBC40202EB4412AA
:105A7000696801EBC201C8840120FEBD80841E005C
:105A8000203E536C6176652025642C20636F6E6622
:105A900069676164722025782C20737461746520B5
:105AA00025322E32780D0A002020436F45204F7397
:105AB000697A653A2564204973697A653A25640DE7
:105AC0000A0000002020536F45204F73697A653A21
:105AD0002564204973697A653A25640D0A0000003F
