:020000040800F2
:10000000B82202240100100885221008F3201008ED
:100010005D2A0008B90210085D2A100800000000DF
:10002000000000000000000000000000DD2A0008C1
:100030001D0800080000000081231008DF2A0008C6
:100040001B0010081B0010081B0010081B001008E4
:100050001B0010081B0010081B0010081B001008D4
:100060001B0010081B0010081B0010081B001008C4
:100070001B0010081B0010081B0010081B001008B4
:100080001B0010081B0010081B0010081B001008A4
:100090001B0010081B0010081B0010081B00100894
:1000A0001B001008C52610081B0010081B001008B4
:1000B0001B0010081B0010081B0010081B00100874
:1000C0001B0010081B0010081B0010081B00100864
:1000D0001B001008112A10081B0010081B00100834
:1000E000ED0810081B001008000000001B0010089D
:1000F0001B0010081B0010081B0010081B00100834
:100100001B0010081B0010081B0010081B00100823
:100110001B0010081B0010081B0010081B00100813
:100120001B0010081B0010081B0010081B00100803
:100130001B001008810800081B0010081B00100895
:1001400000000000000000000000000000000000AF
:100150001B0010081B0010081B0010081B001008D3
:100160001B0010081B0010081B0010081B001008C3
:100170001B0010081B0010081B00100800000000E6
:100180001B0010081B0010081B0010081B001008A3
:100190001B0010081B0010081B0010081B00100893
:1001A0001B0010081B0010081B0010081B00100883
:1001B0001B0010081B0010081B0010081B00100873
:1001C0001B0010081B0010081B0010081B00100863
:1001D0001B0010081B0010081B0010081B00100853
:1001E0001B0010081B0010081B0010081B00100843
:1001F0001B0010081B0010081B0010081B00100833
:100200001B0010081B0010081B0010081B00100822
:100210001B0010081B0010081B0010081B00100812
:100220001B0010081B0010081B0010080000000035
:100230001B0010081B001008000000001B00100825
:100240001B0010081B0010081B0010081B001008E2
:100250001B0010081B0010081B0010081B001008D2
:100260001B0010081B0010081B0010081B001008C2
:100270001B0010081B0010081B00100800000000E5
:100280001B001008000000001B0010080000000008
:10029000000000001B001008DFF810D000F0E0F9AB
:1002A00000480047C96E0008AFF30080B82202245E
:1002B0002DE9F05F0546002092469B46884606469B
:1002C000814640241BE02846414647462246FFF02F
:1002D000F9FE53465A46C01A914110D311461846AA
:1002E000224600F047F82D1A67EB01084F462246D8
:1002F0000120002100F03EF817EB00094E41201EBE
:10030000A4F10104DFDC484631462A464346BDE8F5
:10031000F09FD2B201E000F8012B491EFBD27047DA
:100320000022F6E710B513460A4604461946FFF7C1
:10033000F0FF204610BD034611F8012B00F8012BF9
:10034000002AF9D11846704730B50B460146002007
:100350002022012409E021FA02F59D4205D303FA87
:1003600002F5491B04FA02F52844151EA2F1010208
:10037000F1DC30BD202A04DB203A00FA02F1002033
:1003800070479140C2F1200320FA03F319439040D3
:1003900070472DE9F04791460F46804604460026F7
:1003A00014F8015B2DB1FFF027FF0068405DC00726
:1003B000F6D12B2D02D02D2D18D0641E4A46394679
:1003C000204600F071F927B13968A14201D1C7F880
:1003D000008071054FF002040BD54042002803DD78
:1003E00003F028FA0460A007BDE8F08746F48066B1
:1003F000E4E70028F8DA03F01DFA04606FF000402B
:10040000F2E72DE9FE4F804681EA0300C00F0C465B
:10041000009021F0004123F00045B8EB0200A94113
:1004200005D24046214690461C460B46024623F024
:100430000040104347D0270DC7F30A00C3F30A5109
:100440000290401A019040286BDAC3F3130040F485
:10045000801B0098924620B10023D2EB030A63EB85
:100460000B0B01985946C0F140025046FFF782FF3E
:1004700006460D4650465946019A00F003F910EB26
:1004800008006141002487EA115284EAE7731A43A5
:1004900040D0009A62B3019A012A4FEA075215DC54
:1004A000001B61EB02014FF0004202EA0752CDE966
:1004B0000042001C41F5801132462B4600F052F9F3
:1004C00003B0BDE8F08F40462146F9E7001B61EB21
:1004D0000201001C41F5801300185B412018A2F5B1
:1004E000001747EB030140EAD570B6196D4111E0E2
:1004F0006D084FEA360645EAC0754FEA0752001B01
:1005000061EB0201001C41F5801149084FEA3000FF
:100510000019514132462B4603B0BDE8F04F00F0C0
:1005200012B90098012240000023D0EB020263EBD5
:10053000E073009821464FEAE074B8EB000061EBED
:100540000401E9E783F000435BE781F0004158E7ED
:100550002DE9F04D81EA030404F0004B21F0004541
:1005600014464FF0000A23F0004150EA050220D063
:1005700054EA01021DD0C5F30A570246C5F313031E
:10058000C1F31300C1F30A5640F4801543F48013FD
:10059000A7EB0608101BD64608F2FD3873EB0500E2
:1005A00002D308F1010801E092185B41B8F1000F95
:1005B00003DA00200146BDE8F08D00204FF48011E1
:1005C000064684460EE0171B73EB050705D3121B86
:1005D00063EB050306434CEA010C49084FEA30007F
:1005E00092185B4150EA0107EDD152EA030012D0A4
:1005F00082EA040083EA0501084305D0101BAB41E1
:1006000006D20122002306E000224FF0004302E060
:100610006FF0010253101AEB06004CEB085110EB7F
:100620000A0041EB0B01BDE8F04D00F08CB8000072
:1006300030B5041E71F1000404DB4FF00044404269
:1006400064EB0101141E73F1000405DB1C464FF03E
:100650000043524263EB0403994208BF904230BD0D
:10066000064C074D06E0E06840F0010394E80700FF
:1006700098471034AC42F6D3FFF712FEFC72000824
:100680001C730008202A06DBCB17203A41FA02F03F
:1006900043EAE07306E041FA02F3D040C2F12002DF
:1006A00091400843194670472DE9F05F8246007873
:1006B000002715468B460AF10104B946302801D0BF
:1006C0009DB113E014F8010B0127782803D05828B6
:1006D00001D045B10AE00DB1102D07D1002710253A
:1006E00014F8010B02E0082500E00A250026B046B8
:1006F0000EE005FB080005FB06F1012701EB1046A3
:100700001FFA80F8B6F5803F00D3B94614F8010B04
:10071000294600F075F80028EBDABBF1000F05D090
:100720000FB1641E00E05446CBF80040B9F1000F51
:1007300006D003F07FF802210160C81EBDE8F09FDB
:1007400048EA0640FAE710B5141E73F1000408DA0F
:10075000401C41F1000192185B411A4301D120F085
:10076000010010BD2DE9F04D92469B4611B1B1FA42
:1007700081F202E0B0FA80F220329046FFF7FAFDF3
:1007800004460F4640EA0A0041EA0B0153465A4626
:10079000084313D0114653EA010019D0C8F14002B2
:1007A0005046FFF08FFC05460E46504659464246DD
:1007B000FFF7E0FD084305D0012004E0204639465C
:1007C000BDE8F08D0020054346EAE0762C43374330
:1007D0000A986305E40AA0EB08000022FD0A44EA37
:1007E00047540A3002D500200146E9E701051019F7
:1007F0006941DDE9084500196941BDE8F04DA2E70E
:100800003A2800D2303820F02002412A01D3A2F148
:100810003700884201D34FF0FF307047704710B562
:10082000002210E002EB4204036903EBC401002341
:100830000B604B608B60CB600B614B6100F12C0354
:1008400043F82210521C042AECD30024C46304642D
:100850004464C46484640324036803F58053C3F8C8
:100860003041036803F580530469C3F81C410369F0
:100870004833046804F58054C4F8283110BD0000E2
:1008800010B5024800F006FD10BD00000001002474
:1008900070B506463068D0F8004224F4706401F068
:1008A00045F805461348854205D31348854202D2D0
:1008B00044F400741AE01048854205D30F4885427D
:1008C00002D244F4407411E00C48854203D30C4832
:1008D000854200D20AE00A48854205D3094885428C
:1008E00002D244F4807401E044F480643068C0F8BB
:1008F000004270BD002D3101C00E16020087930327
:1009000000E1F50580D1F00810B50C688B68234331
:100910000C7943EAC4630C7B43EAC4534C7B43EA3F
:1009200084538C7B43EA4453CC7B43EA04530C7CD2
:100930000CB9012400E0002443EAC4434C7C0CB908
:10094000012400E0002443EA44438C7C43EA04434E
:100950004C6923438C6923430C7F43EA04334C7F67
:1009600043EAC4238C7F0CB9012400E0002443EA4D
:100970008423CC7F43EA442391F820400CB901241E
:1009800000E0002443EA042351F8244F23430C7968
:1009900043EA04138C6843EA040203681B683D4C75
:1009A00023401343046823600B7E5B060C7D43EAFF
:1009B00004630C7B43EA84434C7B43EA44438C7BD3
:1009C00024390CB9012400E0002443EA04434C6BB1
:1009D00043EA040203685B682F4C23401343046816
:1009E000636091F840404B6C43EA04220368DB6883
:1009F00040F20F14A34313430468E36091F854409A
:100A00000B6D43EA440391F84C400CB9012400E01B
:100A1000002443EAC41331F8484F43EA0442036810
:100A20001B6F4FF60D7423401343046823678B7BC1
:100A30004C7B43EA44020368D3F8903023F003036D
:100A400013430468C4F890300368D3F8003D23F0E2
:100A500072030C6923430468C4F8003D0C7E4B69A3
:100A600048390CB9012400E0002443EA841391F8CA
:100A7000614043EA041391F8624043EAC402036808
:100A8000D3F8303D23F07B0313430468C4F8303DB2
:100A900010BD0000838004000080F8C02DE9FC41F7
:100AA000002400250027A046ADA002F06FFF00281B
:100AB0007AD0AEA002F0A6FE012002F16FFC002861
:100AC00073DDB0480168B0A002F09CFEAD4800683C
:100AD000B2490860AB480068096888422AD10124FD
:100AE00023E0C4EBC40000EB4410AD4A02EBC000AD
:100AF00000F586712246ABA002F084FEC4EBC40070
:100B000000EB4410A64A02EBC00081882246ACA04C
:100B100002F078FEB148C4EBC40101EB4411A04AD5
:100B200002EBC101C1F80801641C9C4800688442C2
:100B3000D7DD06E0AAA002F065FE4FF0FF30BDE869
:100B4000FC8102F135FC64270BE09448006801F158
:100B5000D3FA0646012E00D107E03146A5A002F0E7
:100B600051FE381EA7F10107EFD100BF27B9012EB2
:100B700002D0A5A002F046FE01241CE0C4EBC40094
:100B800000EB4410864901EBC00090F8C900002832
:100B90000CDDA0B2A14BA24A012102F111FC2146B9
:100BA000A0A002F02FFE05E0D4E0CDE02146A2A0F7
:100BB00002F028FE641C794800688442DEDDA44807
:100BC00002F0ACFEA348406BA249096BCDE90010CE
:100BD000A048C36A826A818B9FA002F013FEA64AD6
:100BE0000421002002F144FC02F1FAFB00240BE096
:100BF000C4EBC40000EB4410694931F830202146B1
:100C00009EA002F0FFFD641C644800688442EFDD92
:100C1000A0A002F0F7FD8F48818C408C01EB4000D2
:100C2000A749086008460168A6A002F0EBFD02F0A3
:100C3000C4FE4FF4FA6002F0B9FE002002F0C2FEDA
:100C4000C82000F0B1FA4FF47A7700BF002408E022
:100C50000820C4EBC40101EB4411514A22F83100D1
:100C6000641C4E4800688442F2DD002403E0A0B218
:100C700002F0A8FE641C494800688442F7DD0024A5
:100C80000BE0C4EBC40000EB4410454931F83020C0
:100C900021467AA002F0B6FD641C404800688442F8
:100CA000EFDD4FF0010800240BE0C4EBC40000EBC3
:100CB00044103B4931F83000082801D04FF00008BB
:100CC000641C364800688442EFDDB8F1000F00D0A4
:100CD00003E0381EA7F10107B8D100BF30480088F3
:100CE00008282BD1012518E0C5EBC50000EB451005
:100CF0002B4901EBC000016A681E794A42F82010B6
:100D0000C5EBC50000EB4510254901EBC000C16AE9
:100D1000681E744A42F820106D1C20480068854205
:100D2000E2DD012070490870002201216F4800F0C7
:100D300029FD6FA002F066FD012000E772A002F01D
:100D400061FD6FF00100FAE672A002F05BFD6FF04A
:100D50000200F4E674A002F055FD6FF00300EEE629
:100D6000536572766F4472697665000065635F69EA
:100D70006E6974207375636365656465642E0D0A1E
:100D80000000000030000024256420736C6176654B
:100D90007320666F756E640D0A00000098000024D1
:100DA000B8020024466F756E64202573206174209C
:100DB000706F736974696F6E2025640D0A000000FE
:100DC000466F756E6420257820617420706F73699A
:100DD00074696F6E2025640D0A000000E924100874
:100DE000536C617665206E756D206572726F72212D
:100DF0000D0A0000256420736C617665206E6F74A7
:100E00002073796E630D0A00536C617665207379E7
:100E10006E63206661696C65640D0A00E0930400EE
:100E200040420F00536C6176652025642068617331
:100E30002044430D0A000000536C61766520256450
:100E400020686173206E6F742044430D0A00000017
:100E5000B8F10124B89E00247365676D656E7473E4
:100E6000203A202564203A2025642025642025642A
:100E70002025640D0A00000080841E00536C6176FA
:100E8000652025642053746174653D3078253034C5
:100E9000780D0A0052657175657374206F70657204
:100EA0006174696F6E616C20737461746520666F24
:100EB0007220616C6C20736C617665730D0A0000A2
:100EC000A000002443616C63756C617465642077D5
:100ED0006F726B636F756E7465722025640D0A0006
:100EE000B8EF012438F001249C00002400100258BF
:100EF000416C6C20736C6176657320656E746572ED
:100F0000204F50210D0A00004F50204572726F7221
:100F1000210D0A004E6F20736C6176657320666F39
:100F2000756E64210D0A000065635F696E69742047
:100F30006661696C65640D0A0000000072B600BF4E
:100F4000FEE7014601F04F00402801D10120704723
:100F500001F06F00212801D10220F8E701F06F00B5
:100F6000232801D10320F2E701F06F00272801D1E7
:100F70000420ECE701F06F00072801D10520E6E727
:100F800001F04F000F2801D10620E0E701F04F00EB
:100F9000082801D10720DAE70020D8E701480068D7
:100FA000704700002404004038B5002000906B46D4
:100FB00001223B4801683B4800F14FF8044614B158
:100FC0006FF0040038BD6B46012235480168354892
:100FD00000F143F8044614B16FF00400F2E7009802
:100FE00000F0040008B90120ECE76B4600222C4811
:100FF00001682C4800F131F8044614B16FF0040088
:10100000E0E7009800F48050B0F5805F1FD00098B2
:1010100000F40050B0F5005F07D1009800F4807034
:10102000B0F5807F01D10220CCE7009800F4005099
:10103000B0F5005F01D10320C4E7009800F4807090
:10104000B0F5807F01D10420BCE70520BAE76B46EC
:101050001F22134801681348FFF0FFFF044614B134
:101060006FF00400AEE7009800F4805008B9062045
:10107000A8E7009800F01C00182801D10220A1E781
:10108000009800F01C00082801D103209AE700987E
:1010900000F01C00142801D1042093E7052091E7FB
:1010A000B0000024000100244FF08040406A7047E7
:1010B00010B504460CB9012010BD94F83500022883
:1010C00003D0802060650120F6E73449206888421B
:1010D00005D333492068884201D8012000E0002070
:1010E000C0B1042084F835002C49206888420AD316
:1010F0002B492068884206D82068006820F001004B
:101100002168086048E02068006820F0010021683C
:10111000086041E02068006820F00E002168086047
:101120001E49206888420AD31D492068884206D893
:101130002068006820F001002168086005E0206850
:10114000006820F0010021680860206E006820F42B
:101150008070216E086094F85C100120884011496D
:101160000860D4E919104860E06E40B1E06E006894
:1011700020F48070E16E0860D4E91C10486000BF64
:10118000002084F8340000BF012084F83500206D71
:1011900010B12046216D884700208DE710000240E5
:1011A000B80402400454025870B5044600F15EF8D9
:1011B00006462546681C10B104480078054400BF67
:1011C00000F154F8801BA842FAD370BD200000241F
:1011D00070B5054605F12C02536952F82310966943
:1011E000906908B9012070BDD06900B1761C002457
:1011F00023E0086908604FF08070C860486928B132
:1012000048698860C86840F00070C860C86840F0ED
:101210000040C860106A18B1C86840F08040C860DB
:101220009069401EA04207D900BF5B1C042B00D36D
:101230001B1F00BF52F82310641CB442D9D3286886
:1012400000F58050C0F828110020906100BFCAE767
:10125000704730B504460D4604F12C0050F82510B7
:101260000AB1042D02D30120606530BD0A600A6115
:10127000C86840F08070C8602BB18B604B61C86853
:1012800040F00070C860C86840F00040C8600020AE
:10129000EBE7000010B50446206800F58050D0F858
:1012A000600100F04000402817D1206800F5805010
:1012B000D0F8340100F0400040280ED12046FFF065
:1012C000BBFD012802D12046FFF003FF48F2400198
:1012D000206800F58050C0F86011206800F580504B
:1012E000D0F8600100F0010088B1206800F580505E
:1012F000D0F8340100F0010048B12046FFF05CFF57
:1013000048F20101206800F58050C0F860112068A3
:1013100000F58050D0F8600100F48040B0F5804FB7
:101320004DD1206800F58050D0F8340100F48040A1
:10133000B0F5804F43D1606D40F0080060652068D3
:1013400000F58050D0F8600100F48050B0F5805F67
:101350001DD1206800F58050D0F8600141F20211E3
:101360000840884201D1012000E00020A0652068EB
:1013700000F58050D0F8340120F44041206800F599
:101380008050C0F83411E02084F8510014E0206847
:1013900000F58050D0F8600100F4CD40B0F5CD4F9D
:1013A00001D1012000E00020A0654FF4CD4120686C
:1013B00000F58050C0F860112046FFF749FF206813
:1013C000D0F8B00000F4C040B0F5C04F0BD1206899
:1013D000D0F8B800E065E02084F85100204600F025
:1013E00035F80020E0652068D0F8B00000F010006B
:1013F00010280AD12068D0F8C00000F060002066F4
:101400002046FFF029FE002020662068D0F8B000BA
:1014100000F0200020280AD12068D0F8C00000F099
:101420000F0060662046FFF0A3FA002060660648C1
:10143000006800F4800030B14FF480000249086079
:10144000204600F078F810BDA8000058704770B52D
:1014500004460D460DB9012070BD94F852001028C5
:1014600005D129462046FFF74FFA0020F4E7012076
:10147000F2E7000010B5024609B9012010BD087856
:10148000CC7840EA44000C7940EA84000C7A40EAC7
:10149000C4004C7940EA04104C7A0CB9012400E0F5
:1014A000002440EA4410CC7940EA04208C7940EAD8
:1014B00044208C7840EA84204C7840EAC470CC68A0
:1014C00040EA040310688068034C20401843146805
:1014D000A0600020D2E7000000F8FF7F70B504464E
:1014E0000D460DB9012070BD94F85100102820D18F
:1014F000012229462046FEF0FFFF18B10220606558
:101500000120F0E700BFA06A401CA062A06A042886
:1015100002D3A06A001FA06200BF04F11800A16AF4
:1015200050F82110206800F58050C0F820110020EC
:10153000D9E70120D7E77047F8B502460B460021EE
:10154000002600240020824D00BFFCE0012707FA9E
:1015500001F61F6807EA0604B4427CD15F68022FD7
:1015600002D05F68122F1AD14FEAD10C02F1200786
:1015700057F82C004F074FEAD76C0F2707FA0CF7E4
:10158000B8434FEA417C4FEADC6C1F6907FA0CF75D
:1015900038434FEAD10C02F1200747F82C001068BD
:1015A0004FEA410C032707FA0CF7B8431F7907F0FD
:1015B00003074FEA410C07FA0CF7384310605F68E5
:1015C000012F08D05F68022F05D05F68112F02D06D
:1015D0005F68122F17D190684FEA410C032707FA72
:1015E0000CF7B8434FEA410CDF6807FA0CF73843B1
:1015F0009060506801278F40B8431F79C7F30017E8
:101600008F4038435060D0684FEA410C032707FAF7
:101610000CF7B8434FEA410C9F6807FA0CF73843C0
:10162000D0605F6807F08057B7F1805F95D100BF49
:10163000484F3F6847F00207DFF818C1CCF8007048
:1016400067463F6807F00207009700BF00BF424FA0
:101650004FEA910C00E075E057F82C008F074FEA35
:10166000177C0F2707FA0CF7B8433C4FBA4201D159
:1016700000272DE03A4FBA4201D1012728E0394F27
:10168000BA4201D1022723E0374FBA4201D10327E2
:101690001EE0364FBA4201D1042719E0344FBA4256
:1016A00001D1052714E0334FBA4201D106270FE0DC
:1016B000314FBA4201D107270AE0304FBA4201D177
:1016C000082705E02E4FBA4201D1092700E00A277A
:1016D0004FEA817C4FEA1C7C07FA0CF738431E4F17
:1016E0004FEA910C47F82C002868A0435F6807F484
:1016F0008037B7F5803F00D1204328606868A04359
:101700005F6807F40037B7F5003F00D120436860F9
:101710004FF0B0473868A0435F6807F48017B7F50B
:10172000801F00D120434FF0B04738607868A04355
:101730005F6807F40017B7F5001F00D120434FF092
:10174000B0477860491C1029FFF400AFF8BD0000D5
:1017500080000058F4440258080400580000025861
:101760000004025800080258000C025800100258E9
:101770000014025800180258001C02580020025899
:10178000002402580AB1018300E041837047000041
:101790000348006803490978084401490860704714
:1017A000180000242000002410B50320FFF0CEFD17
:1017B000002000F007F808B1012010BDFFF08AFDFD
:1017C0000020FAE770B504460E4800784FF47A71AD
:1017D000B1FBF0F00C490968B1FBF0F5284600F0C8
:1017E0006BFD08B1012070BD102C07D200222146EC
:1017F000501E00F053F80548046001E00120F2E7B4
:101800000020F0E720000024240000241C00002415
:1018100000BF00BF00BFBFF35F8F00BF00BF00BFAE
:101820000548006820F48030034908600020024920
:10183000703108607047000024ED00E040F00101C5
:101840000D4A11600C497039096841F480310A4A27
:10185000703A116000BF00BF00BFBFF34F8F00BFE1
:1018600000BF00BF00BF00BF00BFBFF36F8F00BF4E
:1018700000BF00BF7047000094ED00E0014608463D
:10188000002809DB00F01F0301229A4043099B0056
:1018900003F1E023C3F8002100BF70472DE9F05F9A
:1018A00080460D46164601F0BDFF074639462A46DA
:1018B000334601F00700C0F1070ABAF1040F02D95C
:1018C0004FF0040A01E0C0F1070AD14600F1040A12
:1018D000BAF1070F02D24FF0000A01E0A0F1030AAB
:1018E000D4464FF0010A0AFA09FAAAF1010A0AEAF3
:1018F000020A0AFA0CFA4FF0010B0BFA0CFBABF1DF
:10190000010B0BEA030B4AEA0B042146404601F1A6
:10191000BBF8BDE8F09F70470348006840F4002022
:1019200001490860704700000044025810B5FFF0FC
:1019300021FD0949096801F00F01012292FAA2F282
:10194000B2FA82F2D140054A515CC84004490860AD
:101950000846006810BD000018440258587100087D
:101960002800002410B5FFF7E1FF0749096801F4DA
:10197000E0614FF4807292FAA2F2B2FA82F2D140A0
:10198000024A515CC84010BD1C44025858710008FE
:1019900070B5012500EE905A002201210023002499
:1019A000DFED861AB0EE610ADFED841AB0EE611A3F
:1019B0000020834D2D6805F0380535B1082D15D070
:1019C000102D15D0182D7CD114E07D4D103D2D68C3
:1019D000C5F3401545B17A4D103D2D68C5F3C106DC
:1019E000784D25FA06F000E07648E5E07648E3E039
:1019F0007648E1E0724D18352D6805F00302704D10
:101A000018352D68C5F305116D4D1C352D6805F091
:101A100001036B4D24352D68C5F3CC0515FB03F58B
:101A200001EE905AF8EE611AB0EE610A22B1012A75
:101A30004FD0022A7DD16BE0614D103D2D68C5F37A
:101A400040152DB35E4D103D2D68C5F3C1065D4DAB
:101A500025FA06F4B4FBF1F501EE905AB8EE612ACE
:101A6000DFED5B1AC0EE212A554D20352D68C5F3F8
:101A7000080501EE905AF8EE611A72EEA11AF7EE1F
:101A8000002A71EEA21A62EE211AB0EE611A1FE06E
:101A90004C4DB5FBF1F501EE905AB8EE612ADFED41
:101AA0004C1AC0EE212A464D20352D68C5F3080595
:101AB00001EE905AF8EE611A72EEA11AF7EE002AC2
:101AC00000E077E071EEA21A62EE211AB0EE611A20
:101AD0005EE03D4DB5FBF1F501EE905AB8EE612A9E
:101AE000DFED3B1AC0EE212A354D20352D68C5F3B8
:101AF000080501EE905AF8EE611A72EEA11AF7EE9F
:101B0000002A71EEA21A62EE211AB0EE611A3FE0CD
:101B10002E4DB5FBF1F501EE905AB8EE612ADFEDDE
:101B20002C1AC0EE212A264D20352D68C5F3080554
:101B300000E00EE001EE905AF8EE611A72EEA11A82
:101B4000F7EE002A71EEA21A62EE211AB0EE611AC7
:101B50001EE01D4DB5FBF1F501EE905AF8EE612A3D
:101B6000DFED1B1A80EE212A154D20352D68C5F3B7
:101B7000080501EE905AF8EE611A72EE211AB7EEDE
:101B8000002A71EE821A62EEA11AB0EE611A00BF4D
:101B900000BF0B4D20352D68C5F346256D1C00EEAA
:101BA000905AF8EE601A81EE212AFCEEC21A11EE6C
:101BB000900A01E0044800BF00BF70BD00000000B3
:101BC000104402580090D00300093D0040787D0188
:101BD0000000004670B504460025207800F00100A2
:101BE000002870D0F748006800F0380010280CD0AA
:101BF000F448006800F03800182812D1F148183075
:101C0000006800F0030002280BD1EE48103800688D
:101C1000C0F34040002869D06068002866D10120E8
:101C200070BD00BF6068B0F5803F08D1E54810384E
:101C3000006840F48030E349103908602EE06068A5
:101C400068B9E0481038006820F48030DD49103968
:101C500008600846006820F4802008601EE0606884
:101C6000B0F5A02F0DD1D7481038006840F480207F
:101C7000D449103908600846006840F48030086094
:101C80000CE0D0481038006820F48030CD4910397D
:101C900008600846006820F48020086000BF606883
:101CA00090B1FFF0E3FA054606E0FFF0DFFA401BD3
:101CB000642801D90320B3E7C24810380068C0F394
:101CC00040400028F1D011E0FFF0D0FA054606E0D0
:101CD000FFF0CCFA401B642801D90320A0E7B948E3
:101CE00010380068C0F340400028F1D1207800F09F
:101CF0000200022847D1B348006800F0380058B10C
:101D0000B048006800F0380018283ED1AD481830BF
:101D1000006800F00300B8BBAA4810380068C0F3A0
:101D2000800018B1E06808B9012079E7A5481038AB
:101D3000006820F01900E1680843A24910390860E2
:101D4000FFF094FA054606E0FFF090FA401B0228E7
:101D500001D9032064E79B4810380068C0F3800075
:101D60000028F1D097480C38006820F47C304FF4FC
:101D70007C3292FAA2F2B2FA82F2216991400843CF
:101D800090490C3908604AE0FFE7E06868B38D4885
:101D90001038006820F01900E168084389491039BB
:101DA0000860FFF063FA054606E0FFF05FFA401BAB
:101DB000022801D9032033E7824810380068C0F3B5
:101DC00080000028F1D07F480C38006820F47C3077
:101DD0004FF47C3292FAA2F2B2FA82F22169914077
:101DE000084378490C39086019E0764810380068D3
:101DF00020F00100734910390860FFF037FA0546FA
:101E000006E0FFF033FA401B022801D9032007E760
:101E10006C4810380068C0F380000028F1D12078A9
:101E200000F01000102877D16648006800F03800F4
:101E300008280CD06348006800F03800182823D127
:101E400060481830006800F0030001281CD15D488C
:101E500010380068C0F3002020B1E069802801D06C
:101E60000120DDE657480C38006820F0F8404FF0BC
:101E7000F84292FAA2F2B2FA82F2216A9140084341
:101E800050490C39086047E0E06958B34D481038B4
:101E9000006840F080004B4910390860FFF0E6F917
:101EA000054606E0FFF0E2F9401B022801D90320B5
:101EB000B6E6444810380068C0F300200028F1D08E
:101EC00040480C38006820F0F8404FF0F84292FA91
:101ED000A2F2B2FA82F2216A9140084339490C39E0
:101EE000086019E037481038006820F08000354954
:101EF00010390860FFF0BAF9054606E0FFF0B6F9C0
:101F0000401B022801D903208AE62E4810380068B9
:101F1000C0F300200028F1D1207800F00800082844
:101F200036D16069D0B127486430006840F00100C4
:101F3000244964310860FFF099F9054606E0FFF096
:101F400095F9401B022801D9032069E61D48643039
:101F50000068C0F340000028F1D019E0194864304F
:101F6000006820F00100174964310860FFF07EF935
:101F7000054606E0FFF07AF9401B022801D903204C
:101F80004EE6104864300068C0F340000028F1D1EC
:101F9000207800F02000202834D1A069D8B1094869
:101FA0001038006840F48050064910390860FFF08E
:101FB0005DF9054608E0FFF059F9401B022803D9F6
:101FC00003202DE610440258AF480068C0F34030AB
:101FD0000028F0D016E0AC48006820F48050AA49F0
:101FE0000860FFF043F9054606E0FFF03FF9401BAB
:101FF000022801D9032013E6A3480068C0F340304B
:102000000028F2D1207800F0040004287DD19F48F8
:10201000006840F480709D490860FFF027F905468C
:1020200006E0FFF023F9401B642801D90320F7E5FF
:102030009648006800F480700028F2D000BFA068C5
:10204000012808D190487030006840F001008E49A6
:10205000703108602DE0A06868B98B487030006866
:1020600020F001008849703108600846006820F0BF
:10207000040008601DE0A06805280DD1824870307A
:10208000006840F00400804970310860084600682C
:1020900040F0010008600CE07B487030006820F0E0
:1020A00001007949703108600846006820F004009A
:1020B000086000BFA068A0B1FFF0D8F8054608E0AE
:1020C000FFF0D4F8401B41F28831884201D9032047
:1020D000A6E56D4870300068C0F340000028EFD0DE
:1020E00013E0FFF0C3F8054608E0FFF0BFF8401B1F
:1020F00041F28831884201D9032091E5624870306D
:102100000068C0F340000028EFD1606A00287CD04E
:102110005D481030006800F03800182876D0606AFA
:10212000022874D15848006820F080705649086031
:10213000FFF09CF8054606E0FFF098F8401B0228E7
:1021400001D903206CE550480068C0F340600028C6
:10215000F2D100BFD4E90A1041EA00104A492831FF
:10216000096840F2F3329143084347492831086037
:10217000208E401EC0F30800616B491E4FF47E4262
:1021800002EA41210843218F491ED20102EA01419E
:1021900008433C21095D491E120202EA016108431D
:1021A00039493031086000BF081D00684FF6F871EA
:1021B00088434FF6F87292FAA2F2B2FA82F2A16C58
:1021C000914008433049343108602F482C30006872
:1021D00020F00C00216C08432B492C310860084684
:1021E000006820F00200616C084327492C31086028
:1021F0000846006840F4803008600846006840F4F3
:10220000003008600846006802E03BE038E01FE06C
:1022100040F4802008600846006840F00100086033
:102220001948006840F0807017490860FFF01EF8F8
:10223000054606E0FFF01AF8401B022801D90320EA
:10224000EEE411480068C0F340600028F2D019E0C5
:102250000D48006820F080700B490860FFF006F818
:10226000054606E0FFF002F8401B022801D90320D2
:10227000D6E405480068C0F340600028F2D101E0D0
:102280000120CDE40020CBE400440258004802586D
:10229000042808D14FF0E021096941F004014FF012
:1022A000E022116107E04FF0E021096921F004010B
:1022B0004FF0E0221161704770B504462546681E54
:1022C000B0F1807F01D301200FE0681E4FF0E021C4
:1022D00048610F214FF0FF3000F1D6FB00204FF096
:1022E000E021886107200861002070BD10B5FFF073
:1022F000F9FB10BD70470146022081F83D000868D7
:10230000008840F001000A681080012081F83D003B
:10231000002070477047704710B504460349206895
:10232000884201D1FEF0E8FA10BD00000000014033
:1023300070B504460D4600BF94F83C00012801D159
:10234000022070BD012084F83C0000BF022084F808
:102350003D002946204600F097FC2068C06820F028
:1023600040002168C8602068C06820F4804021686F
:10237000C860012084F83D0000BF002084F83C00C4
:1023800000BF00BFDDE700002DE9F04104462068F2
:10239000C569206807682068866805F00F08B8F1ED
:1023A000000F0DD105F0200050B107F0200010B94A
:1023B00006F0805020B1204600F1A4FABDE8F0817B
:1023C000B8F1000F72D05D48304018B907F4907032
:1023D00000287AD005F0010048B107F4807030B1D0
:1023E000012021680862E06F40F00100E06705F01D
:1023F000020048B106F0010030B1022021680862F5
:10240000E06F40F00400E06705F0040048B106F01A
:10241000010030B1042021680862E06F40F0020042
:10242000E06705F0080078B107F0200028B906F051
:10243000805010B906F0010030B108202168086210
:10244000E06F40F00800E067E06F70B305F0200037
:1024500040B107F0200010B906F0805010B12046BE
:1024600000F150FAE06F00F0080020B920688068A1
:1024700000F0400018B3204600F0ACFC20688068F3
:1024800000F04000B8B12068806820F0400021686A
:102490008860606F58B12A48616F0865606FFEF709
:1024A00007FE10B1606F016D88470DE00DE020461A
:1024B000FFF043FD08E02046FFF03FFD04E020462A
:1024C000FFF03BFD0020E06778E705F4801078B16D
:1024D00006F4800060B14FF480102168086220206B
:1024E00084F8790084F87A002046FFF025FD65E73E
:1024F00005F0800048B107F0800010B906F4000034
:1025000018B1204600F143FA58E705F0400030B119
:1025100007F0400018B1204600F1E4F94EE705F459
:10252000000040B107F0804028B12068006820F02A
:1025300080402168086000BF40E7000001000010F3
:10254000CD28100810B504460CB9012010BDA069B3
:1025500000B100E000BF94F8790028B9002084F8A9
:1025600078002046FFF0EAFC242084F879002068F7
:10257000006820F0010021680860204600F03AFC65
:10258000012800D1E2E7606B10B1204600F129F983
:102590002068406820F49040216848602068806886
:1025A00020F02A00216888602068006840F001005F
:1025B00021680860204600F0D3FBC7E710B503464A
:1025C00093F87A00202867D101B10AB9012010BD23
:1025D00000BF93F87800012801D10220F7E701201D
:1025E00083F8780000BF5966A3F86820A3F86A2032
:1025F00000BF9868B0F5805F0AD1186920B940F231
:10260000FF10A3F86C001CE0FF20A3F86C0018E09A
:10261000986848B9186918B9FF20A3F86C0010E051
:102620007F20A3F86C000CE09868B0F1805F08D1BF
:10263000186918B97F20A3F86C0002E03F20A3F8C6
:102640006C0000BF0020D867222083F87A0000BF0A
:10265000002083F8780000BF1868806840F001000F
:102660001C68A0601868006800F0005060B118682D
:10267000006840F480701C6820601868806840F032
:1026800080501C68A06005E01868006840F49070F5
:102690001C68206000209AE7022098E7704700003D
:1026A0007CB5002001900025012400BF15E001AB9E
:1026B000122229463148FEF0D0FC04461CB130A05D
:1026C00001F0A0F808E0019800F01F00A84202D134
:1026D0002F48056003E000BF6D1C202DE7D900BF27
:1026E0002B4800681F2805D92AA001F08BF84FF06D
:1026F000FF307CBD4FF400430022254801681F488D
:10270000FEF060FD04462CB11DA001F07BF84FF0F7
:10271000FF30EEE700BF01AB00221D4801681748FB
:10272000FEF09BFC04462CB115A001F06BF84FF0B5
:10273000FF30DEE7019800F400400028EBD1009064
:102740006B460022124801680C48FEF086FC0446E5
:1027500014B10BA001F056F8009840F4805000909E
:1027600000220B48009B01680448FEF02BFD044644
:1027700014B10FA001F046F80020BAE700010024D0
:1027800052656164526567206572726F720D0A004E
:10279000B00000244D6174636820504859204164A2
:1027A0006472657373204661696C6564210D0A006B
:1027B0005374617274204175746F4E65676F206544
:1027C00072726F720D0A00001FB5FFF721F8012029
:1027D0008DF800001F48019007208DF808000320A5
:1027E0008DF80B0001208DF80F0000208DF80E00F1
:1027F0008DF80D008DF801008DF80A008DF80900A4
:102800008DF80C006846FEF037FD01208DF80000C1
:10281000114801900D208DF8080003208DF80B0061
:1028200000208DF80F0001208DF80E0000208DF89B
:102830000D0001208DF8010000208DF80A008DF8B0
:1028400009008DF80C006846FEF016FD0420FEF726
:10285000F5FF1FBD00000430004004301CB52048C7
:102860002049086001208DF8000000208DF801004B
:1028700045208DF8020019208DF8030003208DF803
:10288000040000208DF80500C1F804D0012115488E
:1028900001721549C160154901614FF4BF61416181
:1028A00000224FF400511248FEF76CFF3720FEF76C
:1028B0007BFC012251030E48FEF764FF3720FEF730
:1028C00073FC0848FEF00AFA0648FEF007FA18B949
:1028D00008A000F097FF02E00CA000F093FF1CBDE1
:1028E0000080024000010024600004300000043039
:1028F000000C02584D616320496E69742053756362
:102900006365737366756C6C790D0A004D616320A5
:10291000496E6974204661696C65640D0A000000A7
:1029200000B587B000BF3548006840F00400334967
:1029300008600846006800F00400019000BF00BF76
:1029400000BF0846006840F00100086008460068C3
:1029500000F00100019000BF00BF00BF0846006802
:1029600040F0020008600846006800F00200019094
:1029700000BF00BF142102A8FDF7D2FC00BF1F4812
:10298000006840F010001D4908600846006800F02B
:102990001000019000BF00BF00BF0846006840F073
:1029A000080008600846006800F00800019000BFB9
:1029B00000BF012203211248FEF7E4FE032002902B
:1029C00001200390002004900220059002A90C48E9
:1029D000FEF7B2FD012251030A48FEF7D3FE4FF481
:1029E00000500290012003900020049002200590E6
:1029F00002A90448FEF7A0FD07B000BDE04402585C
:102A000000100258000C025800B585B01048FFF0C5
:102A1000BBF810480E4908600020486000210C48AF
:102A200081600D49C1600021016180218161FFF059
:102A300091F8072000901020019000200290694634
:102A40000348FFF775FC0248FFF755FC05B000BDD1
:102A5000E80100240004004020A1070000BFFEE7B9
:102A600010B500231B4C236000BF00BF00BFBFF3A5
:102A70004F8F00BF00BF00BF231F1868C0F34E3147
:102A800000BFC0F3C90200BF43F6E07303EA41137D
:102A90004FF0404404EA827423430F4C236000BF8C
:102AA00000BF131EA2F10102EED10B1EA1F1010124
:102AB000E7D100BF00BF00BFBFF34F8F00BF00BF13
:102AC00000BF00BF00BF00BFBFF36F8F00BF00BFDC
:102AD00000BF10BD84ED00E074EF00E0704710B55A
:102AE000FEF756FEFFF702FC10BD000010B59CB0CB
:102AF0004C2109A8FDF714FC202101A8FDF710FCCA
:102B00003348006820F004003149086000BF00200D
:102B100000902F480C30006840F440402C490C31A4
:102B200008600846006800F44040009000BF00BF05
:102B300000BF27480C30006800F40050B0F5005F7B
:102B4000F7D12448006820F00300801C2149086068
:102B50000120099000040A90022012900221139192
:102B600005211491A0211591022116911791189118
:102B70000821199100211A911B9109A8FFF72AF841
:102B80003F20019003200290002003900820049031
:102B900040200590069000010790402008900221F7
:102BA00001A8FEF045FEFEF7B7FE0B4800684FF4A3
:102BB0007A71B0FBF1F42046FFF77EFB0420FFF7AB
:102BC00067FB01221146901EFEF768FE1CB010BD87
:102BD0000C48025828440258240000242048006869
:102BE00040F470001E4908601E48006840F0010073
:102BF0001C49086000201B49103108601948006812
:102C00001949084017490860002016491831086022
:102C1000091D0860091D0860124928310860091D56
:102C20000860091D0860091D0860091D0860091D6C
:102C30000860091D0860091D08600A48006820F442
:102C400080200849086000200649603108600120A2
:102C500006490860C00602498039086070470000D4
:102C600088ED00E0004402587FEDF6EA088100514B
:102C700030B50C460021816821F47F4142EA0325EA
:102C800025432943816030BD2DE9F04104460D46BE
:102C900000260027B04620688668244806406868F9
:102CA0000643234806402868064320688660686813
:102CB00000F00F01002935D10011082832D2DFE8D9
:102CC00000F02D2E2F300B212704D5E90313AA681D
:102CD0002068FFF7CDFF26E02068D0F8208020682C
:102CE000006A20F00100216808622068876927F0E7
:102CF000F007286947EA0017206887612068C0F854
:102D0000208010E02A69A9682068FFF055FD0AE0DC
:102D10002A69A968206800F00DF804E003E002E0E9
:102D200001E000E000BF00BFBDE8F0818FFFCFFFF2
:102D3000F8FFFEFF30B50B46144600210022056A5D
:102D400025F0100505628169026A21F4704141EAAB
:102D5000043122F0A00242EA03128161026230BD16
:102D600038B5044600250020E067FEF07FFA0546EE
:102D70002068006800F0080008280CD16FF07E4041
:102D80002B4600224FF400110090204600F004FD75
:102D900008B1032038BD2068006800F00400042852
:102DA0000CD16FF07E402B4600224FF48001009042
:102DB000204600F0F1FC08B10320EBE7202084F866
:102DC000790084F87A0000BF002084F8780000BF02
:102DD00000BFDFE70168096821F4907102681160A3
:102DE0000168896821F0010102689160202180F862
:102DF0007A1070472DE9F04F89B0044600254FF056
:102E00008008A946AA4600200890FA49206888420E
:102E100001D1012000E0002000B100E000BFA06A65
:102E2000B0F1005F00D100BF2169A068084361696B
:102E30000843E16940EA0105A06A0543206800688B
:102E4000ED4908402843216808602068406820F464
:102E50004050E168084321684860A569E549206859
:102E6000884201D1012000E0002008B9206A054312
:102E7000A06AB0F1005F03D1D4E90B010843054318
:102E800020688068DD490840284321688860206800
:102E9000C06A20F00F00616A08432168C86200BF61
:102EA000D7492068884224D1D648006800F038000D
:102EB000182814D005DC48B108280AD0102817D1EA
:102EC0000AE020280ED0282812D10EE04FF0010889
:102ED0000EE04FF004080BE04FF0400808E04FF020
:102EE000080805E04FF0100802E04FF0200800BF8E
:102EF00017E1C549206888421DD1C248006800F02A
:102F00000700062816D2DFE800F00306090C0F12AE
:102F10004FF000080EE04FF004080BE04FF04008BF
:102F200008E04FF0080805E04FF0100802E04FF00D
:102F3000200800BFF5E0B549206888421DD1B1489E
:102F4000006800F00700062816D2DFE800F003064C
:102F5000090C0F124FF000080EE04FF004080BE0D0
:102F60004FF0400808E04FF0080805E04FF0100867
:102F700002E04FF0200800BFD3E0A5492068884256
:102F80001DD1A048006800F00700062816D2DFE82F
:102F900000F00306090C0F124FF000080EE04FF08E
:102FA00004080BE04FF0400808E04FF0080805E087
:102FB0004FF0100802E04FF0200800BFB1E0954943
:102FC000206888421DD18F48006800F0070006285D
:102FD00016D2DFE800F00306090C0F124FF00008CC
:102FE0000EE04FF004080BE04FF0400808E04FF00F
:102FF000080805E04FF0100802E04FF0200800BF7D
:103000008FE085492068884224D17E48006800F01E
:103010003800182814D005DC48B108280AD0102838
:1030200017D10AE020280ED0282812D10EE04FF048
:1030300001080EE04FF004080BE04FF0400808E0F4
:103040004FF0080805E04FF0100802E04FF02008AC
:1030500000BF66E07149206888421DD16948006858
:1030600000F00700062816D2DFE800F00306090C7E
:103070000F124FF000080EE04FF004080BE04FF085
:10308000400808E04FF0080805E04FF0100802E0A3
:103090004FF0200800BF44E06149206888421DD1FC
:1030A0005848006800F00700062816D2DFE800F054
:1030B0000306090C0F124FF000080EE04FF0040851
:1030C0000BE04FF0400808E04FF0080805E04FF033
:1030D000100802E04FF0200800BF22E045492068B8
:1030E00088421ED14748001D006800F007000628EE
:1030F00016D2DFE800F00306090C0F124FF00208A9
:103100000EE04FF004080BE04FF0400808E04FF0ED
:10311000080805E04FF0100802E04FF0200800BF5B
:1031200000BF00BF33492068884201D1012000E080
:10313000002000285DD00025B8F1100F33D009DC45
:10314000B8F1020F10D0B8F1040F11D0B8F1080F88
:103150002ED117E0B8F1200F27D0B8F1400F0CD0D6
:10316000B8F1800F24D124E0FEF020F9054623E0D9
:1031700005A8FEF031F9069D1EE002A8FEF042FA15
:10318000039D19E01F4854380068C0F3401040B157
:103190001C4854380068C0F3C101224820FA01F5E8
:1031A00000E0204D08E0204D06E04FF4004503E02C
:1031B00000BF0120089000BF00BF002D0AD060684A
:1031C00000EB4000A84203D860680003A84202D286
:1031D00001200890D4E2B8F1100F7CD026DCB8F1C1
:1031E000020F2DD0B8F1040F52D0B8F1080F73D1EF
:1031F0009EE03FE1000C0058F369FFCFFFF4FF11A0
:10320000001001405444025800440040004800406F
:10321000004C004000500040001401400078004085
:10322000007C00400090D00300093D00B8F1200F61
:103230007DD0B8F1400F54D0B8F1800FD7D109E15B
:10324000FEF0B4F800270646FB49606A31F810C06A
:1032500062463B4630463946FDF72AF84FF4807601
:1032600000220346A3FB060701FB067103FB0213C2
:1032700061684908064671185A41CDE9001266682E
:103280003246002308460199FDF712F80546E4E0AE
:1032900005A8FEF0A1F8DDF818C0E749606A31F82A
:1032A00010B05A46002360461946FDF701F84FF466
:1032B000807C0022A0FB0C3B01FB0CB100FB021048
:1032C000616849085E1840EB0201D4F804C0624608
:1032D0000023304601E079E0BBE0FCF7E9FF05465A
:1032E000BBE002A8FEF08EF9DDF80CC0D249606A9E
:1032F00031F810B05A46002360461946FCF7D8FF53
:103300004FF4807C0022A0FB0C3B01FB0CB100FBC6
:103310000210616849085E1840EB0201D4F804C04D
:10332000624600233046FCF7C3FF054695E06EE099
:10333000C2480068C0F3401038B3C0480068C0F30A
:10334000C101BF4820FA01FCBB49606A31F810B0E6
:103350005A46002360461946FCF7AAFF4FF4807CCA
:103360000022A0FB0C3B01FB0CB100FB02106168CA
:1033700049085E1840EB0201D4F804C062460023FD
:103380003046FCF795FF05461FE0AB49606A31F80F
:1033900010C062460023AA481946FCF789FF4FF483
:1033A000807C0022A0FB0C3B01FB0CB100FB021057
:1033B000616849085E1840EB0201D4F804C0624617
:1033C00000233046FCF774FF054646E09A49606AE0
:1033D00031F810C0624600239A481946FCF768FF8E
:1033E0004FF4807C0022A0FB0C3B01FB0CB100FBE6
:1033F0000210616849085E1840EB0201D4F804C06D
:10340000624600233046FCF753FF054625E08A4913
:10341000606A31F810C0624600234FF4004019463C
:10342000FCF746FF4FF4807C0022A0FB0C3B01FB25
:103430000CB100FB0210616849085E1840EB020104
:10344000D4F804C0624600233046FCF731FF05463D
:1034500003E000BF0120089000BF00BFB5F5407F2A
:1034600005D3B5F5801F02D22068C56088E1012030
:10347000089085E1E069B0F5004F7CD1B8F1100FFC
:103480007AD00CDCB8F1000F13D0B8F1010F21D0C5
:10349000B8F1040F2FD0B8F1080F6ED151E0B8F198
:1034A000200F6BD0B8F1400F38D0B8F1800F64D145
:1034B00097E0FEF0E5FA604A616A32F81110B0FB5D
:1034C000F1F04000616800EB5100B0FBF1F01FFA31
:1034D00080FA89E0FEF746FA574A616A32F811101D
:1034E000B0FBF1F04000616800EB5100B0FBF1F07F
:1034F0001FFA80FA78E005A8FDF06EFF06994E4AA3
:10350000606A32F81000B1FBF0F04000616800EB37
:103510005100B0FBF1F01FFA80FA65E002A8FEF05E
:1035200071F80399444A606A32F81000B1FBF0F078
:103530004000616800EB5100B0FBF1F01FFA80FA27
:1035400052E03E480068C0F34010C0B13B480068FC
:10355000C0F3C1013A48C840374A616A32F81110D5
:10356000B0FBF1F04000616800EB5100B0FBF1F0FE
:103570001FFA80FA12E044E011E031E01FE02E492A
:10358000606A31F810002E49B1FBF0F0400061682C
:1035900000EB5100B0FBF1F01FFA80FA24E026495D
:1035A000606A31F810002749B1FBF0F04000616813
:1035B00000EB5100B0FBF1F01FFA80FA14E01E4955
:1035C000606A31F810004FF40041B1FBF0F04000A8
:1035D000616800EB5100B0FBF1F01FFA80FA03E0E4
:1035E00000BF0120089000BF00BF4FF6F0700AEA4C
:1035F0000009CAF3420049EA00092068C0F80C90AB
:10360000BEE0B8F1100F7CD00CDCB8F1000F1BD07D
:10361000B8F1010F29D0B8F1040F37D0B8F1080F75
:1036200070D159E0B8F1200F6DD0B8F1400F40D003
:10363000B8F1800F66D19FE0306B1008004402584B
:103640000090D00300093D00FEF01AFA4E4A616A6C
:1036500032F81110B0FBF1F0616800EB5100B0FBE3
:10366000F1F080B22168C86089E0FEF77BF9464A34
:10367000616A32F81110B0FBF1F0616800EB5100A3
:10368000B0FBF1F080B22168C86078E005A8FDF0D9
:10369000A3FE06993C4A606A32F81000B1FBF0F0D4
:1036A000616800EB5100B0FBF1F080B22168C860A6
:1036B00065E002A8FDF0A6FF0399334A606A32F87C
:1036C0001000B1FBF0F0616800EB5100B0FBF1F0CD
:1036D00080B22168C86052E02C480068C0F34010F6
:1036E000C0B12A480068C0F3C1012948C840264A31
:1036F000616A32F81110B0FBF1F0616800EB510023
:1037000002E017E037E025E0B0FBF1F080B221687D
:10371000C8600EE01C49606A31F810001C49B1FB1A
:10372000F0F0616800EB5100B0FBF1F080B221686D
:10373000C86024E01449606A31F810001549B1FBF3
:10374000F0F0616800EB5100B0FBF1F080B221684D
:10375000C86014E00C49606A31F810004FF4004171
:10376000B1FBF0F0616800EB5100B0FBF1F080B20A
:103770002168C86003E000BF0120089000BF00BFBF
:10378000089809B0BDE8F08F306B1008004402586B
:103790000090D00300093D002DE9F04104460D469C
:1037A00017469846069E21E0701CF8B12EB1FDF038
:1037B0005DFDA0EB0800B04218D92068006820F435
:1037C000D070216808602068806820F001002168BE
:1037D0008860202084F8790084F87A0000BF0020F7
:1037E00084F8780000BF0320BDE8F0812068C0693C
:1037F0002840A84201D1012000E00020B842D3D0E7
:103800000020F1E70FB4054B10B503A9044A029854
:10381000FFF010FA10BC5DF814FB00007D69100881
:10382000B400002402480068C0F302207047000082
:103830000CED00E000487047B800002402E008C822
:10384000121F08C1002AFAD170477047002001E01A
:1038500001C1121F002AFBD1704700007FB504464A
:103860000E4600200090FFF7FBF801A91848FDF074
:10387000A9F9054645BB69461548FDF00EFA4FF417
:10388000BF511448FEF00AFE13480068C0EB8012D6
:1038900002EBC0100F4A02EBC0012046009AFCF078
:1038A000F2FB0D480068032805D20B480068401C55
:1038B0000949086002E00020074908600448FDF754
:1038C00087FC009804B070BD4FF0FF30FAE70000AD
:1038D0000001002400020430140000242DE9FF47F9
:1038E00004460D4616461F46DDE90D9ADDF8308088
:1038F00033462A46214604488DE8800700F0E6F961
:1039000004B0BDE8F08700004800002410B504466C
:1039100040F2CE512046FCF703FD10BD10B5044621
:103920000021204600F002F810BD000070B50446EA
:103930000D462A462146024801F16CF970BD00008F
:103940004800002410B50246002000BF401C00EBD8
:10395000C0030D4C54F833305B1C63B100EBC00363
:1039600054F833309342F1D100EBC00304EBC303AE
:103970005B688B42EAD100EBC003034C54F8333050
:103980005B1C03B9002010BD906B100810B50446F5
:103990002146024801F169FD10BD000048000024E5
:1039A000411CC8B2072800DD0120704710B504464D
:1039B00021460020FFF01CFD10BD10B50020FFF0D7
:1039C00023FD10BD10B504462146024803F047FA16
:1039D00010BD0000480000242DE9FF5F05460F469A
:1039E00090461E46DDE90E9B284601F001FBC4B25D
:1039F00040F2F72014FB00F046F274522A4402EB26
:103A00004001234601222846CDE90269CDE900782C
:103A100002F0ABFE5A462146284602F110FE8246CD
:103A2000BAF1000F0CDD40F2F720604305F12002EF
:103A300002EB400000F10C0132464846FCF023FB4B
:103A400000222146284602F080FE504604B0BDE820
:103A5000F09FFEB505460E4617461C460020029014
:103A600002A802233A463146CDE900042846FFF772
:103A7000B3FFBDF80800FEBD2DE9FF5F05460E4609
:103A800017469846DDE90E9A284601F0B1FAC4B20D
:103A900040F2F72014FB00F046F274522A4402EB85
:103AA00040012346082228468DE8C00302F05DFE4F
:103AB00052462146284602F1C2FD83460022214695
:103AC000284602F042FE584604B0BDE8F09F2DE9BA
:103AD000FF5F05460F4690461E46DDE90E9B2846D1
:103AE00001F086FAC4B240F2F72014FB00F046F26F
:103AF00074522A4402EB4001234604222846CDE9B1
:103B00000269CDE9007802F030FE5A462146284687
:103B100002F195FD8246BAF1000F0CDD40F2F7206C
:103B2000604305F1200202EB400000F10C01324637
:103B30004846FCF0A8FA00222146284602F005FE7D
:103B4000504604B0BDE8F09F2DE9F04FC5B0834664
:103B5000884691461E46DBF80070384601F048FA68
:103B6000C5B2002404EB440006EB400006224FF4EB
:103B7000987339F81410CDE901320091039040F2A6
:103B8000F72015FB00F046F274523A4402EB400174
:103B90002B460422384602F0E8FD0C2005A941F826
:103BA00024001EE004EB440006EB400006224FF424
:103BB000987339F81410CDE9023201910490012074
:103BC000009040F2F720684346F274523A4402EB08
:103BD00040012B4604223846FFF0D6FE05A941F8E5
:103BE0002400601C0446A8F101018842DADB444548
:103BF0001EDA04EB440006EB400006224FF49873F3
:103C000039F81410CDE9023201910490002000909F
:103C100040F2F720684346F274523A4402EB400106
:103C20002B4604223846FFF0AFFE05A941F82400D8
:103C3000294638464E9A02F102FD8246BAF1000F3B
:103C400017DB002413E040F2F720684307F120015E
:103C500001EB400005A951F82410084404EB44018D
:103C600006EB410102680A6080888880641C444534
:103C7000E9DB00222946384602F067FD504645B090
:103C8000BDE8F08FFEB505460E4617461C460020DF
:103C9000029002A802233A463146CDE900042846A4
:103CA000FFF715FFBDF80800FEBDFFB583B0044661
:103CB0000D4616460C9F06A8022332462946CDE93A
:103CC00000072046FFF05BFC07B0F0BD2DE9FF4F79
:103CD000ADF6B43D81468A46DDF8ECBB0DF5BC601F
:103CE000FFF714FE00230DF5BC625146484601F172
:103CF00091FE804604A8FFF709FE0DF5BC6504ACF3
:103D0000CAEBCA0101EB4A11D9F8040000EBC1006B
:103D1000B0F8BE001038CDF8B00BBBF1040F78DC62
:103D2000DDF8E80B002874D10A2020800020608094
:103D30002071CAEBCA0202EB4A12D9F8041001EB57
:103D4000C20191F8C800FFF72BFE0746CAEBCA0173
:103D500001EB4A11D9F8040000EBC10080F8C870EB
:103D6000032000EB071060714FF40050E080CBF1AE
:103D700004000C2101EA800040F023002072DDF8ED
:103D8000BC0BA4F80900DDF8C00BE072DDF8F00B05
:103D900001905A4604F10C000199FCF074F944F6C4
:103DA000206304AA5146484601F0ABFF8046B8F1B3
:103DB000000F3ADD2846FFF7A9FD2A46514648463E
:103DC000DDF8F43B01F126FE8046B8F1000FF0DD8E
:103DD000687900F00F0003280ED1E8880321B1EBC9
:103DE000203F09D1B5F80900B4F80910884203D181
:103DF000E87AE17A884218D0287A80280AD1E868DF
:103E00000090514648460DF6BC320CCAFFF0E2FB6A
:103E100009E00BE001200090514648460DF6BC3207
:103E20000CCA01F0E5FF4FF0000847E11FFA8BF6DE
:103E300000200290DDF8B00B864204DDDDF8B00B07
:103E400086B20120029006F10A00208000206080E6
:103E50002071CAEBCA0202EB4A12D9F8041001EB36
:103E6000C20191F8C800FFF79BFD0746CAEBCA02E2
:103E700002EB4A12D9F8041001EBC20181F8C870B4
:103E8000032101EB071060714FF40050E080DDF872
:103E9000E80B10B13120207201E021202072DDF802
:103EA000BC0BA4F80900DDF8C00BE072DDF8E80BEC
:103EB00028B1DDF8C00B012801DD0120E072C4F853
:103EC0000CB0DDF8F01B0191324604F110000199AD
:103ED000FCF0D9F8019830440190ABEB060B44F6A6
:103EE000206304AA5146484601F00BFF8046B8F112
:103EF000000F9ADD0DF5BC60FFF708FD0DF5BC6203
:103F000051464846DDF8F43B01F184FD8046B8F1A6
:103F1000000F8ADD687900F00F0003287DD1E88862
:103F20000321B1EB203FF9D1B5F80900B4F809102D
:103F30008842F3D1E87AE17A8842EFD1DDF8B00B1C
:103F4000C01DCDF8B00B002003909AE004AC1FFA1E
:103F50008BF60020029001202072DDF8B00B864223
:103F600006DDDDF8B00B86B2012002900020207241
:103F7000029850B9072E08DA0A202080C6F10700FF
:103F8000012101EB4000207201E0F01C20800020A4
:103F900060802071CAEBCA0202EB4A12D9F8041001
:103FA00001EBC20191F8C800FFF7FAFC0746CAEB23
:103FB000CA0101EB4A11D9F8040000EBC10080F8F6
:103FC000C870032000EB071060714FF40050E080D0
:103FD000217A039808442072324604F109000199BD
:103FE000FCF051F8019830440190ABEB060B44F61D
:103FF000206304AA5146484601F083FE8046B8F18A
:10400000000F3ADD0DF5BC60FFF780FC0DF5BC62DA
:1040100051464846DDF8F43B00E037E001F1FAFC98
:104020008046B8F1000F28DD687900F00F00032802
:1040300009D1E8880321B1EB203F04D1287A00F0B0
:10404000E000202819D0287A802809D1E86800905B
:10405000514648460DF6BC320CCAFFF0BBFA08E0E8
:1040600001200090514648460DF6BC320CCA01F0C2
:10407000BFFE4FF0000800200290039880F010006F
:104080000390029800287FF461AF17E0287A802817
:1040900009D1E8680090514648460DF6BC320CCA7A
:1040A000FFF098FA08E001200090514648460DF6CE
:1040B000BC320CCA01F09CFE4FF0000840460DF6E1
:1040C000C43DBDE8F08FF0B589B004460D461646F4
:1040D0001F46182103A8FCF723F901A802F15CFC94
:1040E000DDE90101CDE90301ADF81650ADF8186026
:1040F00000208DF81A000120E16A087008208DF870
:104100001B00ADF81C7003A9204601F0EDFE09B0BC
:10411000F0BD2DE9FF4FADF6BC3D81468A46934682
:10412000DDF8F47B0DF2DC50FFF7F0FB00230DF21D
:10413000DC525146484601F16DFC03A8FFF7E6FB4F
:104140000DF2DC5503AC042020800020608020713B
:10415000CAEBCA0202EB4A12D9F8041001EBC20101
:1041600091F8C800FFF71CFC02900298CAEBCA0243
:1041700002EB4A12D9F8041001EBC20181F8C80021
:104180000521029801EB00106071A07920F0070072
:10419000401CA071A07920F00800A071A07920F047
:1041A0001000A071A0796BF34710A071DDF8C80B67
:1041B000E071DDF8F00B20814FF00008DDF8F81B0E
:1041C000CDF8B41B0DF2E650CDF8B00B01200190F4
:1041D00044F6206303AA5146484601F092FDCDF80B
:1041E000B80BDDF8B80B00287CDD9BE00DF2DC504D
:1041F000FFF78CFB0DF2DC5251464846DDF8FC3BE4
:1042000001F108FCCDF8B80BDDF8B80B00287EDD15
:10421000687900F00F00052843D1A87900F0070065
:1042200002283ED1A879C0F30010C8BBA879BBEB27
:10423000501F36D1E979DDF8C80B814231D1288889
:10424000001F86B208EB06001FFA80F83868404568
:104250000CDB3246DDF8B01BDDF8B40BFBF013FFCE
:10426000DDF8B40B3044CDF8B40B10E03888A8EB7F
:104270000000301A86B238881FFA80F8002E06DD5A
:104280003246DDF8B01BDDF8B40BFBF0FCFEA8797C
:10429000C0F3C00040BB00200190C7F8008041E09F
:1042A000FFE700200190687900F00F00052821D178
:1042B000A87900F0070002281CD1A879C0F30010EB
:1042C000C0B12888001D0DF2DC510844CDF8B00BB8
:1042D000DDF8B00BCDF8AC0BDDF8AC0B0388514624
:1042E000484602E022E012E01CE0DDF8F02BFFF788
:1042F000EAFE08E001200023009051464846DDF820
:10430000F02B01F075FD0020CDF8B80B0AE000207D
:10431000019004200023009051464846DDF8F02B20
:1043200001F066FD019800287FF460AFDDF8B80B5E
:104330000DF6CC3DBDE8F08F0146002003E00022E1
:1043400041F82020401C1028F9DB70472DE9FF4F71
:1043500087B004461D46DDE91497002006900590BD
:1043600000BF04908046FEA0FFF74CFAC5EBC501E4
:1043700001EB4511606800EBC10090F80461C5EBEA
:10438000C50101EB4511606800EBC1008088029017
:1043900031E23146F7A0FFF735FA03E008F10100FA
:1043A00000F0FF08B8F1070F0BDAC5EBC50101EB10
:1043B0004511606800EBC100713010F80800032857
:1043C000ECD14146EFA0FFF71DFAC5EBC50101EBAB
:1043D0004511606800EBC100313000EBC800018876
:1043E000C5EBC50202EB4512606800EBC2007930F4
:1043F00000EB06100181C5EBC50101EB45116068BA
:1044000000EBC100313000EBC800B0F802A0059805
:1044100050440590069800EBCA000690C5EBC50114
:1044200001EB4511606800EBC100313000EBC800C2
:104430000088504480B203904BE008F1010000F086
:10444000FF0803E008F1010000F0FF08B8F1070FD2
:104450000BDAC5EBC50101EB4511606800EBC1004B
:10446000713010F808000328ECD1C5EBC50101EB51
:104470004511606800EBC100313000EBC8000188D5
:104480000398814200DD32E04146BEA0FFF7BAF951
:10449000C5EBC50101EB4511606800EBC10031308F
:1044A00000EBC800B0F802A00598504405900698AB
:1044B00000EBCA000690C5EBC50101EB4511606831
:1044C00000EBC100313000EBC8000088504480B2DE
:1044D0000390C5EBC50101EB4511606800EBC1001D
:1044E000018B0698814202DDB8F1070FA5DB00BF02
:1044F000C5EBC50101EB4511606800EBC100C06967
:10450000002866D1D9F80010C5EBC50202EB4512B0
:10451000606800EBC200793000EB0610016039786A
:10452000C5EBC50202EB4512606800EBC2007930B2
:1045300000EB06108171C5EBC50101EB4511606808
:1045400000EBC100007E401E39780844387038788E
:10455000072807DDD9F80000401CC9F800003878AA
:1045600008383870C5EBC50101EB4511606800EBF8
:10457000C100793000EB06100068D9F80010081A65
:1045800000F1010BC5EBC50202EB4512606800EBC0
:10459000C200793000EB0610A0F804B03978C5EB02
:1045A000C50202EB4512606800EBC200793000EBF7
:1045B0000610C1713878401C38703878072864DDDF
:1045C000D9F80000401CC9F8000038780838387065
:1045D0005BE0387830B1D9F80000401CC9F8000021
:1045E00000203870D9F80010C5EBC50202EB451267
:1045F000606800EBC200793000EB0610016039788A
:10460000C5EBC50202EB4512606800EBC2007930D1
:1046100000EB0610817107203870DDF814B0C5EB8F
:10462000C50101EB4511606800EBC100C169049848
:10463000584481420ADAC5EBC50101EB45116068B7
:1046400000EBC100C1690498A1EB000BD9F8000090
:104650005844C9F80000C5EBC50202EB451260687A
:1046600000EBC200793000EB0610A0F804B03978F6
:10467000C5EBC50202EB4512606800EBC200793061
:1046800000EB0610C1710020387004985844049063
:104690000021C5EBC50202EB4512606800EBC200C9
:1046A000793000EB061081720221C5EBC50202EBE6
:1046B0004512606800EBC200793000EB0610C17251
:1046C0000121C5EBC50202EB4512606800EBC20098
:1046D000793000EB0610017341F27071C5EBC50231
:1046E00002EB4512606800EBC200793000EB061067
:1046F000CDE90001310101F5C06210232068029963
:10470000FEF03DFF2169099800EB800202EB4010AA
:1047100001EBC000408C401C81B22269099800EB7B
:10472000800303EB401002EBC0004184C5EBC501E0
:1047300001EB4511606800EBC100006A78B9C5EB78
:10474000C50101EB4511606800EBC100793000EB59
:104750000610016808980144C5EBC5021AE048E05C
:1047600020204F5554505554204D415050494E47EC
:104770000D0A000020202020464D4D552025640DB7
:104780000A000000202020202020534D25640D0A1F
:104790000000000002EB4512606800EBC2000162FD
:1047A000C5EBC50101EB4511606800EBC100793034
:1047B00000EB06108079C5EBC50202EB451261687B
:1047C00001EBC20181F82400C5EBC50101EB4511E5
:1047D000606800EBC10090F82430C5EBC50101EB27
:1047E0004511606800EBC1002946026A12A0FFF77C
:1047F00009F8701CC6B2B8F1070F10DAC5EBC50294
:1048000002EB4512616801EBC201098BC81DC1179B
:1048100000EB5171CA1004998A423FF7BAADC5EB5B
:10482000C50101EB4511606800EBC10080F804612F
:104830000BB0BDE8F08F000020202020736C617663
:1048400065202564204F7574707574732025702061
:1048500073746172746269742025640D0A0000002B
:104860002DE9F04105460E464FF0000806E0002015
:10487000254901EB0811486008F10108B8F1010F62
:10488000F5DB012412E056B1C4EBC40101EB441185
:10489000686800EBC10090F80301B04204D1002227
:1048A0002146284600F044FE601C84B2A8680068D7
:1048B000A042E8DA00BF00F08DFB07461FB14FF4BD
:1048C0007A7002F1E5F8002FF5D1012415E056B118
:1048D000C4EBC40101EB4411686800EBC10090F81F
:1048E0000301B04207D12146284600F013FF2146BC
:1048F000284601F01BF8601C84B2A8680068A0423A
:10490000E5DABDE8F0810000A80200242DE9F04FAF
:1049100095B00446002011908046616881F8C90076
:104920002169087510904FF4FA6010A9CDE90010C4
:1049300004234FF4106200212068FFF79DF86846B9
:1049400002F12AF8DDE90001CDE90501FE490598EB
:10495000401A0590FD490598A0FB013006995A18A8
:1049600040F100004FF47A730021A2FB03CB00FB5F
:1049700003B002FB0100CDE902C00125E2E2C5EB74
:10498000C50101EB4511606800EBC10090F8CC0057
:10499000C5EBC50202EB4512616801EBC20181F86B
:1049A000CD00C5EBC50101EB4511606800EBC1000E
:1049B00090F8C90000287DD0606890F8C900B0B9AF
:1049C0000120616881F8C9006068A0F8E850002003
:1049D000C5EBC50202EB4512616801EBC201A1F80B
:1049E000EA000120216908752069C58211E0C8EB41
:1049F000C80101EB4811606800EBC100A0F8E85065
:104A0000C5EBC50101EB4511606800EBC100A0F8E2
:104A1000EA8000201190A846C5EBC50101EB4511C5
:104A2000606800EBC100808813904FF4FA6010A911
:104A3000CDE9001004234FF4106220681399FFF7AA
:104A400046F81098C5EBC50202EB4512616801EB10
:104A5000C201C1F8D4004FF4FA600CA9CDE90010EE
:104A6000082340F6181220681399FFF730F8002247
:104A7000DDE90C01434262EB0101DDE902209A18F5
:104A80004141CDE90C214FF4FA600CA9CDE90010A9
:104A900008234FF4126220681399FEF070FD4FF462
:104AA000FA6010A9CDE90010042340F60412206832
:104AB000139900E0F5E1FFF70AF81098C5EBC5027D
:104AC00002EB4512616801EBC201C1F8D8004FF456
:104AD000FA6010A9CDE90010042340F608122068FE
:104AE0001399FEF7F4FF1098C5EBC50202EB4512CF
:104AF000616801EBC201C1F8DC004FF4FA6010A953
:104B0000CDE90010042340F60C1220681399FEF73B
:104B1000DEFF1098C5EBC50202EB4512616801EBA0
:104B2000C201C1F8E0000027C5EBC50101EB45114A
:104B3000606800EBC10090F8CC0000F0010080B18B
:104B400000200BA9C855C5EBC50101EB45116068F4
:104B500000EBC100D0F8D40007A941F82700781C69
:104B600047B2C5EBC50101EB4511606800EBC10020
:104B700090F8CC0000F0080080B103200BA9C855C4
:104B8000C5EBC50101EB4511606800EBC100D0F831
:104B9000E00007A941F82700781C47B2C5EBC50122
:104BA00001EB4511606800EBC10090F8CC0000F00B
:104BB000020080B101200BA9C855C5EBC50101EB6E
:104BC0004511606800EBC100D0F8D80007A941F892
:104BD0002700781C47B2C5EBC50101EB45116068A1
:104BE00000EBC10090F8CC0000F0040080B102207E
:104BF0000BA9C855C5EBC50101EB4511606800EB79
:104C0000C100D0F8DC0007A941F82700781C47B2A2
:104C10004FF00009012F07DD07A951F82910089866
:104C2000884201DA4FF00109022F07DD07A951F888
:104C300029100998884201DA4FF00209032F07DD95
:104C400007A951F829100A98884201DA4FF00309A0
:104C50000BA810F80990C5EBC50101EB4511606880
:104C600000EBC10080F8D190C5EBC50101EB451107
:104C7000606800EBC10090F8CD00012101FA09F154
:104C80008843C5EBC50202EB4512616801EBC20126
:104C900081F8CD002E4600BF1296C6EBC60101EB8F
:104CA0004611606800EBC100B0F8CE6056B1C6EBAB
:104CB000C60101EB4611606800EBC10090F8C90025
:104CC0000028E9D0002E7CDD3146204600F1D4FFDB
:104CD000C5EBC50202EB4512616801EBC20181F828
:104CE000D000C6EBC60101EB4611606800EBC100C5
:104CF00090F8CB00012811D1C6EBC60101EB46119B
:104D0000606800EBC10090F8D100C5EBC50202EB72
:104D10004512616801EBC20181F8D0004FF0000A32
:104D200000200F90C5EBC50101EB4511606800EB59
:104D3000C10090F8D0203146204600F1CFFF8346D5
:104D4000C5EBC50104E0000080436D3840420F0010
:104D500001EB4511606800EBC10090F8D0203146AE
:104D6000204601F06EF8024631460190204600F1DF
:104D7000B5FFABEB00000E90C5EBC50101EB451193
:104D8000606800EBC10090F8CB00012824DDC5EB82
:104D9000C50101EB4511606800EBC10090F8D1201E
:104DA0002946204601F04DF802462946019020464A
:104DB00000F194FF8346C5EBC50101EB4511606826
:104DC00000E0BDE000EBC10090F8D120294620466C
:104DD00000F184FFABEB000A0E98824501DDCAF1B9
:104DE000000A1298801B012823DDC5EBC50101EBE9
:104DF0004511606800EBC10090F8D0203146204694
:104E000001F01FF8024631460190204600F166FF8E
:104E10008346C6EBC60101EB4611606800EBC1009A
:104E200090F8D1203146204600F158FFABEB00004E
:104E30000F900F98002802DA0F9840420F900E99B9
:104E4000A1EB0A0000EBD0714A100F990A44C6EB9F
:104E5000C60303EB4613616801EBC301D1F8E4100C
:104E60000A44C5EBC50303EB4513616801EBC301BD
:104E7000C1F8E420C5EBC50101EB4511606800EB0A
:104E8000C100D0F8E40010904FF4FA6010A9CDE909
:104E90000010042340F6281220681399FEF06FFBDF
:104EA0004EE00020C5EBC50202EB4512616801EB44
:104EB000C201C1F8D400C5EBC50202EB451261681E
:104EC00001EBC201C1F8D800C5EBC50202EB4512E7
:104ED000616801EBC201C1F8DC00C5EBC50202EB61
:104EE0004512616801EBC201C1F8E000C5EBC501E4
:104EF00001EB4511606800EBC100B0F8CE60002EF8
:104F00000BDDC6EBC60101EB4611606800EBC1008A
:104F100090F8CB00022800DD1196119880B1C5EB06
:104F2000C50101EB4511606800EBC10090F8CB00B2
:104F3000012805D12046119900F19EFE0020119014
:104F4000681C85B2A0680068A842BFF618AD60680A
:104F500090F8C90015B0BDE8F08F2DE9FF4706466F
:104F6000884614461F464FF00009CA46394602A833
:104F700001F158FD00BFB9F1000009F1010902D0AB
:104F8000C82001F185FD002020804FF4FA60CDE9B2
:104F90000040022340F2025241463068FEF797FD7E
:104FA000054620882080002D04DD208800F4004084
:104FB000002804DD02A801F108FD0028DBD02088CC
:104FC00000F4004008B94FF0010A1FFA8AF004B05B
:104FD000BDE8F0870020002105E0044A02EB011241
:104FE00052681044491C0129F7DB7047A8020024CD
:104FF00010B501464CF688235B58581C102800DB7E
:105000000020002204E0401C521C102800DB00207D
:1050100001F5BE4353F820300BB1102AF3DB012415
:1050200001F5BE4343F820404CF68C235B5833B166
:105030004CF690235B5803F5BE4343F820404CF6F2
:105040008823585010BD70B504460020A168086040
:105050004FF49C73E26802FB03F16068FBF760F9B0
:105060004FF49473626902FB03F12069FBF758F96E
:105070004FF480520021204601F0E9FD002508E0B0
:10508000280405EB850202EB4512216941F8320044
:105090006D1C6069A842F3DC70BD00002DE9F0478B
:1050A00004460E4690469946012E7DDDA0680068B4
:1050B0000028FADD012500E06D1CC5EBC50101EB00
:1050C0004511606800EBC1008068C6EBC60202EBC8
:1050D0004612616801EBC2018968884223D1C5EBA1
:1050E000C50101EB4511606800EBC100C068C6EB6B
:1050F000C60202EB4612616801EBC201C968884230
:1051000011D1C5EBC50101EB4511606800EBC10091
:105110000069C6EBC60202EB4612616801EBC201F0
:105120000969884201D0B542C6DBB5425EDA002784
:1051300028E0C5EBC50101EB4511606800EBC1003B
:10514000313000EBC7004188C6EBC60202EB4612C5
:10515000606800EBC200313000EBC7004180C5EB56
:10516000C50101EB4511606800EBC1007130C15D04
:10517000C6EBC60202EB4612606800EBC20071305B
:10518000C1557F1C082FD4DBC5EBC50101EB4511D0
:10519000606800EBC100008BC8F80000C5EBC501DA
:1051A00001EB4511606800E020E000EBC100C08C1D
:1051B000C9F80000B8F80000C6EBC60202EB4612C0
:1051C000616801EBC2010883B9F80000C6EBC602B2
:1051D00002EB4612616801EBC201C8842A463146DF
:1051E00003A0FEF70FFB0120BDE8F0870020FBE7DE
:1051F000436F7079206D617070696E6720736C61A8
:1052000076652025642066726F6D2025642E0D0A58
:10521000000000002DE9F04104460D46012D7CDD23
:10522000A06800680028FADD012600E0761CC6EBC5
:10523000C60101EB4611606800EBC1008068C5EB58
:10524000C50202EB4512616801EBC2018968884220
:1052500023D1C6EBC60101EB4611606800EBC1002B
:10526000C068C5EBC50202EB4512616801EBC201E3
:10527000C968884211D1C6EBC60101EB46116068CE
:1052800000EBC1000069C5EBC50202EB4512616885
:1052900001EBC2010969884201D0AE42C6DBAE42D1
:1052A0003BDAC6EBC60101EB4611606800EBC100BA
:1052B00090F8FC00C5EBC50202EB4512616801EBFA
:1052C000C20181F8FC00C6EBC60101EB4611606823
:1052D00000EBC10090F8FD00C5EBC50202EB4512E2
:1052E000616801EBC20181F8FD00C6EBC60101EB6C
:1052F0004611606800EBC10090F8FE00C5EBC502E6
:1053000002EB4512616801EBC20181F8FE00C6EBB9
:10531000C60101EB4611606800E0F7E000EBC10058
:1053200090F8FF10C5EBC50202EB4512606800EB78
:10533000C20080F8FF10C6EBC60101EB46116068A1
:1053400000EBC10090F80201002810DD0120C5EB40
:10535000C50202EB4512616801EBC20181F802014E
:10536000606890F80201401C616881F80201C6EB98
:10537000C60101EB4611606800EBC100B0F8000106
:10538000C5EBC50202EB4512616801EBC201A1F851
:105390000001C5EBC50101EB4511606800EBC100E0
:1053A000B0F800016168B1F80011084400B261680A
:1053B000A1F80001C6EBC60303EB4613626802EBDB
:1053C000C30202F58671C5EBC50303EB45136268A2
:1053D00002EBC30202F586702922FAF054FE002780
:1053E00042E0C6EBC60101EB4611606800EBC1006C
:1053F000313000EBC7000188C5EBC50202EB451256
:10540000606800EBC200313000EBC7000180C6EBE2
:10541000C60101EB4611606800EBC100313000EBC2
:10542000C7004188C5EBC50202EB4512606800EB7E
:10543000C200313000EBC7004180C6EBC60101EB72
:105440004611606800EBC100313000EBC7004168D5
:10545000C5EBC50202EB4512606800EBC2003130BB
:1054600000EBC70041607F1C082FBADBC6EBC6010A
:1054700001EB4611606800EBC10090F8B900C5EB84
:10548000C50202EB4512616801EBC20181F8B90067
:10549000C6EBC60101EB4611606800EBC10090F855
:1054A000BA00C5EBC50202EB4512616801EBC2010F
:1054B00081F8BA00C6EBC60101EB4611606800EB4B
:1054C000C10090F8BB00C5EBC50202EB4512616854
:1054D00001EBC20181F8BB00C6EBC60101EB46112E
:1054E000606800EBC10090F8BC00C5EBC50202EBA0
:1054F0004512616801EBC20181F8BC0032462946C1
:1055000003A0FEF77FF90120BDE8F0810020FBE752
:10551000436F70792053494920736C61766520256B
:10552000642066726F6D2025642E0D0A0000000055
:10553000FEB505460C4617465D4B0222214628461D
:1055400001F1B1F8C4EBC40101EB4411686830F813
:105550003130C4EBC40101EB441100EBC10082887F
:10556000214654A0FEF74EF9C4EBC40101EB4411EF
:10557000686800EBC100D0F8080150B1C4EBC40268
:1055800002EB4412686800EBC200D0F80811204614
:105590008847C4EBC40101EB4411686800EBC1000B
:1055A000B0F8F600002869D102900190C4EBC40164
:1055B00001EB4411686800EBC10090F8C60000F0F0
:1055C000040010B30026C4EBC40101EB4411686869
:1055D00000EBC10090F8FC0000F0200040B102A8F0
:1055E00001AB3A4621460090284600F141FC0646B0
:1055F00036B902AB01AA2146284600F017FE06463E
:1056000036A0DDE90112FEF7FDF80298A8BB01986B
:1056100098BBC4EBC40101EB4411686800EBC10006
:1056200090F8C60000F0100038B302AB01AA214682
:10563000284600F0B9FC06460199C81DC11700EBC9
:105640005171C1F3CF02C4EBC40303EB4413696887
:1056500001EBC301A1F843200299C81DC11700EB5B
:105660005171C1F3CF02C4EBC40303EB4413696867
:1056700001EBC301A1F84B2001E005E016E01EA0FC
:10568000DDE90112FEF7BEF80198C4EBC40202EB9B
:105690004412696801EBC20108830298C4EBC4029A
:1056A00002EB4412696801EBC201C8840120FEBD0F
:1056B00080841E00203E536C6176652025642C207A
:1056C000636F6E6669676164722025782C2073743D
:1056D0006174652025322E32780D0A002020436F38
:1056E00045204F73697A653A2564204973697A6564
:1056F0003A25640D0A0000002020536F45204F73A7
:10570000697A653A2564204973697A653A25640D9A
:105710000A00000070B5ADF5426D05460E46C6EBB9
:10572000C60101EB4611686800EBC100008BCDF8A3
:10573000180CC6EBC60101EB4611686800EBC1000E
:10574000C08CCDF81C0CDDF81C0C48B9DDF8180C29
:1057500030B90DF61C431A1F31462846FFF79EFC50
:10576000DDF81C0C00287CD1DDF8180C0028FAD1DB
:1057700040F618416846FAF7D3FD00236A463146E1
:10578000284601F083F8CDF81C0C51A0DDF81C1C54
:10579000FEF738F800242CE00DF6064030F814002F
:1057A000002825DD0DF6064131F81410C81DC1177B
:1057B00000EB5171C910C6EBC60303EB46136A68D0
:1057C00002EBC302313202EBC40251800421C6EB6A
:1057D000C60202EB4612686800EBC2007130015548
:1057E0000DF6064030F8142021463EA0FEF70AF8D8
:1057F000641C082CD0DB01236A463146284601F0A0
:1058000045F8CDF8180C3DA0DDF8181CFDF7FAFF9F
:1058100000242EE00DF6064030F81400002827DDA5
:105820000DF6064131F81410C81DC11700EB517177
:10583000C910C6EBC60303EB46136A6802EBC3024A
:10584000313202EBC40251800321C6EBC60202EBE7
:105850004612686800EBC200713001550DF6064033
:1058600000E008E030F8142021461EA0FDF7CAFF32
:10587000641C082CCEDBDDF8180CC6EBC60202EB6C
:105880004612696801EBC2010883DDF81C0CC6EB07
:10589000C60202EB4612696801EBC201C884C6EB7E
:1058A000C60202EB4612686800EBC200038BC6EB2F
:1058B000C60202EB4612686800EBC200C18C14A05D
:1058C000DDF81C2CFDF79EFF01200DF5426D70BD2B
:1058D0002020534949204973697A653A25640D0AA5
:1058E0000000000020202020534D2564206C656EB0
:1058F0006774682025640D0A0000000020205349C9
:1059000049204F73697A653A25640D0A000000004A
:1059100020202020204953495A453A2564202564F7
:10592000204F53495A453A25640D0A002DE9FC41A0
:1059300004460D46C5EBC50101EB4511606800EB5F
:10594000C1008788A1A0FDF75DFFC5EBC50101EB94
:105950004511606800EBC100B0F8BE0000283BD1E3
:10596000C5EBC50101EB4511606800EBC100B0F863
:10597000310068B341F27071C5EBC50202EB45120C
:10598000606800EBC2003130CDE9000108231A0243
:1059900039462068FDF0F3FDC5EBC50C0CEB451C4A
:1059A000606800EBCC00D0F83530C5EBC50C0CEBD3
:1059B000451C606800EBCC00B0F83120C5EBC50C8D
:1059C0000CEB451C606800EBCC0090F8711000E017
:1059D00002E083A0FDF716FFC5EBC50101EB451101
:1059E000606800EBC100B0F8BE0000283AD1C5EBFA
:1059F000C50101EB4511606800EBC100B0F839004A
:105A000080B341F27071C5EBC50202EB45126068CC
:105A100000EBC2003930CDE90001082340F608024E
:105A200039462068FDF0ABFDC5EBC50C0CEB451C01
:105A3000606800EBCC00D0F83D30C5EBC50C0CEB3A
:105A4000451C606800EBCC00B0F83920C5EBC50CF4
:105A50000CEB451C606800EBCC0090F872106CA059
:105A6000FDF7D0FE02266DE0C5EBC50101EB451147
:105A7000606800EBC100313000EBC60000880028F0
:105A80005FD0C5EBC50101EB4511606800EBC100BB
:105A9000313000EBC6004088B8B9C5EBC50101EB59
:105AA0004511606800EBC100313000EBC600406872
:105AB00020F48031C5EBC50202EB4512606800EBB3
:105AC000C200313000EBC600416041F27071C5EB9D
:105AD000C50202EB4512606800EBC200313000EBFA
